{
	"voting_dapp.sol": {
		"VotingSystem": {
			"abi": [
				{
					"inputs": [
						{
							"internalType": "uint256",
							"name": "_durationInMinutes",
							"type": "uint256"
						}
					],
					"stateMutability": "nonpayable",
					"type": "constructor"
				},
				{
					"anonymous": false,
					"inputs": [
						{
							"indexed": false,
							"internalType": "uint256",
							"name": "indexed_candidateId",
							"type": "uint256"
						}
					],
					"name": "VoteEvent",
					"type": "event"
				},
				{
					"inputs": [
						{
							"internalType": "uint256",
							"name": "",
							"type": "uint256"
						}
					],
					"name": "candidate",
					"outputs": [
						{
							"internalType": "uint256",
							"name": "id",
							"type": "uint256"
						},
						{
							"internalType": "string",
							"name": "name",
							"type": "string"
						},
						{
							"internalType": "uint256",
							"name": "voteCount",
							"type": "uint256"
						}
					],
					"stateMutability": "view",
					"type": "function"
				},
				{
					"inputs": [],
					"name": "candidateCount",
					"outputs": [
						{
							"internalType": "uint256",
							"name": "",
							"type": "uint256"
						}
					],
					"stateMutability": "view",
					"type": "function"
				},
				{
					"inputs": [],
					"name": "endTime",
					"outputs": [
						{
							"internalType": "uint256",
							"name": "",
							"type": "uint256"
						}
					],
					"stateMutability": "view",
					"type": "function"
				},
				{
					"inputs": [],
					"name": "getAllCandidates",
					"outputs": [
						{
							"components": [
								{
									"internalType": "uint256",
									"name": "id",
									"type": "uint256"
								},
								{
									"internalType": "string",
									"name": "name",
									"type": "string"
								},
								{
									"internalType": "uint256",
									"name": "voteCount",
									"type": "uint256"
								}
							],
							"internalType": "struct VotingSystem.Candidate[]",
							"name": "",
							"type": "tuple[]"
						}
					],
					"stateMutability": "view",
					"type": "function"
				},
				{
					"inputs": [
						{
							"internalType": "uint256",
							"name": "_candidateId",
							"type": "uint256"
						}
					],
					"name": "getCandidateById",
					"outputs": [
						{
							"components": [
								{
									"internalType": "uint256",
									"name": "id",
									"type": "uint256"
								},
								{
									"internalType": "string",
									"name": "name",
									"type": "string"
								},
								{
									"internalType": "uint256",
									"name": "voteCount",
									"type": "uint256"
								}
							],
							"internalType": "struct VotingSystem.Candidate",
							"name": "",
							"type": "tuple"
						}
					],
					"stateMutability": "view",
					"type": "function"
				},
				{
					"inputs": [],
					"name": "getCurrentLeader",
					"outputs": [
						{
							"internalType": "string",
							"name": "",
							"type": "string"
						}
					],
					"stateMutability": "view",
					"type": "function"
				},
				{
					"inputs": [],
					"name": "getWinner",
					"outputs": [
						{
							"internalType": "string",
							"name": "",
							"type": "string"
						}
					],
					"stateMutability": "view",
					"type": "function"
				},
				{
					"inputs": [],
					"name": "startTime",
					"outputs": [
						{
							"internalType": "uint256",
							"name": "",
							"type": "uint256"
						}
					],
					"stateMutability": "view",
					"type": "function"
				},
				{
					"inputs": [
						{
							"internalType": "uint256",
							"name": "_candidateId",
							"type": "uint256"
						}
					],
					"name": "vote",
					"outputs": [],
					"stateMutability": "nonpayable",
					"type": "function"
				},
				{
					"inputs": [
						{
							"internalType": "address",
							"name": "",
							"type": "address"
						}
					],
					"name": "voter",
					"outputs": [
						{
							"internalType": "bool",
							"name": "",
							"type": "bool"
						}
					],
					"stateMutability": "view",
					"type": "function"
				}
			],
			"devdoc": {
				"kind": "dev",
				"methods": {},
				"version": 1
			},
			"evm": {
				"assembly": "    /* \"voting_dapp.sol\":60:2645  contract VotingSystem {... */\n  mstore(0x40, 0x80)\n    /* \"voting_dapp.sol\":315:316  0 */\n  0x00\n    /* \"voting_dapp.sol\":286:316  uint public candidateCount = 0 */\n  0x02\n  sstore\n    /* \"voting_dapp.sol\":429:642  constructor(uint _durationInMinutes){... */\n  callvalue\n  dup1\n  iszero\n  tag_1\n  jumpi\n  0x00\n  dup1\n  revert\ntag_1:\n  pop\n  mload(0x40)\n  sub(codesize, bytecodeSize)\n  dup1\n  bytecodeSize\n  dup4\n  codecopy\n  dup2\n  dup2\n  add\n  0x40\n  mstore\n  dup2\n  add\n  swap1\n  tag_2\n  swap2\n  swap1\n  tag_3\n  jump\t// in\ntag_2:\n    /* \"voting_dapp.sol\":488:503  block.timestamp */\n  timestamp\n    /* \"voting_dapp.sol\":476:485  startTime */\n  0x03\n    /* \"voting_dapp.sol\":476:503  startTime = block.timestamp */\n  dup2\n  swap1\n  sstore\n  pop\n    /* \"voting_dapp.sol\":558:567  1 minutes */\n  0x3c\n    /* \"voting_dapp.sol\":537:555  _durationInMinutes */\n  dup2\n    /* \"voting_dapp.sol\":537:567  _durationInMinutes * 1 minutes */\n  tag_6\n  swap2\n  swap1\n  tag_7\n  jump\t// in\ntag_6:\n    /* \"voting_dapp.sol\":524:533  startTime */\n  sload(0x03)\n    /* \"voting_dapp.sol\":524:568  startTime + (_durationInMinutes * 1 minutes) */\n  tag_8\n  swap2\n  swap1\n  tag_9\n  jump\t// in\ntag_8:\n    /* \"voting_dapp.sol\":514:521  endTime */\n  0x04\n    /* \"voting_dapp.sol\":514:568  endTime = startTime + (_durationInMinutes * 1 minutes) */\n  dup2\n  swap1\n  sstore\n  pop\n    /* \"voting_dapp.sol\":583:602  addCandidate(\"Bob\") */\n  tag_10\n  mload(0x40)\n  dup1\n  0x40\n  add\n  0x40\n  mstore\n  dup1\n  0x03\n  dup2\n  mstore\n  0x20\n  add\n  0x426f620000000000000000000000000000000000000000000000000000000000\n  dup2\n  mstore\n  pop\n    /* \"voting_dapp.sol\":583:595  addCandidate */\n  shl(0x20, tag_11)\n    /* \"voting_dapp.sol\":583:602  addCandidate(\"Bob\") */\n  0x20\n  shr\n  jump\t// in\ntag_10:\n    /* \"voting_dapp.sol\":613:634  addCandidate(\"Alice\") */\n  tag_12\n  mload(0x40)\n  dup1\n  0x40\n  add\n  0x40\n  mstore\n  dup1\n  0x05\n  dup2\n  mstore\n  0x20\n  add\n  0x416c696365000000000000000000000000000000000000000000000000000000\n  dup2\n  mstore\n  pop\n    /* \"voting_dapp.sol\":613:625  addCandidate */\n  shl(0x20, tag_11)\n    /* \"voting_dapp.sol\":613:634  addCandidate(\"Alice\") */\n  0x20\n  shr\n  jump\t// in\ntag_12:\n    /* \"voting_dapp.sol\":429:642  constructor(uint _durationInMinutes){... */\n  pop\n    /* \"voting_dapp.sol\":60:2645  contract VotingSystem {... */\n  jump(tag_13)\n    /* \"voting_dapp.sol\":650:833  function addCandidate(string memory _name) private {... */\ntag_11:\n    /* \"voting_dapp.sol\":712:726  candidateCount */\n  0x02\n  0x00\n    /* \"voting_dapp.sol\":712:728  candidateCount++ */\n  dup2\n  sload\n  dup1\n  swap3\n  swap2\n  swap1\n  tag_15\n  swap1\n  tag_16\n  jump\t// in\ntag_15:\n  swap2\n  swap1\n  pop\n  sstore\n  pop\n    /* \"voting_dapp.sol\":767:825  Candidate({id: candidateCount, name: _name, voteCount: 0}) */\n  mload(0x40)\n  dup1\n  0x60\n  add\n  0x40\n  mstore\n  dup1\n    /* \"voting_dapp.sol\":782:796  candidateCount */\n  sload(0x02)\n    /* \"voting_dapp.sol\":767:825  Candidate({id: candidateCount, name: _name, voteCount: 0}) */\n  dup2\n  mstore\n  0x20\n  add\n    /* \"voting_dapp.sol\":804:809  _name */\n  dup3\n    /* \"voting_dapp.sol\":767:825  Candidate({id: candidateCount, name: _name, voteCount: 0}) */\n  dup2\n  mstore\n  0x20\n  add\n    /* \"voting_dapp.sol\":822:823  0 */\n  0x00\n    /* \"voting_dapp.sol\":767:825  Candidate({id: candidateCount, name: _name, voteCount: 0}) */\n  dup2\n  mstore\n  pop\n    /* \"voting_dapp.sol\":739:748  candidate */\n  0x00\n    /* \"voting_dapp.sol\":739:764  candidate[candidateCount] */\n  dup1\n    /* \"voting_dapp.sol\":749:763  candidateCount */\n  sload(0x02)\n    /* \"voting_dapp.sol\":739:764  candidate[candidateCount] */\n  dup2\n  mstore\n  0x20\n  add\n  swap1\n  dup2\n  mstore\n  0x20\n  add\n  0x00\n  keccak256\n    /* \"voting_dapp.sol\":739:825  candidate[candidateCount] = Candidate({id: candidateCount, name: _name, voteCount: 0}) */\n  0x00\n  dup3\n  add\n  mload\n  dup2\n  0x00\n  add\n  sstore\n  0x20\n  dup3\n  add\n  mload\n  dup2\n  0x01\n  add\n  swap1\n  dup2\n  tag_17\n  swap2\n  swap1\n  tag_18\n  jump\t// in\ntag_17:\n  pop\n  0x40\n  dup3\n  add\n  mload\n  dup2\n  0x02\n  add\n  sstore\n  swap1\n  pop\n  pop\n    /* \"voting_dapp.sol\":650:833  function addCandidate(string memory _name) private {... */\n  pop\n  jump\t// out\n    /* \"#utility.yul\":88:205   */\ntag_20:\n    /* \"#utility.yul\":197:198   */\n  0x00\n    /* \"#utility.yul\":194:195   */\n  dup1\n    /* \"#utility.yul\":187:199   */\n  revert\n    /* \"#utility.yul\":334:411   */\ntag_22:\n    /* \"#utility.yul\":371:378   */\n  0x00\n    /* \"#utility.yul\":400:405   */\n  dup2\n    /* \"#utility.yul\":389:405   */\n  swap1\n  pop\n    /* \"#utility.yul\":334:411   */\n  swap2\n  swap1\n  pop\n  jump\t// out\n    /* \"#utility.yul\":417:539   */\ntag_23:\n    /* \"#utility.yul\":490:514   */\n  tag_51\n    /* \"#utility.yul\":508:513   */\n  dup2\n    /* \"#utility.yul\":490:514   */\n  tag_22\n  jump\t// in\ntag_51:\n    /* \"#utility.yul\":483:488   */\n  dup2\n    /* \"#utility.yul\":480:515   */\n  eq\n    /* \"#utility.yul\":470:533   */\n  tag_52\n  jumpi\n    /* \"#utility.yul\":529:530   */\n  0x00\n    /* \"#utility.yul\":526:527   */\n  dup1\n    /* \"#utility.yul\":519:531   */\n  revert\n    /* \"#utility.yul\":470:533   */\ntag_52:\n    /* \"#utility.yul\":417:539   */\n  pop\n  jump\t// out\n    /* \"#utility.yul\":545:688   */\ntag_24:\n    /* \"#utility.yul\":602:607   */\n  0x00\n    /* \"#utility.yul\":633:639   */\n  dup2\n    /* \"#utility.yul\":627:640   */\n  mload\n    /* \"#utility.yul\":618:640   */\n  swap1\n  pop\n    /* \"#utility.yul\":649:682   */\n  tag_54\n    /* \"#utility.yul\":676:681   */\n  dup2\n    /* \"#utility.yul\":649:682   */\n  tag_23\n  jump\t// in\ntag_54:\n    /* \"#utility.yul\":545:688   */\n  swap3\n  swap2\n  pop\n  pop\n  jump\t// out\n    /* \"#utility.yul\":694:1045   */\ntag_3:\n    /* \"#utility.yul\":764:770   */\n  0x00\n    /* \"#utility.yul\":813:815   */\n  0x20\n    /* \"#utility.yul\":801:810   */\n  dup3\n    /* \"#utility.yul\":792:799   */\n  dup5\n    /* \"#utility.yul\":788:811   */\n  sub\n    /* \"#utility.yul\":784:816   */\n  slt\n    /* \"#utility.yul\":781:900   */\n  iszero\n  tag_56\n  jumpi\n    /* \"#utility.yul\":819:898   */\n  tag_57\n  tag_20\n  jump\t// in\ntag_57:\n    /* \"#utility.yul\":781:900   */\ntag_56:\n    /* \"#utility.yul\":939:940   */\n  0x00\n    /* \"#utility.yul\":964:1028   */\n  tag_58\n    /* \"#utility.yul\":1020:1027   */\n  dup5\n    /* \"#utility.yul\":1011:1017   */\n  dup3\n    /* \"#utility.yul\":1000:1009   */\n  dup6\n    /* \"#utility.yul\":996:1018   */\n  add\n    /* \"#utility.yul\":964:1028   */\n  tag_24\n  jump\t// in\ntag_58:\n    /* \"#utility.yul\":954:1028   */\n  swap2\n  pop\n    /* \"#utility.yul\":910:1038   */\n  pop\n    /* \"#utility.yul\":694:1045   */\n  swap3\n  swap2\n  pop\n  pop\n  jump\t// out\n    /* \"#utility.yul\":1051:1231   */\ntag_25:\n    /* \"#utility.yul\":1099:1176   */\n  0x4e487b7100000000000000000000000000000000000000000000000000000000\n    /* \"#utility.yul\":1096:1097   */\n  0x00\n    /* \"#utility.yul\":1089:1177   */\n  mstore\n    /* \"#utility.yul\":1196:1200   */\n  0x11\n    /* \"#utility.yul\":1193:1194   */\n  0x04\n    /* \"#utility.yul\":1186:1201   */\n  mstore\n    /* \"#utility.yul\":1220:1224   */\n  0x24\n    /* \"#utility.yul\":1217:1218   */\n  0x00\n    /* \"#utility.yul\":1210:1225   */\n  revert\n    /* \"#utility.yul\":1237:1647   */\ntag_7:\n    /* \"#utility.yul\":1277:1284   */\n  0x00\n    /* \"#utility.yul\":1300:1320   */\n  tag_61\n    /* \"#utility.yul\":1318:1319   */\n  dup3\n    /* \"#utility.yul\":1300:1320   */\n  tag_22\n  jump\t// in\ntag_61:\n    /* \"#utility.yul\":1295:1320   */\n  swap2\n  pop\n    /* \"#utility.yul\":1334:1354   */\n  tag_62\n    /* \"#utility.yul\":1352:1353   */\n  dup4\n    /* \"#utility.yul\":1334:1354   */\n  tag_22\n  jump\t// in\ntag_62:\n    /* \"#utility.yul\":1329:1354   */\n  swap3\n  pop\n    /* \"#utility.yul\":1389:1390   */\n  dup3\n    /* \"#utility.yul\":1386:1387   */\n  dup3\n    /* \"#utility.yul\":1382:1391   */\n  mul\n    /* \"#utility.yul\":1411:1441   */\n  tag_63\n    /* \"#utility.yul\":1429:1440   */\n  dup2\n    /* \"#utility.yul\":1411:1441   */\n  tag_22\n  jump\t// in\ntag_63:\n    /* \"#utility.yul\":1400:1441   */\n  swap2\n  pop\n    /* \"#utility.yul\":1590:1591   */\n  dup3\n    /* \"#utility.yul\":1581:1588   */\n  dup3\n    /* \"#utility.yul\":1577:1592   */\n  div\n    /* \"#utility.yul\":1574:1575   */\n  dup5\n    /* \"#utility.yul\":1571:1593   */\n  eq\n    /* \"#utility.yul\":1551:1552   */\n  dup4\n    /* \"#utility.yul\":1544:1553   */\n  iszero\n    /* \"#utility.yul\":1524:1607   */\n  or\n    /* \"#utility.yul\":1501:1640   */\n  tag_64\n  jumpi\n    /* \"#utility.yul\":1620:1638   */\n  tag_65\n  tag_25\n  jump\t// in\ntag_65:\n    /* \"#utility.yul\":1501:1640   */\ntag_64:\n    /* \"#utility.yul\":1285:1647   */\n  pop\n    /* \"#utility.yul\":1237:1647   */\n  swap3\n  swap2\n  pop\n  pop\n  jump\t// out\n    /* \"#utility.yul\":1653:1844   */\ntag_9:\n    /* \"#utility.yul\":1693:1696   */\n  0x00\n    /* \"#utility.yul\":1712:1732   */\n  tag_67\n    /* \"#utility.yul\":1730:1731   */\n  dup3\n    /* \"#utility.yul\":1712:1732   */\n  tag_22\n  jump\t// in\ntag_67:\n    /* \"#utility.yul\":1707:1732   */\n  swap2\n  pop\n    /* \"#utility.yul\":1746:1766   */\n  tag_68\n    /* \"#utility.yul\":1764:1765   */\n  dup4\n    /* \"#utility.yul\":1746:1766   */\n  tag_22\n  jump\t// in\ntag_68:\n    /* \"#utility.yul\":1741:1766   */\n  swap3\n  pop\n    /* \"#utility.yul\":1789:1790   */\n  dup3\n    /* \"#utility.yul\":1786:1787   */\n  dup3\n    /* \"#utility.yul\":1782:1791   */\n  add\n    /* \"#utility.yul\":1775:1791   */\n  swap1\n  pop\n    /* \"#utility.yul\":1810:1813   */\n  dup1\n    /* \"#utility.yul\":1807:1808   */\n  dup3\n    /* \"#utility.yul\":1804:1814   */\n  gt\n    /* \"#utility.yul\":1801:1837   */\n  iszero\n  tag_69\n  jumpi\n    /* \"#utility.yul\":1817:1835   */\n  tag_70\n  tag_25\n  jump\t// in\ntag_70:\n    /* \"#utility.yul\":1801:1837   */\ntag_69:\n    /* \"#utility.yul\":1653:1844   */\n  swap3\n  swap2\n  pop\n  pop\n  jump\t// out\n    /* \"#utility.yul\":1850:2083   */\ntag_16:\n    /* \"#utility.yul\":1889:1892   */\n  0x00\n    /* \"#utility.yul\":1912:1936   */\n  tag_72\n    /* \"#utility.yul\":1930:1935   */\n  dup3\n    /* \"#utility.yul\":1912:1936   */\n  tag_22\n  jump\t// in\ntag_72:\n    /* \"#utility.yul\":1903:1936   */\n  swap2\n  pop\n    /* \"#utility.yul\":1958:2024   */\n  0xffffffffffffffffffffffffffffffffffffffffffffffffffffffffffffffff\n    /* \"#utility.yul\":1951:1956   */\n  dup3\n    /* \"#utility.yul\":1948:2025   */\n  sub\n    /* \"#utility.yul\":1945:2048   */\n  tag_73\n  jumpi\n    /* \"#utility.yul\":2028:2046   */\n  tag_74\n  tag_25\n  jump\t// in\ntag_74:\n    /* \"#utility.yul\":1945:2048   */\ntag_73:\n    /* \"#utility.yul\":2075:2076   */\n  0x01\n    /* \"#utility.yul\":2068:2073   */\n  dup3\n    /* \"#utility.yul\":2064:2077   */\n  add\n    /* \"#utility.yul\":2057:2077   */\n  swap1\n  pop\n    /* \"#utility.yul\":1850:2083   */\n  swap2\n  swap1\n  pop\n  jump\t// out\n    /* \"#utility.yul\":2089:2188   */\ntag_26:\n    /* \"#utility.yul\":2141:2147   */\n  0x00\n    /* \"#utility.yul\":2175:2180   */\n  dup2\n    /* \"#utility.yul\":2169:2181   */\n  mload\n    /* \"#utility.yul\":2159:2181   */\n  swap1\n  pop\n    /* \"#utility.yul\":2089:2188   */\n  swap2\n  swap1\n  pop\n  jump\t// out\n    /* \"#utility.yul\":2194:2374   */\ntag_27:\n    /* \"#utility.yul\":2242:2319   */\n  0x4e487b7100000000000000000000000000000000000000000000000000000000\n    /* \"#utility.yul\":2239:2240   */\n  0x00\n    /* \"#utility.yul\":2232:2320   */\n  mstore\n    /* \"#utility.yul\":2339:2343   */\n  0x41\n    /* \"#utility.yul\":2336:2337   */\n  0x04\n    /* \"#utility.yul\":2329:2344   */\n  mstore\n    /* \"#utility.yul\":2363:2367   */\n  0x24\n    /* \"#utility.yul\":2360:2361   */\n  0x00\n    /* \"#utility.yul\":2353:2368   */\n  revert\n    /* \"#utility.yul\":2380:2560   */\ntag_28:\n    /* \"#utility.yul\":2428:2505   */\n  0x4e487b7100000000000000000000000000000000000000000000000000000000\n    /* \"#utility.yul\":2425:2426   */\n  0x00\n    /* \"#utility.yul\":2418:2506   */\n  mstore\n    /* \"#utility.yul\":2525:2529   */\n  0x22\n    /* \"#utility.yul\":2522:2523   */\n  0x04\n    /* \"#utility.yul\":2515:2530   */\n  mstore\n    /* \"#utility.yul\":2549:2553   */\n  0x24\n    /* \"#utility.yul\":2546:2547   */\n  0x00\n    /* \"#utility.yul\":2539:2554   */\n  revert\n    /* \"#utility.yul\":2566:2886   */\ntag_29:\n    /* \"#utility.yul\":2610:2616   */\n  0x00\n    /* \"#utility.yul\":2647:2648   */\n  0x02\n    /* \"#utility.yul\":2641:2645   */\n  dup3\n    /* \"#utility.yul\":2637:2649   */\n  div\n    /* \"#utility.yul\":2627:2649   */\n  swap1\n  pop\n    /* \"#utility.yul\":2694:2695   */\n  0x01\n    /* \"#utility.yul\":2688:2692   */\n  dup3\n    /* \"#utility.yul\":2684:2696   */\n  and\n    /* \"#utility.yul\":2715:2733   */\n  dup1\n    /* \"#utility.yul\":2705:2786   */\n  tag_79\n  jumpi\n    /* \"#utility.yul\":2771:2775   */\n  0x7f\n    /* \"#utility.yul\":2763:2769   */\n  dup3\n    /* \"#utility.yul\":2759:2776   */\n  and\n    /* \"#utility.yul\":2749:2776   */\n  swap2\n  pop\n    /* \"#utility.yul\":2705:2786   */\ntag_79:\n    /* \"#utility.yul\":2833:2835   */\n  0x20\n    /* \"#utility.yul\":2825:2831   */\n  dup3\n    /* \"#utility.yul\":2822:2836   */\n  lt\n    /* \"#utility.yul\":2802:2820   */\n  dup2\n    /* \"#utility.yul\":2799:2837   */\n  sub\n    /* \"#utility.yul\":2796:2880   */\n  tag_80\n  jumpi\n    /* \"#utility.yul\":2852:2870   */\n  tag_81\n  tag_28\n  jump\t// in\ntag_81:\n    /* \"#utility.yul\":2796:2880   */\ntag_80:\n    /* \"#utility.yul\":2617:2886   */\n  pop\n    /* \"#utility.yul\":2566:2886   */\n  swap2\n  swap1\n  pop\n  jump\t// out\n    /* \"#utility.yul\":2892:3033   */\ntag_30:\n    /* \"#utility.yul\":2941:2945   */\n  0x00\n    /* \"#utility.yul\":2964:2967   */\n  dup2\n    /* \"#utility.yul\":2956:2967   */\n  swap1\n  pop\n    /* \"#utility.yul\":2987:2990   */\n  dup2\n    /* \"#utility.yul\":2984:2985   */\n  0x00\n    /* \"#utility.yul\":2977:2991   */\n  mstore\n    /* \"#utility.yul\":3021:3025   */\n  0x20\n    /* \"#utility.yul\":3018:3019   */\n  0x00\n    /* \"#utility.yul\":3008:3026   */\n  keccak256\n    /* \"#utility.yul\":3000:3026   */\n  swap1\n  pop\n    /* \"#utility.yul\":2892:3033   */\n  swap2\n  swap1\n  pop\n  jump\t// out\n    /* \"#utility.yul\":3039:3132   */\ntag_31:\n    /* \"#utility.yul\":3076:3082   */\n  0x00\n    /* \"#utility.yul\":3123:3125   */\n  0x20\n    /* \"#utility.yul\":3118:3120   */\n  0x1f\n    /* \"#utility.yul\":3111:3116   */\n  dup4\n    /* \"#utility.yul\":3107:3121   */\n  add\n    /* \"#utility.yul\":3103:3126   */\n  div\n    /* \"#utility.yul\":3093:3126   */\n  swap1\n  pop\n    /* \"#utility.yul\":3039:3132   */\n  swap2\n  swap1\n  pop\n  jump\t// out\n    /* \"#utility.yul\":3138:3245   */\ntag_32:\n    /* \"#utility.yul\":3182:3190   */\n  0x00\n    /* \"#utility.yul\":3232:3237   */\n  dup3\n    /* \"#utility.yul\":3226:3230   */\n  dup3\n    /* \"#utility.yul\":3222:3238   */\n  shl\n    /* \"#utility.yul\":3201:3238   */\n  swap1\n  pop\n    /* \"#utility.yul\":3138:3245   */\n  swap3\n  swap2\n  pop\n  pop\n  jump\t// out\n    /* \"#utility.yul\":3251:3644   */\ntag_33:\n    /* \"#utility.yul\":3320:3326   */\n  0x00\n    /* \"#utility.yul\":3370:3371   */\n  0x08\n    /* \"#utility.yul\":3358:3368   */\n  dup4\n    /* \"#utility.yul\":3354:3372   */\n  mul\n    /* \"#utility.yul\":3393:3490   */\n  tag_86\n    /* \"#utility.yul\":3423:3489   */\n  0xffffffffffffffffffffffffffffffffffffffffffffffffffffffffffffffff\n    /* \"#utility.yul\":3412:3421   */\n  dup3\n    /* \"#utility.yul\":3393:3490   */\n  tag_32\n  jump\t// in\ntag_86:\n    /* \"#utility.yul\":3511:3550   */\n  tag_87\n    /* \"#utility.yul\":3541:3549   */\n  dup7\n    /* \"#utility.yul\":3530:3539   */\n  dup4\n    /* \"#utility.yul\":3511:3550   */\n  tag_32\n  jump\t// in\ntag_87:\n    /* \"#utility.yul\":3499:3550   */\n  swap6\n  pop\n    /* \"#utility.yul\":3583:3587   */\n  dup1\n    /* \"#utility.yul\":3579:3588   */\n  not\n    /* \"#utility.yul\":3572:3577   */\n  dup5\n    /* \"#utility.yul\":3568:3589   */\n  and\n    /* \"#utility.yul\":3559:3589   */\n  swap4\n  pop\n    /* \"#utility.yul\":3632:3636   */\n  dup1\n    /* \"#utility.yul\":3622:3630   */\n  dup7\n    /* \"#utility.yul\":3618:3637   */\n  and\n    /* \"#utility.yul\":3611:3616   */\n  dup5\n    /* \"#utility.yul\":3608:3638   */\n  or\n    /* \"#utility.yul\":3598:3638   */\n  swap3\n  pop\n    /* \"#utility.yul\":3327:3644   */\n  pop\n  pop\n    /* \"#utility.yul\":3251:3644   */\n  swap4\n  swap3\n  pop\n  pop\n  pop\n  jump\t// out\n    /* \"#utility.yul\":3650:3710   */\ntag_34:\n    /* \"#utility.yul\":3678:3681   */\n  0x00\n    /* \"#utility.yul\":3699:3704   */\n  dup2\n    /* \"#utility.yul\":3692:3704   */\n  swap1\n  pop\n    /* \"#utility.yul\":3650:3710   */\n  swap2\n  swap1\n  pop\n  jump\t// out\n    /* \"#utility.yul\":3716:3858   */\ntag_35:\n    /* \"#utility.yul\":3766:3775   */\n  0x00\n    /* \"#utility.yul\":3799:3852   */\n  tag_90\n    /* \"#utility.yul\":3817:3851   */\n  tag_91\n    /* \"#utility.yul\":3826:3850   */\n  tag_92\n    /* \"#utility.yul\":3844:3849   */\n  dup5\n    /* \"#utility.yul\":3826:3850   */\n  tag_22\n  jump\t// in\ntag_92:\n    /* \"#utility.yul\":3817:3851   */\n  tag_34\n  jump\t// in\ntag_91:\n    /* \"#utility.yul\":3799:3852   */\n  tag_22\n  jump\t// in\ntag_90:\n    /* \"#utility.yul\":3786:3852   */\n  swap1\n  pop\n    /* \"#utility.yul\":3716:3858   */\n  swap2\n  swap1\n  pop\n  jump\t// out\n    /* \"#utility.yul\":3864:3939   */\ntag_36:\n    /* \"#utility.yul\":3907:3910   */\n  0x00\n    /* \"#utility.yul\":3928:3933   */\n  dup2\n    /* \"#utility.yul\":3921:3933   */\n  swap1\n  pop\n    /* \"#utility.yul\":3864:3939   */\n  swap2\n  swap1\n  pop\n  jump\t// out\n    /* \"#utility.yul\":3945:4214   */\ntag_37:\n    /* \"#utility.yul\":4055:4094   */\n  tag_95\n    /* \"#utility.yul\":4086:4093   */\n  dup4\n    /* \"#utility.yul\":4055:4094   */\n  tag_35\n  jump\t// in\ntag_95:\n    /* \"#utility.yul\":4116:4207   */\n  tag_96\n    /* \"#utility.yul\":4165:4206   */\n  tag_97\n    /* \"#utility.yul\":4189:4205   */\n  dup3\n    /* \"#utility.yul\":4165:4206   */\n  tag_36\n  jump\t// in\ntag_97:\n    /* \"#utility.yul\":4157:4163   */\n  dup5\n    /* \"#utility.yul\":4150:4154   */\n  dup5\n    /* \"#utility.yul\":4144:4155   */\n  sload\n    /* \"#utility.yul\":4116:4207   */\n  tag_33\n  jump\t// in\ntag_96:\n    /* \"#utility.yul\":4110:4114   */\n  dup3\n    /* \"#utility.yul\":4103:4208   */\n  sstore\n    /* \"#utility.yul\":4021:4214   */\n  pop\n    /* \"#utility.yul\":3945:4214   */\n  pop\n  pop\n  pop\n  jump\t// out\n    /* \"#utility.yul\":4220:4293   */\ntag_38:\n    /* \"#utility.yul\":4265:4268   */\n  0x00\n    /* \"#utility.yul\":4220:4293   */\n  swap1\n  jump\t// out\n    /* \"#utility.yul\":4299:4488   */\ntag_39:\n    /* \"#utility.yul\":4376:4408   */\n  tag_100\n  tag_38\n  jump\t// in\ntag_100:\n    /* \"#utility.yul\":4417:4482   */\n  tag_101\n    /* \"#utility.yul\":4475:4481   */\n  dup2\n    /* \"#utility.yul\":4467:4473   */\n  dup5\n    /* \"#utility.yul\":4461:4465   */\n  dup5\n    /* \"#utility.yul\":4417:4482   */\n  tag_37\n  jump\t// in\ntag_101:\n    /* \"#utility.yul\":4352:4488   */\n  pop\n    /* \"#utility.yul\":4299:4488   */\n  pop\n  pop\n  jump\t// out\n    /* \"#utility.yul\":4494:4680   */\ntag_40:\n    /* \"#utility.yul\":4554:4674   */\ntag_103:\n    /* \"#utility.yul\":4571:4574   */\n  dup2\n    /* \"#utility.yul\":4564:4569   */\n  dup2\n    /* \"#utility.yul\":4561:4575   */\n  lt\n    /* \"#utility.yul\":4554:4674   */\n  iszero\n  tag_105\n  jumpi\n    /* \"#utility.yul\":4625:4664   */\n  tag_106\n    /* \"#utility.yul\":4662:4663   */\n  0x00\n    /* \"#utility.yul\":4655:4660   */\n  dup3\n    /* \"#utility.yul\":4625:4664   */\n  tag_39\n  jump\t// in\ntag_106:\n    /* \"#utility.yul\":4598:4599   */\n  0x01\n    /* \"#utility.yul\":4591:4596   */\n  dup2\n    /* \"#utility.yul\":4587:4600   */\n  add\n    /* \"#utility.yul\":4578:4600   */\n  swap1\n  pop\n    /* \"#utility.yul\":4554:4674   */\n  jump(tag_103)\ntag_105:\n    /* \"#utility.yul\":4494:4680   */\n  pop\n  pop\n  jump\t// out\n    /* \"#utility.yul\":4686:5229   */\ntag_41:\n    /* \"#utility.yul\":4787:4789   */\n  0x1f\n    /* \"#utility.yul\":4782:4785   */\n  dup3\n    /* \"#utility.yul\":4779:4790   */\n  gt\n    /* \"#utility.yul\":4776:5222   */\n  iszero\n  tag_108\n  jumpi\n    /* \"#utility.yul\":4821:4859   */\n  tag_109\n    /* \"#utility.yul\":4853:4858   */\n  dup2\n    /* \"#utility.yul\":4821:4859   */\n  tag_30\n  jump\t// in\ntag_109:\n    /* \"#utility.yul\":4905:4934   */\n  tag_110\n    /* \"#utility.yul\":4923:4933   */\n  dup5\n    /* \"#utility.yul\":4905:4934   */\n  tag_31\n  jump\t// in\ntag_110:\n    /* \"#utility.yul\":4895:4903   */\n  dup2\n    /* \"#utility.yul\":4891:4935   */\n  add\n    /* \"#utility.yul\":5088:5090   */\n  0x20\n    /* \"#utility.yul\":5076:5086   */\n  dup6\n    /* \"#utility.yul\":5073:5091   */\n  lt\n    /* \"#utility.yul\":5070:5119   */\n  iszero\n  tag_111\n  jumpi\n    /* \"#utility.yul\":5109:5117   */\n  dup2\n    /* \"#utility.yul\":5094:5117   */\n  swap1\n  pop\n    /* \"#utility.yul\":5070:5119   */\ntag_111:\n    /* \"#utility.yul\":5132:5212   */\n  tag_112\n    /* \"#utility.yul\":5188:5210   */\n  tag_113\n    /* \"#utility.yul\":5206:5209   */\n  dup6\n    /* \"#utility.yul\":5188:5210   */\n  tag_31\n  jump\t// in\ntag_113:\n    /* \"#utility.yul\":5178:5186   */\n  dup4\n    /* \"#utility.yul\":5174:5211   */\n  add\n    /* \"#utility.yul\":5161:5172   */\n  dup3\n    /* \"#utility.yul\":5132:5212   */\n  tag_40\n  jump\t// in\ntag_112:\n    /* \"#utility.yul\":4791:5222   */\n  pop\n  pop\n    /* \"#utility.yul\":4776:5222   */\ntag_108:\n    /* \"#utility.yul\":4686:5229   */\n  pop\n  pop\n  pop\n  jump\t// out\n    /* \"#utility.yul\":5235:5352   */\ntag_42:\n    /* \"#utility.yul\":5289:5297   */\n  0x00\n    /* \"#utility.yul\":5339:5344   */\n  dup3\n    /* \"#utility.yul\":5333:5337   */\n  dup3\n    /* \"#utility.yul\":5329:5345   */\n  shr\n    /* \"#utility.yul\":5308:5345   */\n  swap1\n  pop\n    /* \"#utility.yul\":5235:5352   */\n  swap3\n  swap2\n  pop\n  pop\n  jump\t// out\n    /* \"#utility.yul\":5358:5527   */\ntag_43:\n    /* \"#utility.yul\":5402:5408   */\n  0x00\n    /* \"#utility.yul\":5435:5486   */\n  tag_116\n    /* \"#utility.yul\":5483:5484   */\n  0x00\n    /* \"#utility.yul\":5479:5485   */\n  not\n    /* \"#utility.yul\":5471:5476   */\n  dup5\n    /* \"#utility.yul\":5468:5469   */\n  0x08\n    /* \"#utility.yul\":5464:5477   */\n  mul\n    /* \"#utility.yul\":5435:5486   */\n  tag_42\n  jump\t// in\ntag_116:\n    /* \"#utility.yul\":5431:5487   */\n  not\n    /* \"#utility.yul\":5516:5520   */\n  dup1\n    /* \"#utility.yul\":5510:5514   */\n  dup4\n    /* \"#utility.yul\":5506:5521   */\n  and\n    /* \"#utility.yul\":5496:5521   */\n  swap2\n  pop\n    /* \"#utility.yul\":5409:5527   */\n  pop\n    /* \"#utility.yul\":5358:5527   */\n  swap3\n  swap2\n  pop\n  pop\n  jump\t// out\n    /* \"#utility.yul\":5532:5827   */\ntag_44:\n    /* \"#utility.yul\":5608:5612   */\n  0x00\n    /* \"#utility.yul\":5754:5783   */\n  tag_118\n    /* \"#utility.yul\":5779:5782   */\n  dup4\n    /* \"#utility.yul\":5773:5777   */\n  dup4\n    /* \"#utility.yul\":5754:5783   */\n  tag_43\n  jump\t// in\ntag_118:\n    /* \"#utility.yul\":5746:5783   */\n  swap2\n  pop\n    /* \"#utility.yul\":5816:5819   */\n  dup3\n    /* \"#utility.yul\":5813:5814   */\n  0x02\n    /* \"#utility.yul\":5809:5820   */\n  mul\n    /* \"#utility.yul\":5803:5807   */\n  dup3\n    /* \"#utility.yul\":5800:5821   */\n  or\n    /* \"#utility.yul\":5792:5821   */\n  swap1\n  pop\n    /* \"#utility.yul\":5532:5827   */\n  swap3\n  swap2\n  pop\n  pop\n  jump\t// out\n    /* \"#utility.yul\":5832:7227   */\ntag_18:\n    /* \"#utility.yul\":5949:5986   */\n  tag_120\n    /* \"#utility.yul\":5982:5985   */\n  dup3\n    /* \"#utility.yul\":5949:5986   */\n  tag_26\n  jump\t// in\ntag_120:\n    /* \"#utility.yul\":6051:6069   */\n  0xffffffffffffffff\n    /* \"#utility.yul\":6043:6049   */\n  dup2\n    /* \"#utility.yul\":6040:6070   */\n  gt\n    /* \"#utility.yul\":6037:6093   */\n  iszero\n  tag_121\n  jumpi\n    /* \"#utility.yul\":6073:6091   */\n  tag_122\n  tag_27\n  jump\t// in\ntag_122:\n    /* \"#utility.yul\":6037:6093   */\ntag_121:\n    /* \"#utility.yul\":6117:6155   */\n  tag_123\n    /* \"#utility.yul\":6149:6153   */\n  dup3\n    /* \"#utility.yul\":6143:6154   */\n  sload\n    /* \"#utility.yul\":6117:6155   */\n  tag_29\n  jump\t// in\ntag_123:\n    /* \"#utility.yul\":6202:6269   */\n  tag_124\n    /* \"#utility.yul\":6262:6268   */\n  dup3\n    /* \"#utility.yul\":6254:6260   */\n  dup3\n    /* \"#utility.yul\":6248:6252   */\n  dup6\n    /* \"#utility.yul\":6202:6269   */\n  tag_41\n  jump\t// in\ntag_124:\n    /* \"#utility.yul\":6296:6297   */\n  0x00\n    /* \"#utility.yul\":6320:6324   */\n  0x20\n    /* \"#utility.yul\":6307:6324   */\n  swap1\n  pop\n    /* \"#utility.yul\":6352:6354   */\n  0x1f\n    /* \"#utility.yul\":6344:6350   */\n  dup4\n    /* \"#utility.yul\":6341:6355   */\n  gt\n    /* \"#utility.yul\":6369:6370   */\n  0x01\n    /* \"#utility.yul\":6364:6982   */\n  dup2\n  eq\n  tag_126\n  jumpi\n    /* \"#utility.yul\":7026:7027   */\n  0x00\n    /* \"#utility.yul\":7043:7049   */\n  dup5\n    /* \"#utility.yul\":7040:7117   */\n  iszero\n  tag_127\n  jumpi\n    /* \"#utility.yul\":7092:7101   */\n  dup3\n    /* \"#utility.yul\":7087:7090   */\n  dup8\n    /* \"#utility.yul\":7083:7102   */\n  add\n    /* \"#utility.yul\":7077:7103   */\n  mload\n    /* \"#utility.yul\":7068:7103   */\n  swap1\n  pop\n    /* \"#utility.yul\":7040:7117   */\ntag_127:\n    /* \"#utility.yul\":7143:7210   */\n  tag_128\n    /* \"#utility.yul\":7203:7209   */\n  dup6\n    /* \"#utility.yul\":7196:7201   */\n  dup3\n    /* \"#utility.yul\":7143:7210   */\n  tag_44\n  jump\t// in\ntag_128:\n    /* \"#utility.yul\":7137:7141   */\n  dup7\n    /* \"#utility.yul\":7130:7211   */\n  sstore\n    /* \"#utility.yul\":6999:7221   */\n  pop\n    /* \"#utility.yul\":6334:7221   */\n  jump(tag_125)\n    /* \"#utility.yul\":6364:6982   */\ntag_126:\n    /* \"#utility.yul\":6416:6420   */\n  0x1f\n    /* \"#utility.yul\":6412:6421   */\n  not\n    /* \"#utility.yul\":6404:6410   */\n  dup5\n    /* \"#utility.yul\":6400:6422   */\n  and\n    /* \"#utility.yul\":6450:6487   */\n  tag_129\n    /* \"#utility.yul\":6482:6486   */\n  dup7\n    /* \"#utility.yul\":6450:6487   */\n  tag_30\n  jump\t// in\ntag_129:\n    /* \"#utility.yul\":6509:6510   */\n  0x00\n    /* \"#utility.yul\":6523:6731   */\ntag_130:\n    /* \"#utility.yul\":6537:6544   */\n  dup3\n    /* \"#utility.yul\":6534:6535   */\n  dup2\n    /* \"#utility.yul\":6531:6545   */\n  lt\n    /* \"#utility.yul\":6523:6731   */\n  iszero\n  tag_132\n  jumpi\n    /* \"#utility.yul\":6616:6625   */\n  dup5\n    /* \"#utility.yul\":6611:6614   */\n  dup10\n    /* \"#utility.yul\":6607:6626   */\n  add\n    /* \"#utility.yul\":6601:6627   */\n  mload\n    /* \"#utility.yul\":6593:6599   */\n  dup3\n    /* \"#utility.yul\":6586:6628   */\n  sstore\n    /* \"#utility.yul\":6667:6668   */\n  0x01\n    /* \"#utility.yul\":6659:6665   */\n  dup3\n    /* \"#utility.yul\":6655:6669   */\n  add\n    /* \"#utility.yul\":6645:6669   */\n  swap2\n  pop\n    /* \"#utility.yul\":6714:6716   */\n  0x20\n    /* \"#utility.yul\":6703:6712   */\n  dup6\n    /* \"#utility.yul\":6699:6717   */\n  add\n    /* \"#utility.yul\":6686:6717   */\n  swap5\n  pop\n    /* \"#utility.yul\":6560:6564   */\n  0x20\n    /* \"#utility.yul\":6557:6558   */\n  dup2\n    /* \"#utility.yul\":6553:6565   */\n  add\n    /* \"#utility.yul\":6548:6565   */\n  swap1\n  pop\n    /* \"#utility.yul\":6523:6731   */\n  jump(tag_130)\ntag_132:\n    /* \"#utility.yul\":6759:6765   */\n  dup7\n    /* \"#utility.yul\":6750:6757   */\n  dup4\n    /* \"#utility.yul\":6747:6766   */\n  lt\n    /* \"#utility.yul\":6744:6923   */\n  iszero\n  tag_133\n  jumpi\n    /* \"#utility.yul\":6817:6826   */\n  dup5\n    /* \"#utility.yul\":6812:6815   */\n  dup10\n    /* \"#utility.yul\":6808:6827   */\n  add\n    /* \"#utility.yul\":6802:6828   */\n  mload\n    /* \"#utility.yul\":6860:6908   */\n  tag_134\n    /* \"#utility.yul\":6902:6906   */\n  0x1f\n    /* \"#utility.yul\":6894:6900   */\n  dup10\n    /* \"#utility.yul\":6890:6907   */\n  and\n    /* \"#utility.yul\":6879:6888   */\n  dup3\n    /* \"#utility.yul\":6860:6908   */\n  tag_43\n  jump\t// in\ntag_134:\n    /* \"#utility.yul\":6852:6858   */\n  dup4\n    /* \"#utility.yul\":6845:6909   */\n  sstore\n    /* \"#utility.yul\":6767:6923   */\n  pop\n    /* \"#utility.yul\":6744:6923   */\ntag_133:\n    /* \"#utility.yul\":6969:6970   */\n  0x01\n    /* \"#utility.yul\":6965:6966   */\n  0x02\n    /* \"#utility.yul\":6957:6963   */\n  dup9\n    /* \"#utility.yul\":6953:6967   */\n  mul\n    /* \"#utility.yul\":6949:6971   */\n  add\n    /* \"#utility.yul\":6943:6947   */\n  dup9\n    /* \"#utility.yul\":6936:6972   */\n  sstore\n    /* \"#utility.yul\":6371:6982   */\n  pop\n  pop\n  pop\n    /* \"#utility.yul\":6334:7221   */\ntag_125:\n  pop\n    /* \"#utility.yul\":5924:7227   */\n  pop\n  pop\n  pop\n    /* \"#utility.yul\":5832:7227   */\n  pop\n  pop\n  jump\t// out\n    /* \"voting_dapp.sol\":60:2645  contract VotingSystem {... */\ntag_13:\n  dataSize(sub_0)\n  dup1\n  dataOffset(sub_0)\n  0x00\n  codecopy\n  0x00\n  return\nstop\n\nsub_0: assembly {\n        /* \"voting_dapp.sol\":60:2645  contract VotingSystem {... */\n      mstore(0x40, 0x80)\n      callvalue\n      dup1\n      iszero\n      tag_1\n      jumpi\n      0x00\n      dup1\n      revert\n    tag_1:\n      pop\n      jumpi(tag_2, lt(calldatasize, 0x04))\n      shr(0xe0, calldataload(0x00))\n      dup1\n      0x8e7ea5b2\n      gt\n      tag_13\n      jumpi\n      dup1\n      0x8e7ea5b2\n      eq\n      tag_8\n      jumpi\n      dup1\n      0x95f85022\n      eq\n      tag_9\n      jumpi\n      dup1\n      0xa9a981a3\n      eq\n      tag_10\n      jumpi\n      dup1\n      0xaf0dbe54\n      eq\n      tag_11\n      jumpi\n      dup1\n      0xe868ba70\n      eq\n      tag_12\n      jumpi\n      jump(tag_2)\n    tag_13:\n      dup1\n      0x0121b93f\n      eq\n      tag_3\n      jumpi\n      dup1\n      0x1de43c4b\n      eq\n      tag_4\n      jumpi\n      dup1\n      0x2e6997fe\n      eq\n      tag_5\n      jumpi\n      dup1\n      0x3197cbb6\n      eq\n      tag_6\n      jumpi\n      dup1\n      0x78e97925\n      eq\n      tag_7\n      jumpi\n    tag_2:\n      0x00\n      dup1\n      revert\n        /* \"voting_dapp.sol\":841:1294  function vote(uint _candidateId) public {... */\n    tag_3:\n      tag_14\n      0x04\n      dup1\n      calldatasize\n      sub\n      dup2\n      add\n      swap1\n      tag_15\n      swap2\n      swap1\n      tag_16\n      jump\t// in\n    tag_15:\n      tag_17\n      jump\t// in\n    tag_14:\n      stop\n        /* \"voting_dapp.sol\":188:232  mapping (uint => Candidate) public candidate */\n    tag_4:\n      tag_18\n      0x04\n      dup1\n      calldatasize\n      sub\n      dup2\n      add\n      swap1\n      tag_19\n      swap2\n      swap1\n      tag_16\n      jump\t// in\n    tag_19:\n      tag_20\n      jump\t// in\n    tag_18:\n      mload(0x40)\n      tag_21\n      swap4\n      swap3\n      swap2\n      swap1\n      tag_22\n      jump\t// in\n    tag_21:\n      mload(0x40)\n      dup1\n      swap2\n      sub\n      swap1\n      return\n        /* \"voting_dapp.sol\":1302:1580  function getAllCandidates() public view returns (Candidate[] memory) {... */\n    tag_5:\n      tag_23\n      tag_24\n      jump\t// in\n    tag_23:\n      mload(0x40)\n      tag_25\n      swap2\n      swap1\n      tag_26\n      jump\t// in\n    tag_25:\n      mload(0x40)\n      dup1\n      swap2\n      sub\n      swap1\n      return\n        /* \"voting_dapp.sol\":351:370  uint public endTime */\n    tag_6:\n      tag_27\n      tag_28\n      jump\t// in\n    tag_27:\n      mload(0x40)\n      tag_29\n      swap2\n      swap1\n      tag_30\n      jump\t// in\n    tag_29:\n      mload(0x40)\n      dup1\n      swap2\n      sub\n      swap1\n      return\n        /* \"voting_dapp.sol\":323:344  uint public startTime */\n    tag_7:\n      tag_31\n      tag_32\n      jump\t// in\n    tag_31:\n      mload(0x40)\n      tag_33\n      swap2\n      swap1\n      tag_30\n      jump\t// in\n    tag_33:\n      mload(0x40)\n      dup1\n      swap2\n      sub\n      swap1\n      return\n        /* \"voting_dapp.sol\":2277:2642  function getWinner() public view returns (string memory) {... */\n    tag_8:\n      tag_34\n      tag_35\n      jump\t// in\n    tag_34:\n      mload(0x40)\n      tag_36\n      swap2\n      swap1\n      tag_37\n      jump\t// in\n    tag_36:\n      mload(0x40)\n      dup1\n      swap2\n      sub\n      swap1\n      return\n        /* \"voting_dapp.sol\":1596:1835  function getCandidateById(uint _candidateId) public view returns (Candidate memory){... */\n    tag_9:\n      tag_38\n      0x04\n      dup1\n      calldatasize\n      sub\n      dup2\n      add\n      swap1\n      tag_39\n      swap2\n      swap1\n      tag_16\n      jump\t// in\n    tag_39:\n      tag_40\n      jump\t// in\n    tag_38:\n      mload(0x40)\n      tag_41\n      swap2\n      swap1\n      tag_42\n      jump\t// in\n    tag_41:\n      mload(0x40)\n      dup1\n      swap2\n      sub\n      swap1\n      return\n        /* \"voting_dapp.sol\":286:316  uint public candidateCount = 0 */\n    tag_10:\n      tag_43\n      tag_44\n      jump\t// in\n    tag_43:\n      mload(0x40)\n      tag_45\n      swap2\n      swap1\n      tag_30\n      jump\t// in\n    tag_45:\n      mload(0x40)\n      dup1\n      swap2\n      sub\n      swap1\n      return\n        /* \"voting_dapp.sol\":239:277  mapping (address => bool) public voter */\n    tag_11:\n      tag_46\n      0x04\n      dup1\n      calldatasize\n      sub\n      dup2\n      add\n      swap1\n      tag_47\n      swap2\n      swap1\n      tag_48\n      jump\t// in\n    tag_47:\n      tag_49\n      jump\t// in\n    tag_46:\n      mload(0x40)\n      tag_50\n      swap2\n      swap1\n      tag_51\n      jump\t// in\n    tag_50:\n      mload(0x40)\n      dup1\n      swap2\n      sub\n      swap1\n      return\n        /* \"voting_dapp.sol\":1843:2266  function getCurrentLeader() public view returns (string memory) {... */\n    tag_12:\n      tag_52\n      tag_53\n      jump\t// in\n    tag_52:\n      mload(0x40)\n      tag_54\n      swap2\n      swap1\n      tag_37\n      jump\t// in\n    tag_54:\n      mload(0x40)\n      dup1\n      swap2\n      sub\n      swap1\n      return\n        /* \"voting_dapp.sol\":841:1294  function vote(uint _candidateId) public {... */\n    tag_17:\n        /* \"voting_dapp.sol\":919:926  endTime */\n      sload(0x04)\n        /* \"voting_dapp.sol\":900:915  block.timestamp */\n      timestamp\n        /* \"voting_dapp.sol\":900:926  block.timestamp <= endTime */\n      gt\n      iszero\n        /* \"voting_dapp.sol\":900:958  block.timestamp <= endTime && block.timestamp >= startTime */\n      dup1\n      iszero\n      tag_56\n      jumpi\n      pop\n        /* \"voting_dapp.sol\":949:958  startTime */\n      sload(0x03)\n        /* \"voting_dapp.sol\":930:945  block.timestamp */\n      timestamp\n        /* \"voting_dapp.sol\":930:958  block.timestamp >= startTime */\n      lt\n      iszero\n        /* \"voting_dapp.sol\":900:958  block.timestamp <= endTime && block.timestamp >= startTime */\n    tag_56:\n        /* \"voting_dapp.sol\":892:997  require(block.timestamp <= endTime && block.timestamp >= startTime, \"Voting is not allowed at this time\") */\n      tag_57\n      jumpi\n      mload(0x40)\n      0x08c379a000000000000000000000000000000000000000000000000000000000\n      dup2\n      mstore\n      0x04\n      add\n      tag_58\n      swap1\n      tag_59\n      jump\t// in\n    tag_58:\n      mload(0x40)\n      dup1\n      swap2\n      sub\n      swap1\n      revert\n    tag_57:\n        /* \"voting_dapp.sol\":1017:1022  voter */\n      0x01\n        /* \"voting_dapp.sol\":1017:1034  voter[msg.sender] */\n      0x00\n        /* \"voting_dapp.sol\":1023:1033  msg.sender */\n      caller\n        /* \"voting_dapp.sol\":1017:1034  voter[msg.sender] */\n      0xffffffffffffffffffffffffffffffffffffffff\n      and\n      0xffffffffffffffffffffffffffffffffffffffff\n      and\n      dup2\n      mstore\n      0x20\n      add\n      swap1\n      dup2\n      mstore\n      0x20\n      add\n      0x00\n      keccak256\n      0x00\n      swap1\n      sload\n      swap1\n      0x0100\n      exp\n      swap1\n      div\n      0xff\n      and\n        /* \"voting_dapp.sol\":1016:1034  !voter[msg.sender] */\n      iszero\n        /* \"voting_dapp.sol\":1008:1062  require(!voter[msg.sender], \"You have already voted!\") */\n      tag_60\n      jumpi\n      mload(0x40)\n      0x08c379a000000000000000000000000000000000000000000000000000000000\n      dup2\n      mstore\n      0x04\n      add\n      tag_61\n      swap1\n      tag_62\n      jump\t// in\n    tag_61:\n      mload(0x40)\n      dup1\n      swap2\n      sub\n      swap1\n      revert\n    tag_60:\n        /* \"voting_dapp.sol\":1096:1097  0 */\n      0x00\n        /* \"voting_dapp.sol\":1081:1093  _candidateId */\n      dup2\n        /* \"voting_dapp.sol\":1081:1097  _candidateId > 0 */\n      gt\n        /* \"voting_dapp.sol\":1081:1131  _candidateId > 0 && _candidateId <= candidateCount */\n      dup1\n      iszero\n      tag_63\n      jumpi\n      pop\n        /* \"voting_dapp.sol\":1117:1131  candidateCount */\n      sload(0x02)\n        /* \"voting_dapp.sol\":1101:1113  _candidateId */\n      dup2\n        /* \"voting_dapp.sol\":1101:1131  _candidateId <= candidateCount */\n      gt\n      iszero\n        /* \"voting_dapp.sol\":1081:1131  _candidateId > 0 && _candidateId <= candidateCount */\n    tag_63:\n        /* \"voting_dapp.sol\":1073:1162  require(_candidateId > 0 && _candidateId <= candidateCount, \"You have entred invalid ID\") */\n      tag_64\n      jumpi\n      mload(0x40)\n      0x08c379a000000000000000000000000000000000000000000000000000000000\n      dup2\n      mstore\n      0x04\n      add\n      tag_65\n      swap1\n      tag_66\n      jump\t// in\n    tag_65:\n      mload(0x40)\n      dup1\n      swap2\n      sub\n      swap1\n      revert\n    tag_64:\n        /* \"voting_dapp.sol\":1195:1199  true */\n      0x01\n        /* \"voting_dapp.sol\":1175:1180  voter */\n      dup1\n        /* \"voting_dapp.sol\":1175:1192  voter[msg.sender] */\n      0x00\n        /* \"voting_dapp.sol\":1181:1191  msg.sender */\n      caller\n        /* \"voting_dapp.sol\":1175:1192  voter[msg.sender] */\n      0xffffffffffffffffffffffffffffffffffffffff\n      and\n      0xffffffffffffffffffffffffffffffffffffffff\n      and\n      dup2\n      mstore\n      0x20\n      add\n      swap1\n      dup2\n      mstore\n      0x20\n      add\n      0x00\n      keccak256\n      0x00\n        /* \"voting_dapp.sol\":1175:1199  voter[msg.sender] = true */\n      0x0100\n      exp\n      dup2\n      sload\n      dup2\n      0xff\n      mul\n      not\n      and\n      swap1\n      dup4\n      iszero\n      iszero\n      mul\n      or\n      swap1\n      sstore\n      pop\n        /* \"voting_dapp.sol\":1210:1219  candidate */\n      0x00\n        /* \"voting_dapp.sol\":1210:1233  candidate[_candidateId] */\n      dup1\n        /* \"voting_dapp.sol\":1220:1232  _candidateId */\n      dup3\n        /* \"voting_dapp.sol\":1210:1233  candidate[_candidateId] */\n      dup2\n      mstore\n      0x20\n      add\n      swap1\n      dup2\n      mstore\n      0x20\n      add\n      0x00\n      keccak256\n        /* \"voting_dapp.sol\":1210:1243  candidate[_candidateId].voteCount */\n      0x02\n      add\n      0x00\n        /* \"voting_dapp.sol\":1210:1245  candidate[_candidateId].voteCount++ */\n      dup2\n      sload\n      dup1\n      swap3\n      swap2\n      swap1\n      tag_67\n      swap1\n      tag_68\n      jump\t// in\n    tag_67:\n      swap2\n      swap1\n      pop\n      sstore\n      pop\n        /* \"voting_dapp.sol\":1263:1286  VoteEvent(_candidateId) */\n      0xc00232df16a35660dbcdde113a8565e8848dc6202169f47b8f35e8c2511d40bc\n        /* \"voting_dapp.sol\":1273:1285  _candidateId */\n      dup2\n        /* \"voting_dapp.sol\":1263:1286  VoteEvent(_candidateId) */\n      mload(0x40)\n      tag_69\n      swap2\n      swap1\n      tag_30\n      jump\t// in\n    tag_69:\n      mload(0x40)\n      dup1\n      swap2\n      sub\n      swap1\n      log1\n        /* \"voting_dapp.sol\":841:1294  function vote(uint _candidateId) public {... */\n      pop\n      jump\t// out\n        /* \"voting_dapp.sol\":188:232  mapping (uint => Candidate) public candidate */\n    tag_20:\n      mstore(0x20, 0x00)\n      dup1\n      0x00\n      mstore\n      keccak256(0x00, 0x40)\n      0x00\n      swap2\n      pop\n      swap1\n      pop\n      dup1\n      0x00\n      add\n      sload\n      swap1\n      dup1\n      0x01\n      add\n      dup1\n      sload\n      tag_70\n      swap1\n      tag_71\n      jump\t// in\n    tag_70:\n      dup1\n      0x1f\n      add\n      0x20\n      dup1\n      swap2\n      div\n      mul\n      0x20\n      add\n      mload(0x40)\n      swap1\n      dup2\n      add\n      0x40\n      mstore\n      dup1\n      swap3\n      swap2\n      swap1\n      dup2\n      dup2\n      mstore\n      0x20\n      add\n      dup3\n      dup1\n      sload\n      tag_72\n      swap1\n      tag_71\n      jump\t// in\n    tag_72:\n      dup1\n      iszero\n      tag_73\n      jumpi\n      dup1\n      0x1f\n      lt\n      tag_74\n      jumpi\n      0x0100\n      dup1\n      dup4\n      sload\n      div\n      mul\n      dup4\n      mstore\n      swap2\n      0x20\n      add\n      swap2\n      jump(tag_73)\n    tag_74:\n      dup3\n      add\n      swap2\n      swap1\n      0x00\n      mstore\n      keccak256(0x00, 0x20)\n      swap1\n    tag_75:\n      dup2\n      sload\n      dup2\n      mstore\n      swap1\n      0x01\n      add\n      swap1\n      0x20\n      add\n      dup1\n      dup4\n      gt\n      tag_75\n      jumpi\n      dup3\n      swap1\n      sub\n      0x1f\n      and\n      dup3\n      add\n      swap2\n    tag_73:\n      pop\n      pop\n      pop\n      pop\n      pop\n      swap1\n      dup1\n      0x02\n      add\n      sload\n      swap1\n      pop\n      dup4\n      jump\t// out\n        /* \"voting_dapp.sol\":1302:1580  function getAllCandidates() public view returns (Candidate[] memory) {... */\n    tag_24:\n        /* \"voting_dapp.sol\":1351:1369  Candidate[] memory */\n      0x60\n        /* \"voting_dapp.sol\":1378:1411  Candidate[] memory candidateArray */\n      0x00\n        /* \"voting_dapp.sol\":1430:1444  candidateCount */\n      sload(0x02)\n        /* \"voting_dapp.sol\":1414:1445  new Candidate[](candidateCount) */\n      0xffffffffffffffff\n      dup2\n      gt\n      iszero\n      tag_77\n      jumpi\n      tag_78\n      tag_79\n      jump\t// in\n    tag_78:\n    tag_77:\n      mload(0x40)\n      swap1\n      dup1\n      dup3\n      mstore\n      dup1\n      0x20\n      mul\n      0x20\n      add\n      dup3\n      add\n      0x40\n      mstore\n      dup1\n      iszero\n      tag_80\n      jumpi\n      dup2\n      0x20\n      add\n    tag_81:\n      tag_82\n      tag_83\n      jump\t// in\n    tag_82:\n      dup2\n      mstore\n      0x20\n      add\n      swap1\n      0x01\n      swap1\n      sub\n      swap1\n      dup2\n      tag_81\n      jumpi\n      swap1\n      pop\n    tag_80:\n      pop\n        /* \"voting_dapp.sol\":1378:1445  Candidate[] memory candidateArray = new Candidate[](candidateCount) */\n      swap1\n      pop\n        /* \"voting_dapp.sol\":1456:1462  uint i */\n      0x00\n        /* \"voting_dapp.sol\":1465:1466  1 */\n      0x01\n        /* \"voting_dapp.sol\":1456:1466  uint i = 1 */\n      swap1\n      pop\n        /* \"voting_dapp.sol\":1452:1549  for(uint i = 1; i <= candidateCount; i++) {... */\n    tag_84:\n        /* \"voting_dapp.sol\":1473:1487  candidateCount */\n      sload(0x02)\n        /* \"voting_dapp.sol\":1468:1469  i */\n      dup2\n        /* \"voting_dapp.sol\":1468:1487  i <= candidateCount */\n      gt\n        /* \"voting_dapp.sol\":1452:1549  for(uint i = 1; i <= candidateCount; i++) {... */\n      tag_85\n      jumpi\n        /* \"voting_dapp.sol\":1529:1538  candidate */\n      0x00\n        /* \"voting_dapp.sol\":1529:1541  candidate[i] */\n      dup1\n        /* \"voting_dapp.sol\":1539:1540  i */\n      dup3\n        /* \"voting_dapp.sol\":1529:1541  candidate[i] */\n      dup2\n      mstore\n      0x20\n      add\n      swap1\n      dup2\n      mstore\n      0x20\n      add\n      0x00\n      keccak256\n        /* \"voting_dapp.sol\":1505:1541  candidateArray[i - 1] = candidate[i] */\n      mload(0x40)\n      dup1\n      0x60\n      add\n      0x40\n      mstore\n      swap1\n      dup2\n      0x00\n      dup3\n      add\n      sload\n      dup2\n      mstore\n      0x20\n      add\n      0x01\n      dup3\n      add\n      dup1\n      sload\n      tag_87\n      swap1\n      tag_71\n      jump\t// in\n    tag_87:\n      dup1\n      0x1f\n      add\n      0x20\n      dup1\n      swap2\n      div\n      mul\n      0x20\n      add\n      mload(0x40)\n      swap1\n      dup2\n      add\n      0x40\n      mstore\n      dup1\n      swap3\n      swap2\n      swap1\n      dup2\n      dup2\n      mstore\n      0x20\n      add\n      dup3\n      dup1\n      sload\n      tag_88\n      swap1\n      tag_71\n      jump\t// in\n    tag_88:\n      dup1\n      iszero\n      tag_89\n      jumpi\n      dup1\n      0x1f\n      lt\n      tag_90\n      jumpi\n      0x0100\n      dup1\n      dup4\n      sload\n      div\n      mul\n      dup4\n      mstore\n      swap2\n      0x20\n      add\n      swap2\n      jump(tag_89)\n    tag_90:\n      dup3\n      add\n      swap2\n      swap1\n      0x00\n      mstore\n      keccak256(0x00, 0x20)\n      swap1\n    tag_91:\n      dup2\n      sload\n      dup2\n      mstore\n      swap1\n      0x01\n      add\n      swap1\n      0x20\n      add\n      dup1\n      dup4\n      gt\n      tag_91\n      jumpi\n      dup3\n      swap1\n      sub\n      0x1f\n      and\n      dup3\n      add\n      swap2\n    tag_89:\n      pop\n      pop\n      pop\n      pop\n      pop\n      dup2\n      mstore\n      0x20\n      add\n      0x02\n      dup3\n      add\n      sload\n      dup2\n      mstore\n      pop\n      pop\n        /* \"voting_dapp.sol\":1505:1519  candidateArray */\n      dup3\n        /* \"voting_dapp.sol\":1524:1525  1 */\n      0x01\n        /* \"voting_dapp.sol\":1520:1521  i */\n      dup4\n        /* \"voting_dapp.sol\":1520:1525  i - 1 */\n      tag_92\n      swap2\n      swap1\n      tag_93\n      jump\t// in\n    tag_92:\n        /* \"voting_dapp.sol\":1505:1526  candidateArray[i - 1] */\n      dup2\n      mload\n      dup2\n      lt\n      tag_94\n      jumpi\n      tag_95\n      tag_96\n      jump\t// in\n    tag_95:\n    tag_94:\n      0x20\n      mul\n      0x20\n      add\n      add\n        /* \"voting_dapp.sol\":1505:1541  candidateArray[i - 1] = candidate[i] */\n      dup2\n      swap1\n      mstore\n      pop\n        /* \"voting_dapp.sol\":1489:1492  i++ */\n      dup1\n      dup1\n      tag_97\n      swap1\n      tag_68\n      jump\t// in\n    tag_97:\n      swap2\n      pop\n      pop\n        /* \"voting_dapp.sol\":1452:1549  for(uint i = 1; i <= candidateCount; i++) {... */\n      jump(tag_84)\n    tag_85:\n      pop\n        /* \"voting_dapp.sol\":1562:1576  candidateArray */\n      dup1\n        /* \"voting_dapp.sol\":1555:1576  return candidateArray */\n      swap2\n      pop\n      pop\n        /* \"voting_dapp.sol\":1302:1580  function getAllCandidates() public view returns (Candidate[] memory) {... */\n      swap1\n      jump\t// out\n        /* \"voting_dapp.sol\":351:370  uint public endTime */\n    tag_28:\n      sload(0x04)\n      dup2\n      jump\t// out\n        /* \"voting_dapp.sol\":323:344  uint public startTime */\n    tag_32:\n      sload(0x03)\n      dup2\n      jump\t// out\n        /* \"voting_dapp.sol\":2277:2642  function getWinner() public view returns (string memory) {... */\n    tag_35:\n        /* \"voting_dapp.sol\":2319:2332  string memory */\n      0x60\n        /* \"voting_dapp.sol\":2345:2358  uint maxVotes */\n      0x00\n        /* \"voting_dapp.sol\":2373:2393  string memory winner */\n      dup1\n        /* \"voting_dapp.sol\":2373:2398  string memory winner = \"\" */\n      mload(0x40)\n      dup1\n      0x20\n      add\n      0x40\n      mstore\n      dup1\n      0x00\n      dup2\n      mstore\n      pop\n      swap1\n      pop\n        /* \"voting_dapp.sol\":2413:2419  uint i */\n      0x00\n        /* \"voting_dapp.sol\":2420:2421  1 */\n      0x01\n        /* \"voting_dapp.sol\":2413:2421  uint i=1 */\n      swap1\n      pop\n        /* \"voting_dapp.sol\":2409:2635  for(uint i=1; i<= candidateCount; i++){... */\n    tag_99:\n        /* \"voting_dapp.sol\":2427:2441  candidateCount */\n      sload(0x02)\n        /* \"voting_dapp.sol\":2423:2424  i */\n      dup2\n        /* \"voting_dapp.sol\":2423:2441  i<= candidateCount */\n      gt\n        /* \"voting_dapp.sol\":2409:2635  for(uint i=1; i<= candidateCount; i++){... */\n      tag_100\n      jumpi\n        /* \"voting_dapp.sol\":2490:2498  maxVotes */\n      dup3\n        /* \"voting_dapp.sol\":2465:2474  candidate */\n      0x00\n        /* \"voting_dapp.sol\":2465:2477  candidate[i] */\n      dup1\n        /* \"voting_dapp.sol\":2475:2476  i */\n      dup4\n        /* \"voting_dapp.sol\":2465:2477  candidate[i] */\n      dup2\n      mstore\n      0x20\n      add\n      swap1\n      dup2\n      mstore\n      0x20\n      add\n      0x00\n      keccak256\n        /* \"voting_dapp.sol\":2465:2487  candidate[i].voteCount */\n      0x02\n      add\n      sload\n        /* \"voting_dapp.sol\":2465:2498  candidate[i].voteCount > maxVotes */\n      gt\n        /* \"voting_dapp.sol\":2462:2624  if(candidate[i].voteCount > maxVotes) {... */\n      iszero\n      tag_102\n      jumpi\n        /* \"voting_dapp.sol\":2519:2542  return \"No winner yet!\" */\n      mload(0x40)\n      dup1\n      0x40\n      add\n      0x40\n      mstore\n      dup1\n      0x0e\n      dup2\n      mstore\n      0x20\n      add\n      0x4e6f2077696e6e65722079657421000000000000000000000000000000000000\n      dup2\n      mstore\n      pop\n      swap4\n      pop\n      pop\n      pop\n      pop\n      jump(tag_98)\n        /* \"voting_dapp.sol\":2462:2624  if(candidate[i].voteCount > maxVotes) {... */\n    tag_102:\n        /* \"voting_dapp.sol\":2591:2600  candidate */\n      0x00\n        /* \"voting_dapp.sol\":2591:2603  candidate[i] */\n      dup1\n        /* \"voting_dapp.sol\":2601:2602  i */\n      dup3\n        /* \"voting_dapp.sol\":2591:2603  candidate[i] */\n      dup2\n      mstore\n      0x20\n      add\n      swap1\n      dup2\n      mstore\n      0x20\n      add\n      0x00\n      keccak256\n        /* \"voting_dapp.sol\":2591:2608  candidate[i].name */\n      0x01\n      add\n        /* \"voting_dapp.sol\":2582:2608  winner = candidate[i].name */\n      dup1\n      sload\n      tag_104\n      swap1\n      tag_71\n      jump\t// in\n    tag_104:\n      dup1\n      0x1f\n      add\n      0x20\n      dup1\n      swap2\n      div\n      mul\n      0x20\n      add\n      mload(0x40)\n      swap1\n      dup2\n      add\n      0x40\n      mstore\n      dup1\n      swap3\n      swap2\n      swap1\n      dup2\n      dup2\n      mstore\n      0x20\n      add\n      dup3\n      dup1\n      sload\n      tag_105\n      swap1\n      tag_71\n      jump\t// in\n    tag_105:\n      dup1\n      iszero\n      tag_106\n      jumpi\n      dup1\n      0x1f\n      lt\n      tag_107\n      jumpi\n      0x0100\n      dup1\n      dup4\n      sload\n      div\n      mul\n      dup4\n      mstore\n      swap2\n      0x20\n      add\n      swap2\n      jump(tag_106)\n    tag_107:\n      dup3\n      add\n      swap2\n      swap1\n      0x00\n      mstore\n      keccak256(0x00, 0x20)\n      swap1\n    tag_108:\n      dup2\n      sload\n      dup2\n      mstore\n      swap1\n      0x01\n      add\n      swap1\n      0x20\n      add\n      dup1\n      dup4\n      gt\n      tag_108\n      jumpi\n      dup3\n      swap1\n      sub\n      0x1f\n      and\n      dup3\n      add\n      swap2\n    tag_106:\n      pop\n      pop\n      pop\n      pop\n      pop\n      swap2\n      pop\n        /* \"voting_dapp.sol\":2443:2446  i++ */\n      dup1\n      dup1\n      tag_109\n      swap1\n      tag_68\n      jump\t// in\n    tag_109:\n      swap2\n      pop\n      pop\n        /* \"voting_dapp.sol\":2409:2635  for(uint i=1; i<= candidateCount; i++){... */\n      jump(tag_99)\n    tag_100:\n      pop\n        /* \"voting_dapp.sol\":2334:2642  {... */\n      pop\n      pop\n        /* \"voting_dapp.sol\":2277:2642  function getWinner() public view returns (string memory) {... */\n    tag_98:\n      swap1\n      jump\t// out\n        /* \"voting_dapp.sol\":1596:1835  function getCandidateById(uint _candidateId) public view returns (Candidate memory){... */\n    tag_40:\n        /* \"voting_dapp.sol\":1662:1678  Candidate memory */\n      tag_110\n      tag_83\n      jump\t// in\n    tag_110:\n        /* \"voting_dapp.sol\":1713:1714  0 */\n      0x00\n        /* \"voting_dapp.sol\":1698:1710  _candidateId */\n      dup3\n        /* \"voting_dapp.sol\":1698:1714  _candidateId > 0 */\n      gt\n        /* \"voting_dapp.sol\":1698:1748  _candidateId > 0 && _candidateId <= candidateCount */\n      dup1\n      iszero\n      tag_112\n      jumpi\n      pop\n        /* \"voting_dapp.sol\":1734:1748  candidateCount */\n      sload(0x02)\n        /* \"voting_dapp.sol\":1718:1730  _candidateId */\n      dup3\n        /* \"voting_dapp.sol\":1718:1748  _candidateId <= candidateCount */\n      gt\n      iszero\n        /* \"voting_dapp.sol\":1698:1748  _candidateId > 0 && _candidateId <= candidateCount */\n    tag_112:\n        /* \"voting_dapp.sol\":1690:1763  require(_candidateId > 0 && _candidateId <= candidateCount, \"Invalid ID\") */\n      tag_113\n      jumpi\n      mload(0x40)\n      0x08c379a000000000000000000000000000000000000000000000000000000000\n      dup2\n      mstore\n      0x04\n      add\n      tag_114\n      swap1\n      tag_115\n      jump\t// in\n    tag_114:\n      mload(0x40)\n      dup1\n      swap2\n      sub\n      swap1\n      revert\n    tag_113:\n        /* \"voting_dapp.sol\":1774:1801  Candidate memory _candidate */\n      0x00\n        /* \"voting_dapp.sol\":1804:1813  candidate */\n      dup1\n        /* \"voting_dapp.sol\":1804:1827  candidate[_candidateId] */\n      0x00\n        /* \"voting_dapp.sol\":1814:1826  _candidateId */\n      dup5\n        /* \"voting_dapp.sol\":1804:1827  candidate[_candidateId] */\n      dup2\n      mstore\n      0x20\n      add\n      swap1\n      dup2\n      mstore\n      0x20\n      add\n      0x00\n      keccak256\n        /* \"voting_dapp.sol\":1774:1827  Candidate memory _candidate = candidate[_candidateId] */\n      mload(0x40)\n      dup1\n      0x60\n      add\n      0x40\n      mstore\n      swap1\n      dup2\n      0x00\n      dup3\n      add\n      sload\n      dup2\n      mstore\n      0x20\n      add\n      0x01\n      dup3\n      add\n      dup1\n      sload\n      tag_116\n      swap1\n      tag_71\n      jump\t// in\n    tag_116:\n      dup1\n      0x1f\n      add\n      0x20\n      dup1\n      swap2\n      div\n      mul\n      0x20\n      add\n      mload(0x40)\n      swap1\n      dup2\n      add\n      0x40\n      mstore\n      dup1\n      swap3\n      swap2\n      swap1\n      dup2\n      dup2\n      mstore\n      0x20\n      add\n      dup3\n      dup1\n      sload\n      tag_117\n      swap1\n      tag_71\n      jump\t// in\n    tag_117:\n      dup1\n      iszero\n      tag_118\n      jumpi\n      dup1\n      0x1f\n      lt\n      tag_119\n      jumpi\n      0x0100\n      dup1\n      dup4\n      sload\n      div\n      mul\n      dup4\n      mstore\n      swap2\n      0x20\n      add\n      swap2\n      jump(tag_118)\n    tag_119:\n      dup3\n      add\n      swap2\n      swap1\n      0x00\n      mstore\n      keccak256(0x00, 0x20)\n      swap1\n    tag_120:\n      dup2\n      sload\n      dup2\n      mstore\n      swap1\n      0x01\n      add\n      swap1\n      0x20\n      add\n      dup1\n      dup4\n      gt\n      tag_120\n      jumpi\n      dup3\n      swap1\n      sub\n      0x1f\n      and\n      dup3\n      add\n      swap2\n    tag_118:\n      pop\n      pop\n      pop\n      pop\n      pop\n      dup2\n      mstore\n      0x20\n      add\n      0x02\n      dup3\n      add\n      sload\n      dup2\n      mstore\n      pop\n      pop\n      swap1\n      pop\n        /* \"voting_dapp.sol\":1679:1835  {... */\n      pop\n        /* \"voting_dapp.sol\":1596:1835  function getCandidateById(uint _candidateId) public view returns (Candidate memory){... */\n      swap2\n      swap1\n      pop\n      jump\t// out\n        /* \"voting_dapp.sol\":286:316  uint public candidateCount = 0 */\n    tag_44:\n      sload(0x02)\n      dup2\n      jump\t// out\n        /* \"voting_dapp.sol\":239:277  mapping (address => bool) public voter */\n    tag_49:\n      mstore(0x20, 0x01)\n      dup1\n      0x00\n      mstore\n      keccak256(0x00, 0x40)\n      0x00\n      swap2\n      pop\n      sload\n      swap1\n      0x0100\n      exp\n      swap1\n      div\n      0xff\n      and\n      dup2\n      jump\t// out\n        /* \"voting_dapp.sol\":1843:2266  function getCurrentLeader() public view returns (string memory) {... */\n    tag_53:\n        /* \"voting_dapp.sol\":1892:1905  string memory */\n      0x60\n        /* \"voting_dapp.sol\":1918:1931  uint maxVotes */\n      0x00\n        /* \"voting_dapp.sol\":1946:1969  uint leadingCandidateId */\n      dup1\n        /* \"voting_dapp.sol\":1990:1996  uint i */\n      0x00\n        /* \"voting_dapp.sol\":1997:1998  1 */\n      0x01\n        /* \"voting_dapp.sol\":1990:1998  uint i=1 */\n      swap1\n      pop\n        /* \"voting_dapp.sol\":1986:2197  for(uint i=1; i<= candidateCount; i++){... */\n    tag_122:\n        /* \"voting_dapp.sol\":2004:2018  candidateCount */\n      sload(0x02)\n        /* \"voting_dapp.sol\":2000:2001  i */\n      dup2\n        /* \"voting_dapp.sol\":2000:2018  i<= candidateCount */\n      gt\n        /* \"voting_dapp.sol\":1986:2197  for(uint i=1; i<= candidateCount; i++){... */\n      tag_123\n      jumpi\n        /* \"voting_dapp.sol\":2067:2075  maxVotes */\n      dup3\n        /* \"voting_dapp.sol\":2042:2051  candidate */\n      0x00\n        /* \"voting_dapp.sol\":2042:2054  candidate[i] */\n      dup1\n        /* \"voting_dapp.sol\":2052:2053  i */\n      dup4\n        /* \"voting_dapp.sol\":2042:2054  candidate[i] */\n      dup2\n      mstore\n      0x20\n      add\n      swap1\n      dup2\n      mstore\n      0x20\n      add\n      0x00\n      keccak256\n        /* \"voting_dapp.sol\":2042:2064  candidate[i].voteCount */\n      0x02\n      add\n      sload\n        /* \"voting_dapp.sol\":2042:2075  candidate[i].voteCount > maxVotes */\n      gt\n        /* \"voting_dapp.sol\":2039:2186  if(candidate[i].voteCount > maxVotes) {... */\n      iszero\n      tag_125\n      jumpi\n        /* \"voting_dapp.sol\":2107:2116  candidate */\n      0x00\n        /* \"voting_dapp.sol\":2107:2119  candidate[i] */\n      dup1\n        /* \"voting_dapp.sol\":2117:2118  i */\n      dup3\n        /* \"voting_dapp.sol\":2107:2119  candidate[i] */\n      dup2\n      mstore\n      0x20\n      add\n      swap1\n      dup2\n      mstore\n      0x20\n      add\n      0x00\n      keccak256\n        /* \"voting_dapp.sol\":2107:2129  candidate[i].voteCount */\n      0x02\n      add\n      sload\n        /* \"voting_dapp.sol\":2096:2129  maxVotes = candidate[i].voteCount */\n      swap3\n      pop\n        /* \"voting_dapp.sol\":2169:2170  i */\n      dup1\n        /* \"voting_dapp.sol\":2148:2170  leadingCandidateId = i */\n      swap2\n      pop\n        /* \"voting_dapp.sol\":2039:2186  if(candidate[i].voteCount > maxVotes) {... */\n    tag_125:\n        /* \"voting_dapp.sol\":2020:2023  i++ */\n      dup1\n      dup1\n      tag_126\n      swap1\n      tag_68\n      jump\t// in\n    tag_126:\n      swap2\n      pop\n      pop\n        /* \"voting_dapp.sol\":1986:2197  for(uint i=1; i<= candidateCount; i++){... */\n      jump(tag_122)\n    tag_123:\n      pop\n        /* \"voting_dapp.sol\":2224:2233  candidate */\n      0x00\n        /* \"voting_dapp.sol\":2224:2253  candidate[leadingCandidateId] */\n      dup1\n        /* \"voting_dapp.sol\":2234:2252  leadingCandidateId */\n      dup3\n        /* \"voting_dapp.sol\":2224:2253  candidate[leadingCandidateId] */\n      dup2\n      mstore\n      0x20\n      add\n      swap1\n      dup2\n      mstore\n      0x20\n      add\n      0x00\n      keccak256\n        /* \"voting_dapp.sol\":2224:2258  candidate[leadingCandidateId].name */\n      0x01\n      add\n        /* \"voting_dapp.sol\":2217:2258  return candidate[leadingCandidateId].name */\n      dup1\n      sload\n      tag_127\n      swap1\n      tag_71\n      jump\t// in\n    tag_127:\n      dup1\n      0x1f\n      add\n      0x20\n      dup1\n      swap2\n      div\n      mul\n      0x20\n      add\n      mload(0x40)\n      swap1\n      dup2\n      add\n      0x40\n      mstore\n      dup1\n      swap3\n      swap2\n      swap1\n      dup2\n      dup2\n      mstore\n      0x20\n      add\n      dup3\n      dup1\n      sload\n      tag_128\n      swap1\n      tag_71\n      jump\t// in\n    tag_128:\n      dup1\n      iszero\n      tag_129\n      jumpi\n      dup1\n      0x1f\n      lt\n      tag_130\n      jumpi\n      0x0100\n      dup1\n      dup4\n      sload\n      div\n      mul\n      dup4\n      mstore\n      swap2\n      0x20\n      add\n      swap2\n      jump(tag_129)\n    tag_130:\n      dup3\n      add\n      swap2\n      swap1\n      0x00\n      mstore\n      keccak256(0x00, 0x20)\n      swap1\n    tag_131:\n      dup2\n      sload\n      dup2\n      mstore\n      swap1\n      0x01\n      add\n      swap1\n      0x20\n      add\n      dup1\n      dup4\n      gt\n      tag_131\n      jumpi\n      dup3\n      swap1\n      sub\n      0x1f\n      and\n      dup3\n      add\n      swap2\n    tag_129:\n      pop\n      pop\n      pop\n      pop\n      pop\n      swap3\n      pop\n      pop\n      pop\n        /* \"voting_dapp.sol\":1843:2266  function getCurrentLeader() public view returns (string memory) {... */\n      swap1\n      jump\t// out\n    tag_83:\n      mload(0x40)\n      dup1\n      0x60\n      add\n      0x40\n      mstore\n      dup1\n      0x00\n      dup2\n      mstore\n      0x20\n      add\n      0x60\n      dup2\n      mstore\n      0x20\n      add\n      0x00\n      dup2\n      mstore\n      pop\n      swap1\n      jump\t// out\n        /* \"#utility.yul\":88:205   */\n    tag_133:\n        /* \"#utility.yul\":197:198   */\n      0x00\n        /* \"#utility.yul\":194:195   */\n      dup1\n        /* \"#utility.yul\":187:199   */\n      revert\n        /* \"#utility.yul\":334:411   */\n    tag_135:\n        /* \"#utility.yul\":371:378   */\n      0x00\n        /* \"#utility.yul\":400:405   */\n      dup2\n        /* \"#utility.yul\":389:405   */\n      swap1\n      pop\n        /* \"#utility.yul\":334:411   */\n      swap2\n      swap1\n      pop\n      jump\t// out\n        /* \"#utility.yul\":417:539   */\n    tag_136:\n        /* \"#utility.yul\":490:514   */\n      tag_177\n        /* \"#utility.yul\":508:513   */\n      dup2\n        /* \"#utility.yul\":490:514   */\n      tag_135\n      jump\t// in\n    tag_177:\n        /* \"#utility.yul\":483:488   */\n      dup2\n        /* \"#utility.yul\":480:515   */\n      eq\n        /* \"#utility.yul\":470:533   */\n      tag_178\n      jumpi\n        /* \"#utility.yul\":529:530   */\n      0x00\n        /* \"#utility.yul\":526:527   */\n      dup1\n        /* \"#utility.yul\":519:531   */\n      revert\n        /* \"#utility.yul\":470:533   */\n    tag_178:\n        /* \"#utility.yul\":417:539   */\n      pop\n      jump\t// out\n        /* \"#utility.yul\":545:684   */\n    tag_137:\n        /* \"#utility.yul\":591:596   */\n      0x00\n        /* \"#utility.yul\":629:635   */\n      dup2\n        /* \"#utility.yul\":616:636   */\n      calldataload\n        /* \"#utility.yul\":607:636   */\n      swap1\n      pop\n        /* \"#utility.yul\":645:678   */\n      tag_180\n        /* \"#utility.yul\":672:677   */\n      dup2\n        /* \"#utility.yul\":645:678   */\n      tag_136\n      jump\t// in\n    tag_180:\n        /* \"#utility.yul\":545:684   */\n      swap3\n      swap2\n      pop\n      pop\n      jump\t// out\n        /* \"#utility.yul\":690:1019   */\n    tag_16:\n        /* \"#utility.yul\":749:755   */\n      0x00\n        /* \"#utility.yul\":798:800   */\n      0x20\n        /* \"#utility.yul\":786:795   */\n      dup3\n        /* \"#utility.yul\":777:784   */\n      dup5\n        /* \"#utility.yul\":773:796   */\n      sub\n        /* \"#utility.yul\":769:801   */\n      slt\n        /* \"#utility.yul\":766:885   */\n      iszero\n      tag_182\n      jumpi\n        /* \"#utility.yul\":804:883   */\n      tag_183\n      tag_133\n      jump\t// in\n    tag_183:\n        /* \"#utility.yul\":766:885   */\n    tag_182:\n        /* \"#utility.yul\":924:925   */\n      0x00\n        /* \"#utility.yul\":949:1002   */\n      tag_184\n        /* \"#utility.yul\":994:1001   */\n      dup5\n        /* \"#utility.yul\":985:991   */\n      dup3\n        /* \"#utility.yul\":974:983   */\n      dup6\n        /* \"#utility.yul\":970:992   */\n      add\n        /* \"#utility.yul\":949:1002   */\n      tag_137\n      jump\t// in\n    tag_184:\n        /* \"#utility.yul\":939:1002   */\n      swap2\n      pop\n        /* \"#utility.yul\":895:1012   */\n      pop\n        /* \"#utility.yul\":690:1019   */\n      swap3\n      swap2\n      pop\n      pop\n      jump\t// out\n        /* \"#utility.yul\":1025:1143   */\n    tag_138:\n        /* \"#utility.yul\":1112:1136   */\n      tag_186\n        /* \"#utility.yul\":1130:1135   */\n      dup2\n        /* \"#utility.yul\":1112:1136   */\n      tag_135\n      jump\t// in\n    tag_186:\n        /* \"#utility.yul\":1107:1110   */\n      dup3\n        /* \"#utility.yul\":1100:1137   */\n      mstore\n        /* \"#utility.yul\":1025:1143   */\n      pop\n      pop\n      jump\t// out\n        /* \"#utility.yul\":1149:1248   */\n    tag_139:\n        /* \"#utility.yul\":1201:1207   */\n      0x00\n        /* \"#utility.yul\":1235:1240   */\n      dup2\n        /* \"#utility.yul\":1229:1241   */\n      mload\n        /* \"#utility.yul\":1219:1241   */\n      swap1\n      pop\n        /* \"#utility.yul\":1149:1248   */\n      swap2\n      swap1\n      pop\n      jump\t// out\n        /* \"#utility.yul\":1254:1423   */\n    tag_140:\n        /* \"#utility.yul\":1338:1349   */\n      0x00\n        /* \"#utility.yul\":1372:1378   */\n      dup3\n        /* \"#utility.yul\":1367:1370   */\n      dup3\n        /* \"#utility.yul\":1360:1379   */\n      mstore\n        /* \"#utility.yul\":1412:1416   */\n      0x20\n        /* \"#utility.yul\":1407:1410   */\n      dup3\n        /* \"#utility.yul\":1403:1417   */\n      add\n        /* \"#utility.yul\":1388:1417   */\n      swap1\n      pop\n        /* \"#utility.yul\":1254:1423   */\n      swap3\n      swap2\n      pop\n      pop\n      jump\t// out\n        /* \"#utility.yul\":1429:1568   */\n    tag_141:\n        /* \"#utility.yul\":1518:1524   */\n      dup3\n        /* \"#utility.yul\":1513:1516   */\n      dup2\n        /* \"#utility.yul\":1508:1511   */\n      dup4\n        /* \"#utility.yul\":1502:1525   */\n      mcopy\n        /* \"#utility.yul\":1559:1560   */\n      0x00\n        /* \"#utility.yul\":1550:1556   */\n      dup4\n        /* \"#utility.yul\":1545:1548   */\n      dup4\n        /* \"#utility.yul\":1541:1557   */\n      add\n        /* \"#utility.yul\":1534:1561   */\n      mstore\n        /* \"#utility.yul\":1429:1568   */\n      pop\n      pop\n      pop\n      jump\t// out\n        /* \"#utility.yul\":1574:1676   */\n    tag_142:\n        /* \"#utility.yul\":1615:1621   */\n      0x00\n        /* \"#utility.yul\":1666:1668   */\n      0x1f\n        /* \"#utility.yul\":1662:1669   */\n      not\n        /* \"#utility.yul\":1657:1659   */\n      0x1f\n        /* \"#utility.yul\":1650:1655   */\n      dup4\n        /* \"#utility.yul\":1646:1660   */\n      add\n        /* \"#utility.yul\":1642:1670   */\n      and\n        /* \"#utility.yul\":1632:1670   */\n      swap1\n      pop\n        /* \"#utility.yul\":1574:1676   */\n      swap2\n      swap1\n      pop\n      jump\t// out\n        /* \"#utility.yul\":1682:2059   */\n    tag_143:\n        /* \"#utility.yul\":1770:1773   */\n      0x00\n        /* \"#utility.yul\":1798:1837   */\n      tag_192\n        /* \"#utility.yul\":1831:1836   */\n      dup3\n        /* \"#utility.yul\":1798:1837   */\n      tag_139\n      jump\t// in\n    tag_192:\n        /* \"#utility.yul\":1853:1924   */\n      tag_193\n        /* \"#utility.yul\":1917:1923   */\n      dup2\n        /* \"#utility.yul\":1912:1915   */\n      dup6\n        /* \"#utility.yul\":1853:1924   */\n      tag_140\n      jump\t// in\n    tag_193:\n        /* \"#utility.yul\":1846:1924   */\n      swap4\n      pop\n        /* \"#utility.yul\":1933:1998   */\n      tag_194\n        /* \"#utility.yul\":1991:1997   */\n      dup2\n        /* \"#utility.yul\":1986:1989   */\n      dup6\n        /* \"#utility.yul\":1979:1983   */\n      0x20\n        /* \"#utility.yul\":1972:1977   */\n      dup7\n        /* \"#utility.yul\":1968:1984   */\n      add\n        /* \"#utility.yul\":1933:1998   */\n      tag_141\n      jump\t// in\n    tag_194:\n        /* \"#utility.yul\":2023:2052   */\n      tag_195\n        /* \"#utility.yul\":2045:2051   */\n      dup2\n        /* \"#utility.yul\":2023:2052   */\n      tag_142\n      jump\t// in\n    tag_195:\n        /* \"#utility.yul\":2018:2021   */\n      dup5\n        /* \"#utility.yul\":2014:2053   */\n      add\n        /* \"#utility.yul\":2007:2053   */\n      swap2\n      pop\n        /* \"#utility.yul\":1774:2059   */\n      pop\n        /* \"#utility.yul\":1682:2059   */\n      swap3\n      swap2\n      pop\n      pop\n      jump\t// out\n        /* \"#utility.yul\":2065:2598   */\n    tag_22:\n        /* \"#utility.yul\":2234:2238   */\n      0x00\n        /* \"#utility.yul\":2272:2274   */\n      0x60\n        /* \"#utility.yul\":2261:2270   */\n      dup3\n        /* \"#utility.yul\":2257:2275   */\n      add\n        /* \"#utility.yul\":2249:2275   */\n      swap1\n      pop\n        /* \"#utility.yul\":2285:2356   */\n      tag_197\n        /* \"#utility.yul\":2353:2354   */\n      0x00\n        /* \"#utility.yul\":2342:2351   */\n      dup4\n        /* \"#utility.yul\":2338:2355   */\n      add\n        /* \"#utility.yul\":2329:2335   */\n      dup7\n        /* \"#utility.yul\":2285:2356   */\n      tag_138\n      jump\t// in\n    tag_197:\n        /* \"#utility.yul\":2403:2412   */\n      dup2\n        /* \"#utility.yul\":2397:2401   */\n      dup2\n        /* \"#utility.yul\":2393:2413   */\n      sub\n        /* \"#utility.yul\":2388:2390   */\n      0x20\n        /* \"#utility.yul\":2377:2386   */\n      dup4\n        /* \"#utility.yul\":2373:2391   */\n      add\n        /* \"#utility.yul\":2366:2414   */\n      mstore\n        /* \"#utility.yul\":2431:2509   */\n      tag_198\n        /* \"#utility.yul\":2504:2508   */\n      dup2\n        /* \"#utility.yul\":2495:2501   */\n      dup6\n        /* \"#utility.yul\":2431:2509   */\n      tag_143\n      jump\t// in\n    tag_198:\n        /* \"#utility.yul\":2423:2509   */\n      swap1\n      pop\n        /* \"#utility.yul\":2519:2591   */\n      tag_199\n        /* \"#utility.yul\":2587:2589   */\n      0x40\n        /* \"#utility.yul\":2576:2585   */\n      dup4\n        /* \"#utility.yul\":2572:2590   */\n      add\n        /* \"#utility.yul\":2563:2569   */\n      dup5\n        /* \"#utility.yul\":2519:2591   */\n      tag_138\n      jump\t// in\n    tag_199:\n        /* \"#utility.yul\":2065:2598   */\n      swap5\n      swap4\n      pop\n      pop\n      pop\n      pop\n      jump\t// out\n        /* \"#utility.yul\":2604:2742   */\n    tag_144:\n        /* \"#utility.yul\":2695:2701   */\n      0x00\n        /* \"#utility.yul\":2729:2734   */\n      dup2\n        /* \"#utility.yul\":2723:2735   */\n      mload\n        /* \"#utility.yul\":2713:2735   */\n      swap1\n      pop\n        /* \"#utility.yul\":2604:2742   */\n      swap2\n      swap1\n      pop\n      jump\t// out\n        /* \"#utility.yul\":2748:2956   */\n    tag_145:\n        /* \"#utility.yul\":2871:2882   */\n      0x00\n        /* \"#utility.yul\":2905:2911   */\n      dup3\n        /* \"#utility.yul\":2900:2903   */\n      dup3\n        /* \"#utility.yul\":2893:2912   */\n      mstore\n        /* \"#utility.yul\":2945:2949   */\n      0x20\n        /* \"#utility.yul\":2940:2943   */\n      dup3\n        /* \"#utility.yul\":2936:2950   */\n      add\n        /* \"#utility.yul\":2921:2950   */\n      swap1\n      pop\n        /* \"#utility.yul\":2748:2956   */\n      swap3\n      swap2\n      pop\n      pop\n      jump\t// out\n        /* \"#utility.yul\":2962:3118   */\n    tag_146:\n        /* \"#utility.yul\":3053:3057   */\n      0x00\n        /* \"#utility.yul\":3076:3079   */\n      dup2\n        /* \"#utility.yul\":3068:3079   */\n      swap1\n      pop\n        /* \"#utility.yul\":3106:3110   */\n      0x20\n        /* \"#utility.yul\":3101:3104   */\n      dup3\n        /* \"#utility.yul\":3097:3111   */\n      add\n        /* \"#utility.yul\":3089:3111   */\n      swap1\n      pop\n        /* \"#utility.yul\":2962:3118   */\n      swap2\n      swap1\n      pop\n      jump\t// out\n        /* \"#utility.yul\":3124:3232   */\n    tag_147:\n        /* \"#utility.yul\":3201:3225   */\n      tag_204\n        /* \"#utility.yul\":3219:3224   */\n      dup2\n        /* \"#utility.yul\":3201:3225   */\n      tag_135\n      jump\t// in\n    tag_204:\n        /* \"#utility.yul\":3196:3199   */\n      dup3\n        /* \"#utility.yul\":3189:3226   */\n      mstore\n        /* \"#utility.yul\":3124:3232   */\n      pop\n      pop\n      jump\t// out\n        /* \"#utility.yul\":3238:3397   */\n    tag_148:\n        /* \"#utility.yul\":3312:3323   */\n      0x00\n        /* \"#utility.yul\":3346:3352   */\n      dup3\n        /* \"#utility.yul\":3341:3344   */\n      dup3\n        /* \"#utility.yul\":3334:3353   */\n      mstore\n        /* \"#utility.yul\":3386:3390   */\n      0x20\n        /* \"#utility.yul\":3381:3384   */\n      dup3\n        /* \"#utility.yul\":3377:3391   */\n      add\n        /* \"#utility.yul\":3362:3391   */\n      swap1\n      pop\n        /* \"#utility.yul\":3238:3397   */\n      swap3\n      swap2\n      pop\n      pop\n      jump\t// out\n        /* \"#utility.yul\":3403:3760   */\n    tag_149:\n        /* \"#utility.yul\":3481:3484   */\n      0x00\n        /* \"#utility.yul\":3509:3548   */\n      tag_207\n        /* \"#utility.yul\":3542:3547   */\n      dup3\n        /* \"#utility.yul\":3509:3548   */\n      tag_139\n      jump\t// in\n    tag_207:\n        /* \"#utility.yul\":3564:3625   */\n      tag_208\n        /* \"#utility.yul\":3618:3624   */\n      dup2\n        /* \"#utility.yul\":3613:3616   */\n      dup6\n        /* \"#utility.yul\":3564:3625   */\n      tag_148\n      jump\t// in\n    tag_208:\n        /* \"#utility.yul\":3557:3625   */\n      swap4\n      pop\n        /* \"#utility.yul\":3634:3699   */\n      tag_209\n        /* \"#utility.yul\":3692:3698   */\n      dup2\n        /* \"#utility.yul\":3687:3690   */\n      dup6\n        /* \"#utility.yul\":3680:3684   */\n      0x20\n        /* \"#utility.yul\":3673:3678   */\n      dup7\n        /* \"#utility.yul\":3669:3685   */\n      add\n        /* \"#utility.yul\":3634:3699   */\n      tag_141\n      jump\t// in\n    tag_209:\n        /* \"#utility.yul\":3724:3753   */\n      tag_210\n        /* \"#utility.yul\":3746:3752   */\n      dup2\n        /* \"#utility.yul\":3724:3753   */\n      tag_142\n      jump\t// in\n    tag_210:\n        /* \"#utility.yul\":3719:3722   */\n      dup5\n        /* \"#utility.yul\":3715:3754   */\n      add\n        /* \"#utility.yul\":3708:3754   */\n      swap2\n      pop\n        /* \"#utility.yul\":3485:3760   */\n      pop\n        /* \"#utility.yul\":3403:3760   */\n      swap3\n      swap2\n      pop\n      pop\n      jump\t// out\n        /* \"#utility.yul\":3836:4607   */\n    tag_150:\n        /* \"#utility.yul\":3943:3946   */\n      0x00\n        /* \"#utility.yul\":3979:3983   */\n      0x60\n        /* \"#utility.yul\":3974:3977   */\n      dup4\n        /* \"#utility.yul\":3970:3984   */\n      add\n        /* \"#utility.yul\":4064:4068   */\n      0x00\n        /* \"#utility.yul\":4057:4062   */\n      dup4\n        /* \"#utility.yul\":4053:4069   */\n      add\n        /* \"#utility.yul\":4047:4070   */\n      mload\n        /* \"#utility.yul\":4083:4146   */\n      tag_212\n        /* \"#utility.yul\":4140:4144   */\n      0x00\n        /* \"#utility.yul\":4135:4138   */\n      dup7\n        /* \"#utility.yul\":4131:4145   */\n      add\n        /* \"#utility.yul\":4117:4129   */\n      dup3\n        /* \"#utility.yul\":4083:4146   */\n      tag_147\n      jump\t// in\n    tag_212:\n        /* \"#utility.yul\":3994:4156   */\n      pop\n        /* \"#utility.yul\":4238:4242   */\n      0x20\n        /* \"#utility.yul\":4231:4236   */\n      dup4\n        /* \"#utility.yul\":4227:4243   */\n      add\n        /* \"#utility.yul\":4221:4244   */\n      mload\n        /* \"#utility.yul\":4291:4294   */\n      dup5\n        /* \"#utility.yul\":4285:4289   */\n      dup3\n        /* \"#utility.yul\":4281:4295   */\n      sub\n        /* \"#utility.yul\":4274:4278   */\n      0x20\n        /* \"#utility.yul\":4269:4272   */\n      dup7\n        /* \"#utility.yul\":4265:4279   */\n      add\n        /* \"#utility.yul\":4258:4296   */\n      mstore\n        /* \"#utility.yul\":4317:4390   */\n      tag_213\n        /* \"#utility.yul\":4385:4389   */\n      dup3\n        /* \"#utility.yul\":4371:4383   */\n      dup3\n        /* \"#utility.yul\":4317:4390   */\n      tag_149\n      jump\t// in\n    tag_213:\n        /* \"#utility.yul\":4309:4390   */\n      swap2\n      pop\n        /* \"#utility.yul\":4166:4401   */\n      pop\n        /* \"#utility.yul\":4488:4492   */\n      0x40\n        /* \"#utility.yul\":4481:4486   */\n      dup4\n        /* \"#utility.yul\":4477:4493   */\n      add\n        /* \"#utility.yul\":4471:4494   */\n      mload\n        /* \"#utility.yul\":4507:4570   */\n      tag_214\n        /* \"#utility.yul\":4564:4568   */\n      0x40\n        /* \"#utility.yul\":4559:4562   */\n      dup7\n        /* \"#utility.yul\":4555:4569   */\n      add\n        /* \"#utility.yul\":4541:4553   */\n      dup3\n        /* \"#utility.yul\":4507:4570   */\n      tag_147\n      jump\t// in\n    tag_214:\n        /* \"#utility.yul\":4411:4580   */\n      pop\n        /* \"#utility.yul\":4597:4601   */\n      dup1\n        /* \"#utility.yul\":4590:4601   */\n      swap2\n      pop\n        /* \"#utility.yul\":3948:4607   */\n      pop\n        /* \"#utility.yul\":3836:4607   */\n      swap3\n      swap2\n      pop\n      pop\n      jump\t// out\n        /* \"#utility.yul\":4613:4865   */\n    tag_151:\n        /* \"#utility.yul\":4730:4740   */\n      0x00\n        /* \"#utility.yul\":4765:4859   */\n      tag_216\n        /* \"#utility.yul\":4855:4858   */\n      dup4\n        /* \"#utility.yul\":4847:4853   */\n      dup4\n        /* \"#utility.yul\":4765:4859   */\n      tag_150\n      jump\t// in\n    tag_216:\n        /* \"#utility.yul\":4751:4859   */\n      swap1\n      pop\n        /* \"#utility.yul\":4613:4865   */\n      swap3\n      swap2\n      pop\n      pop\n      jump\t// out\n        /* \"#utility.yul\":4871:5008   */\n    tag_152:\n        /* \"#utility.yul\":4965:4969   */\n      0x00\n        /* \"#utility.yul\":4997:5001   */\n      0x20\n        /* \"#utility.yul\":4992:4995   */\n      dup3\n        /* \"#utility.yul\":4988:5002   */\n      add\n        /* \"#utility.yul\":4980:5002   */\n      swap1\n      pop\n        /* \"#utility.yul\":4871:5008   */\n      swap2\n      swap1\n      pop\n      jump\t// out\n        /* \"#utility.yul\":5088:6191   */\n    tag_153:\n        /* \"#utility.yul\":5255:5258   */\n      0x00\n        /* \"#utility.yul\":5284:5362   */\n      tag_219\n        /* \"#utility.yul\":5356:5361   */\n      dup3\n        /* \"#utility.yul\":5284:5362   */\n      tag_144\n      jump\t// in\n    tag_219:\n        /* \"#utility.yul\":5378:5488   */\n      tag_220\n        /* \"#utility.yul\":5481:5487   */\n      dup2\n        /* \"#utility.yul\":5476:5479   */\n      dup6\n        /* \"#utility.yul\":5378:5488   */\n      tag_145\n      jump\t// in\n    tag_220:\n        /* \"#utility.yul\":5371:5488   */\n      swap4\n      pop\n        /* \"#utility.yul\":5514:5517   */\n      dup4\n        /* \"#utility.yul\":5559:5563   */\n      0x20\n        /* \"#utility.yul\":5551:5557   */\n      dup3\n        /* \"#utility.yul\":5547:5564   */\n      mul\n        /* \"#utility.yul\":5542:5545   */\n      dup6\n        /* \"#utility.yul\":5538:5565   */\n      add\n        /* \"#utility.yul\":5589:5669   */\n      tag_221\n        /* \"#utility.yul\":5663:5668   */\n      dup6\n        /* \"#utility.yul\":5589:5669   */\n      tag_146\n      jump\t// in\n    tag_221:\n        /* \"#utility.yul\":5692:5699   */\n      dup1\n        /* \"#utility.yul\":5723:5724   */\n      0x00\n        /* \"#utility.yul\":5708:6146   */\n    tag_222:\n        /* \"#utility.yul\":5733:5739   */\n      dup6\n        /* \"#utility.yul\":5730:5731   */\n      dup2\n        /* \"#utility.yul\":5727:5740   */\n      lt\n        /* \"#utility.yul\":5708:6146   */\n      iszero\n      tag_224\n      jumpi\n        /* \"#utility.yul\":5804:5813   */\n      dup5\n        /* \"#utility.yul\":5798:5802   */\n      dup5\n        /* \"#utility.yul\":5794:5814   */\n      sub\n        /* \"#utility.yul\":5789:5792   */\n      dup10\n        /* \"#utility.yul\":5782:5815   */\n      mstore\n        /* \"#utility.yul\":5855:5861   */\n      dup2\n        /* \"#utility.yul\":5849:5862   */\n      mload\n        /* \"#utility.yul\":5883:5995   */\n      tag_225\n        /* \"#utility.yul\":5990:5994   */\n      dup6\n        /* \"#utility.yul\":5975:5988   */\n      dup3\n        /* \"#utility.yul\":5883:5995   */\n      tag_151\n      jump\t// in\n    tag_225:\n        /* \"#utility.yul\":5875:5995   */\n      swap5\n      pop\n        /* \"#utility.yul\":6018:6102   */\n      tag_226\n        /* \"#utility.yul\":6095:6101   */\n      dup4\n        /* \"#utility.yul\":6018:6102   */\n      tag_152\n      jump\t// in\n    tag_226:\n        /* \"#utility.yul\":6008:6102   */\n      swap3\n      pop\n        /* \"#utility.yul\":6131:6135   */\n      0x20\n        /* \"#utility.yul\":6126:6129   */\n      dup11\n        /* \"#utility.yul\":6122:6136   */\n      add\n        /* \"#utility.yul\":6115:6136   */\n      swap10\n      pop\n        /* \"#utility.yul\":5768:6146   */\n      pop\n        /* \"#utility.yul\":5755:5756   */\n      0x01\n        /* \"#utility.yul\":5752:5753   */\n      dup2\n        /* \"#utility.yul\":5748:5757   */\n      add\n        /* \"#utility.yul\":5743:5757   */\n      swap1\n      pop\n        /* \"#utility.yul\":5708:6146   */\n      jump(tag_222)\n    tag_224:\n        /* \"#utility.yul\":5712:5726   */\n      pop\n        /* \"#utility.yul\":6162:6166   */\n      dup3\n        /* \"#utility.yul\":6155:6166   */\n      swap8\n      pop\n        /* \"#utility.yul\":6182:6185   */\n      dup8\n        /* \"#utility.yul\":6175:6185   */\n      swap6\n      pop\n        /* \"#utility.yul\":5260:6191   */\n      pop\n      pop\n      pop\n      pop\n      pop\n        /* \"#utility.yul\":5088:6191   */\n      swap3\n      swap2\n      pop\n      pop\n      jump\t// out\n        /* \"#utility.yul\":6197:6666   */\n    tag_26:\n        /* \"#utility.yul\":6388:6392   */\n      0x00\n        /* \"#utility.yul\":6426:6428   */\n      0x20\n        /* \"#utility.yul\":6415:6424   */\n      dup3\n        /* \"#utility.yul\":6411:6429   */\n      add\n        /* \"#utility.yul\":6403:6429   */\n      swap1\n      pop\n        /* \"#utility.yul\":6475:6484   */\n      dup2\n        /* \"#utility.yul\":6469:6473   */\n      dup2\n        /* \"#utility.yul\":6465:6485   */\n      sub\n        /* \"#utility.yul\":6461:6462   */\n      0x00\n        /* \"#utility.yul\":6450:6459   */\n      dup4\n        /* \"#utility.yul\":6446:6463   */\n      add\n        /* \"#utility.yul\":6439:6486   */\n      mstore\n        /* \"#utility.yul\":6503:6659   */\n      tag_228\n        /* \"#utility.yul\":6654:6658   */\n      dup2\n        /* \"#utility.yul\":6645:6651   */\n      dup5\n        /* \"#utility.yul\":6503:6659   */\n      tag_153\n      jump\t// in\n    tag_228:\n        /* \"#utility.yul\":6495:6659   */\n      swap1\n      pop\n        /* \"#utility.yul\":6197:6666   */\n      swap3\n      swap2\n      pop\n      pop\n      jump\t// out\n        /* \"#utility.yul\":6672:6894   */\n    tag_30:\n        /* \"#utility.yul\":6765:6769   */\n      0x00\n        /* \"#utility.yul\":6803:6805   */\n      0x20\n        /* \"#utility.yul\":6792:6801   */\n      dup3\n        /* \"#utility.yul\":6788:6806   */\n      add\n        /* \"#utility.yul\":6780:6806   */\n      swap1\n      pop\n        /* \"#utility.yul\":6816:6887   */\n      tag_230\n        /* \"#utility.yul\":6884:6885   */\n      0x00\n        /* \"#utility.yul\":6873:6882   */\n      dup4\n        /* \"#utility.yul\":6869:6886   */\n      add\n        /* \"#utility.yul\":6860:6866   */\n      dup5\n        /* \"#utility.yul\":6816:6887   */\n      tag_138\n      jump\t// in\n    tag_230:\n        /* \"#utility.yul\":6672:6894   */\n      swap3\n      swap2\n      pop\n      pop\n      jump\t// out\n        /* \"#utility.yul\":6900:7213   */\n    tag_37:\n        /* \"#utility.yul\":7013:7017   */\n      0x00\n        /* \"#utility.yul\":7051:7053   */\n      0x20\n        /* \"#utility.yul\":7040:7049   */\n      dup3\n        /* \"#utility.yul\":7036:7054   */\n      add\n        /* \"#utility.yul\":7028:7054   */\n      swap1\n      pop\n        /* \"#utility.yul\":7100:7109   */\n      dup2\n        /* \"#utility.yul\":7094:7098   */\n      dup2\n        /* \"#utility.yul\":7090:7110   */\n      sub\n        /* \"#utility.yul\":7086:7087   */\n      0x00\n        /* \"#utility.yul\":7075:7084   */\n      dup4\n        /* \"#utility.yul\":7071:7088   */\n      add\n        /* \"#utility.yul\":7064:7111   */\n      mstore\n        /* \"#utility.yul\":7128:7206   */\n      tag_232\n        /* \"#utility.yul\":7201:7205   */\n      dup2\n        /* \"#utility.yul\":7192:7198   */\n      dup5\n        /* \"#utility.yul\":7128:7206   */\n      tag_143\n      jump\t// in\n    tag_232:\n        /* \"#utility.yul\":7120:7206   */\n      swap1\n      pop\n        /* \"#utility.yul\":6900:7213   */\n      swap3\n      swap2\n      pop\n      pop\n      jump\t// out\n        /* \"#utility.yul\":7289:8070   */\n    tag_154:\n        /* \"#utility.yul\":7406:7409   */\n      0x00\n        /* \"#utility.yul\":7442:7446   */\n      0x60\n        /* \"#utility.yul\":7437:7440   */\n      dup4\n        /* \"#utility.yul\":7433:7447   */\n      add\n        /* \"#utility.yul\":7527:7531   */\n      0x00\n        /* \"#utility.yul\":7520:7525   */\n      dup4\n        /* \"#utility.yul\":7516:7532   */\n      add\n        /* \"#utility.yul\":7510:7533   */\n      mload\n        /* \"#utility.yul\":7546:7609   */\n      tag_234\n        /* \"#utility.yul\":7603:7607   */\n      0x00\n        /* \"#utility.yul\":7598:7601   */\n      dup7\n        /* \"#utility.yul\":7594:7608   */\n      add\n        /* \"#utility.yul\":7580:7592   */\n      dup3\n        /* \"#utility.yul\":7546:7609   */\n      tag_147\n      jump\t// in\n    tag_234:\n        /* \"#utility.yul\":7457:7619   */\n      pop\n        /* \"#utility.yul\":7701:7705   */\n      0x20\n        /* \"#utility.yul\":7694:7699   */\n      dup4\n        /* \"#utility.yul\":7690:7706   */\n      add\n        /* \"#utility.yul\":7684:7707   */\n      mload\n        /* \"#utility.yul\":7754:7757   */\n      dup5\n        /* \"#utility.yul\":7748:7752   */\n      dup3\n        /* \"#utility.yul\":7744:7758   */\n      sub\n        /* \"#utility.yul\":7737:7741   */\n      0x20\n        /* \"#utility.yul\":7732:7735   */\n      dup7\n        /* \"#utility.yul\":7728:7742   */\n      add\n        /* \"#utility.yul\":7721:7759   */\n      mstore\n        /* \"#utility.yul\":7780:7853   */\n      tag_235\n        /* \"#utility.yul\":7848:7852   */\n      dup3\n        /* \"#utility.yul\":7834:7846   */\n      dup3\n        /* \"#utility.yul\":7780:7853   */\n      tag_149\n      jump\t// in\n    tag_235:\n        /* \"#utility.yul\":7772:7853   */\n      swap2\n      pop\n        /* \"#utility.yul\":7629:7864   */\n      pop\n        /* \"#utility.yul\":7951:7955   */\n      0x40\n        /* \"#utility.yul\":7944:7949   */\n      dup4\n        /* \"#utility.yul\":7940:7956   */\n      add\n        /* \"#utility.yul\":7934:7957   */\n      mload\n        /* \"#utility.yul\":7970:8033   */\n      tag_236\n        /* \"#utility.yul\":8027:8031   */\n      0x40\n        /* \"#utility.yul\":8022:8025   */\n      dup7\n        /* \"#utility.yul\":8018:8032   */\n      add\n        /* \"#utility.yul\":8004:8016   */\n      dup3\n        /* \"#utility.yul\":7970:8033   */\n      tag_147\n      jump\t// in\n    tag_236:\n        /* \"#utility.yul\":7874:8043   */\n      pop\n        /* \"#utility.yul\":8060:8064   */\n      dup1\n        /* \"#utility.yul\":8053:8064   */\n      swap2\n      pop\n        /* \"#utility.yul\":7411:8070   */\n      pop\n        /* \"#utility.yul\":7289:8070   */\n      swap3\n      swap2\n      pop\n      pop\n      jump\t// out\n        /* \"#utility.yul\":8076:8445   */\n    tag_42:\n        /* \"#utility.yul\":8217:8221   */\n      0x00\n        /* \"#utility.yul\":8255:8257   */\n      0x20\n        /* \"#utility.yul\":8244:8253   */\n      dup3\n        /* \"#utility.yul\":8240:8258   */\n      add\n        /* \"#utility.yul\":8232:8258   */\n      swap1\n      pop\n        /* \"#utility.yul\":8304:8313   */\n      dup2\n        /* \"#utility.yul\":8298:8302   */\n      dup2\n        /* \"#utility.yul\":8294:8314   */\n      sub\n        /* \"#utility.yul\":8290:8291   */\n      0x00\n        /* \"#utility.yul\":8279:8288   */\n      dup4\n        /* \"#utility.yul\":8275:8292   */\n      add\n        /* \"#utility.yul\":8268:8315   */\n      mstore\n        /* \"#utility.yul\":8332:8438   */\n      tag_238\n        /* \"#utility.yul\":8433:8437   */\n      dup2\n        /* \"#utility.yul\":8424:8430   */\n      dup5\n        /* \"#utility.yul\":8332:8438   */\n      tag_154\n      jump\t// in\n    tag_238:\n        /* \"#utility.yul\":8324:8438   */\n      swap1\n      pop\n        /* \"#utility.yul\":8076:8445   */\n      swap3\n      swap2\n      pop\n      pop\n      jump\t// out\n        /* \"#utility.yul\":8451:8577   */\n    tag_155:\n        /* \"#utility.yul\":8488:8495   */\n      0x00\n        /* \"#utility.yul\":8528:8570   */\n      0xffffffffffffffffffffffffffffffffffffffff\n        /* \"#utility.yul\":8521:8526   */\n      dup3\n        /* \"#utility.yul\":8517:8571   */\n      and\n        /* \"#utility.yul\":8506:8571   */\n      swap1\n      pop\n        /* \"#utility.yul\":8451:8577   */\n      swap2\n      swap1\n      pop\n      jump\t// out\n        /* \"#utility.yul\":8583:8679   */\n    tag_156:\n        /* \"#utility.yul\":8620:8627   */\n      0x00\n        /* \"#utility.yul\":8649:8673   */\n      tag_241\n        /* \"#utility.yul\":8667:8672   */\n      dup3\n        /* \"#utility.yul\":8649:8673   */\n      tag_155\n      jump\t// in\n    tag_241:\n        /* \"#utility.yul\":8638:8673   */\n      swap1\n      pop\n        /* \"#utility.yul\":8583:8679   */\n      swap2\n      swap1\n      pop\n      jump\t// out\n        /* \"#utility.yul\":8685:8807   */\n    tag_157:\n        /* \"#utility.yul\":8758:8782   */\n      tag_243\n        /* \"#utility.yul\":8776:8781   */\n      dup2\n        /* \"#utility.yul\":8758:8782   */\n      tag_156\n      jump\t// in\n    tag_243:\n        /* \"#utility.yul\":8751:8756   */\n      dup2\n        /* \"#utility.yul\":8748:8783   */\n      eq\n        /* \"#utility.yul\":8738:8801   */\n      tag_244\n      jumpi\n        /* \"#utility.yul\":8797:8798   */\n      0x00\n        /* \"#utility.yul\":8794:8795   */\n      dup1\n        /* \"#utility.yul\":8787:8799   */\n      revert\n        /* \"#utility.yul\":8738:8801   */\n    tag_244:\n        /* \"#utility.yul\":8685:8807   */\n      pop\n      jump\t// out\n        /* \"#utility.yul\":8813:8952   */\n    tag_158:\n        /* \"#utility.yul\":8859:8864   */\n      0x00\n        /* \"#utility.yul\":8897:8903   */\n      dup2\n        /* \"#utility.yul\":8884:8904   */\n      calldataload\n        /* \"#utility.yul\":8875:8904   */\n      swap1\n      pop\n        /* \"#utility.yul\":8913:8946   */\n      tag_246\n        /* \"#utility.yul\":8940:8945   */\n      dup2\n        /* \"#utility.yul\":8913:8946   */\n      tag_157\n      jump\t// in\n    tag_246:\n        /* \"#utility.yul\":8813:8952   */\n      swap3\n      swap2\n      pop\n      pop\n      jump\t// out\n        /* \"#utility.yul\":8958:9287   */\n    tag_48:\n        /* \"#utility.yul\":9017:9023   */\n      0x00\n        /* \"#utility.yul\":9066:9068   */\n      0x20\n        /* \"#utility.yul\":9054:9063   */\n      dup3\n        /* \"#utility.yul\":9045:9052   */\n      dup5\n        /* \"#utility.yul\":9041:9064   */\n      sub\n        /* \"#utility.yul\":9037:9069   */\n      slt\n        /* \"#utility.yul\":9034:9153   */\n      iszero\n      tag_248\n      jumpi\n        /* \"#utility.yul\":9072:9151   */\n      tag_249\n      tag_133\n      jump\t// in\n    tag_249:\n        /* \"#utility.yul\":9034:9153   */\n    tag_248:\n        /* \"#utility.yul\":9192:9193   */\n      0x00\n        /* \"#utility.yul\":9217:9270   */\n      tag_250\n        /* \"#utility.yul\":9262:9269   */\n      dup5\n        /* \"#utility.yul\":9253:9259   */\n      dup3\n        /* \"#utility.yul\":9242:9251   */\n      dup6\n        /* \"#utility.yul\":9238:9260   */\n      add\n        /* \"#utility.yul\":9217:9270   */\n      tag_158\n      jump\t// in\n    tag_250:\n        /* \"#utility.yul\":9207:9270   */\n      swap2\n      pop\n        /* \"#utility.yul\":9163:9280   */\n      pop\n        /* \"#utility.yul\":8958:9287   */\n      swap3\n      swap2\n      pop\n      pop\n      jump\t// out\n        /* \"#utility.yul\":9293:9383   */\n    tag_159:\n        /* \"#utility.yul\":9327:9334   */\n      0x00\n        /* \"#utility.yul\":9370:9375   */\n      dup2\n        /* \"#utility.yul\":9363:9376   */\n      iszero\n        /* \"#utility.yul\":9356:9377   */\n      iszero\n        /* \"#utility.yul\":9345:9377   */\n      swap1\n      pop\n        /* \"#utility.yul\":9293:9383   */\n      swap2\n      swap1\n      pop\n      jump\t// out\n        /* \"#utility.yul\":9389:9498   */\n    tag_160:\n        /* \"#utility.yul\":9470:9491   */\n      tag_253\n        /* \"#utility.yul\":9485:9490   */\n      dup2\n        /* \"#utility.yul\":9470:9491   */\n      tag_159\n      jump\t// in\n    tag_253:\n        /* \"#utility.yul\":9465:9468   */\n      dup3\n        /* \"#utility.yul\":9458:9492   */\n      mstore\n        /* \"#utility.yul\":9389:9498   */\n      pop\n      pop\n      jump\t// out\n        /* \"#utility.yul\":9504:9714   */\n    tag_51:\n        /* \"#utility.yul\":9591:9595   */\n      0x00\n        /* \"#utility.yul\":9629:9631   */\n      0x20\n        /* \"#utility.yul\":9618:9627   */\n      dup3\n        /* \"#utility.yul\":9614:9632   */\n      add\n        /* \"#utility.yul\":9606:9632   */\n      swap1\n      pop\n        /* \"#utility.yul\":9642:9707   */\n      tag_255\n        /* \"#utility.yul\":9704:9705   */\n      0x00\n        /* \"#utility.yul\":9693:9702   */\n      dup4\n        /* \"#utility.yul\":9689:9706   */\n      add\n        /* \"#utility.yul\":9680:9686   */\n      dup5\n        /* \"#utility.yul\":9642:9707   */\n      tag_160\n      jump\t// in\n    tag_255:\n        /* \"#utility.yul\":9504:9714   */\n      swap3\n      swap2\n      pop\n      pop\n      jump\t// out\n        /* \"#utility.yul\":9720:9941   */\n    tag_161:\n        /* \"#utility.yul\":9860:9894   */\n      0x566f74696e67206973206e6f7420616c6c6f7765642061742074686973207469\n        /* \"#utility.yul\":9856:9857   */\n      0x00\n        /* \"#utility.yul\":9848:9854   */\n      dup3\n        /* \"#utility.yul\":9844:9858   */\n      add\n        /* \"#utility.yul\":9837:9895   */\n      mstore\n        /* \"#utility.yul\":9929:9933   */\n      0x6d65000000000000000000000000000000000000000000000000000000000000\n        /* \"#utility.yul\":9924:9926   */\n      0x20\n        /* \"#utility.yul\":9916:9922   */\n      dup3\n        /* \"#utility.yul\":9912:9927   */\n      add\n        /* \"#utility.yul\":9905:9934   */\n      mstore\n        /* \"#utility.yul\":9720:9941   */\n      pop\n      jump\t// out\n        /* \"#utility.yul\":9947:10313   */\n    tag_162:\n        /* \"#utility.yul\":10089:10092   */\n      0x00\n        /* \"#utility.yul\":10110:10177   */\n      tag_258\n        /* \"#utility.yul\":10174:10176   */\n      0x22\n        /* \"#utility.yul\":10169:10172   */\n      dup4\n        /* \"#utility.yul\":10110:10177   */\n      tag_140\n      jump\t// in\n    tag_258:\n        /* \"#utility.yul\":10103:10177   */\n      swap2\n      pop\n        /* \"#utility.yul\":10186:10279   */\n      tag_259\n        /* \"#utility.yul\":10275:10278   */\n      dup3\n        /* \"#utility.yul\":10186:10279   */\n      tag_161\n      jump\t// in\n    tag_259:\n        /* \"#utility.yul\":10304:10306   */\n      0x40\n        /* \"#utility.yul\":10299:10302   */\n      dup3\n        /* \"#utility.yul\":10295:10307   */\n      add\n        /* \"#utility.yul\":10288:10307   */\n      swap1\n      pop\n        /* \"#utility.yul\":9947:10313   */\n      swap2\n      swap1\n      pop\n      jump\t// out\n        /* \"#utility.yul\":10319:10738   */\n    tag_59:\n        /* \"#utility.yul\":10485:10489   */\n      0x00\n        /* \"#utility.yul\":10523:10525   */\n      0x20\n        /* \"#utility.yul\":10512:10521   */\n      dup3\n        /* \"#utility.yul\":10508:10526   */\n      add\n        /* \"#utility.yul\":10500:10526   */\n      swap1\n      pop\n        /* \"#utility.yul\":10572:10581   */\n      dup2\n        /* \"#utility.yul\":10566:10570   */\n      dup2\n        /* \"#utility.yul\":10562:10582   */\n      sub\n        /* \"#utility.yul\":10558:10559   */\n      0x00\n        /* \"#utility.yul\":10547:10556   */\n      dup4\n        /* \"#utility.yul\":10543:10560   */\n      add\n        /* \"#utility.yul\":10536:10583   */\n      mstore\n        /* \"#utility.yul\":10600:10731   */\n      tag_261\n        /* \"#utility.yul\":10726:10730   */\n      dup2\n        /* \"#utility.yul\":10600:10731   */\n      tag_162\n      jump\t// in\n    tag_261:\n        /* \"#utility.yul\":10592:10731   */\n      swap1\n      pop\n        /* \"#utility.yul\":10319:10738   */\n      swap2\n      swap1\n      pop\n      jump\t// out\n        /* \"#utility.yul\":10744:10917   */\n    tag_163:\n        /* \"#utility.yul\":10884:10909   */\n      0x596f75206861766520616c726561647920766f74656421000000000000000000\n        /* \"#utility.yul\":10880:10881   */\n      0x00\n        /* \"#utility.yul\":10872:10878   */\n      dup3\n        /* \"#utility.yul\":10868:10882   */\n      add\n        /* \"#utility.yul\":10861:10910   */\n      mstore\n        /* \"#utility.yul\":10744:10917   */\n      pop\n      jump\t// out\n        /* \"#utility.yul\":10923:11289   */\n    tag_164:\n        /* \"#utility.yul\":11065:11068   */\n      0x00\n        /* \"#utility.yul\":11086:11153   */\n      tag_264\n        /* \"#utility.yul\":11150:11152   */\n      0x17\n        /* \"#utility.yul\":11145:11148   */\n      dup4\n        /* \"#utility.yul\":11086:11153   */\n      tag_140\n      jump\t// in\n    tag_264:\n        /* \"#utility.yul\":11079:11153   */\n      swap2\n      pop\n        /* \"#utility.yul\":11162:11255   */\n      tag_265\n        /* \"#utility.yul\":11251:11254   */\n      dup3\n        /* \"#utility.yul\":11162:11255   */\n      tag_163\n      jump\t// in\n    tag_265:\n        /* \"#utility.yul\":11280:11282   */\n      0x20\n        /* \"#utility.yul\":11275:11278   */\n      dup3\n        /* \"#utility.yul\":11271:11283   */\n      add\n        /* \"#utility.yul\":11264:11283   */\n      swap1\n      pop\n        /* \"#utility.yul\":10923:11289   */\n      swap2\n      swap1\n      pop\n      jump\t// out\n        /* \"#utility.yul\":11295:11714   */\n    tag_62:\n        /* \"#utility.yul\":11461:11465   */\n      0x00\n        /* \"#utility.yul\":11499:11501   */\n      0x20\n        /* \"#utility.yul\":11488:11497   */\n      dup3\n        /* \"#utility.yul\":11484:11502   */\n      add\n        /* \"#utility.yul\":11476:11502   */\n      swap1\n      pop\n        /* \"#utility.yul\":11548:11557   */\n      dup2\n        /* \"#utility.yul\":11542:11546   */\n      dup2\n        /* \"#utility.yul\":11538:11558   */\n      sub\n        /* \"#utility.yul\":11534:11535   */\n      0x00\n        /* \"#utility.yul\":11523:11532   */\n      dup4\n        /* \"#utility.yul\":11519:11536   */\n      add\n        /* \"#utility.yul\":11512:11559   */\n      mstore\n        /* \"#utility.yul\":11576:11707   */\n      tag_267\n        /* \"#utility.yul\":11702:11706   */\n      dup2\n        /* \"#utility.yul\":11576:11707   */\n      tag_164\n      jump\t// in\n    tag_267:\n        /* \"#utility.yul\":11568:11707   */\n      swap1\n      pop\n        /* \"#utility.yul\":11295:11714   */\n      swap2\n      swap1\n      pop\n      jump\t// out\n        /* \"#utility.yul\":11720:11896   */\n    tag_165:\n        /* \"#utility.yul\":11860:11888   */\n      0x596f75206861766520656e7472656420696e76616c6964204944000000000000\n        /* \"#utility.yul\":11856:11857   */\n      0x00\n        /* \"#utility.yul\":11848:11854   */\n      dup3\n        /* \"#utility.yul\":11844:11858   */\n      add\n        /* \"#utility.yul\":11837:11889   */\n      mstore\n        /* \"#utility.yul\":11720:11896   */\n      pop\n      jump\t// out\n        /* \"#utility.yul\":11902:12268   */\n    tag_166:\n        /* \"#utility.yul\":12044:12047   */\n      0x00\n        /* \"#utility.yul\":12065:12132   */\n      tag_270\n        /* \"#utility.yul\":12129:12131   */\n      0x1a\n        /* \"#utility.yul\":12124:12127   */\n      dup4\n        /* \"#utility.yul\":12065:12132   */\n      tag_140\n      jump\t// in\n    tag_270:\n        /* \"#utility.yul\":12058:12132   */\n      swap2\n      pop\n        /* \"#utility.yul\":12141:12234   */\n      tag_271\n        /* \"#utility.yul\":12230:12233   */\n      dup3\n        /* \"#utility.yul\":12141:12234   */\n      tag_165\n      jump\t// in\n    tag_271:\n        /* \"#utility.yul\":12259:12261   */\n      0x20\n        /* \"#utility.yul\":12254:12257   */\n      dup3\n        /* \"#utility.yul\":12250:12262   */\n      add\n        /* \"#utility.yul\":12243:12262   */\n      swap1\n      pop\n        /* \"#utility.yul\":11902:12268   */\n      swap2\n      swap1\n      pop\n      jump\t// out\n        /* \"#utility.yul\":12274:12693   */\n    tag_66:\n        /* \"#utility.yul\":12440:12444   */\n      0x00\n        /* \"#utility.yul\":12478:12480   */\n      0x20\n        /* \"#utility.yul\":12467:12476   */\n      dup3\n        /* \"#utility.yul\":12463:12481   */\n      add\n        /* \"#utility.yul\":12455:12481   */\n      swap1\n      pop\n        /* \"#utility.yul\":12527:12536   */\n      dup2\n        /* \"#utility.yul\":12521:12525   */\n      dup2\n        /* \"#utility.yul\":12517:12537   */\n      sub\n        /* \"#utility.yul\":12513:12514   */\n      0x00\n        /* \"#utility.yul\":12502:12511   */\n      dup4\n        /* \"#utility.yul\":12498:12515   */\n      add\n        /* \"#utility.yul\":12491:12538   */\n      mstore\n        /* \"#utility.yul\":12555:12686   */\n      tag_273\n        /* \"#utility.yul\":12681:12685   */\n      dup2\n        /* \"#utility.yul\":12555:12686   */\n      tag_166\n      jump\t// in\n    tag_273:\n        /* \"#utility.yul\":12547:12686   */\n      swap1\n      pop\n        /* \"#utility.yul\":12274:12693   */\n      swap2\n      swap1\n      pop\n      jump\t// out\n        /* \"#utility.yul\":12699:12879   */\n    tag_167:\n        /* \"#utility.yul\":12747:12824   */\n      0x4e487b7100000000000000000000000000000000000000000000000000000000\n        /* \"#utility.yul\":12744:12745   */\n      0x00\n        /* \"#utility.yul\":12737:12825   */\n      mstore\n        /* \"#utility.yul\":12844:12848   */\n      0x11\n        /* \"#utility.yul\":12841:12842   */\n      0x04\n        /* \"#utility.yul\":12834:12849   */\n      mstore\n        /* \"#utility.yul\":12868:12872   */\n      0x24\n        /* \"#utility.yul\":12865:12866   */\n      0x00\n        /* \"#utility.yul\":12858:12873   */\n      revert\n        /* \"#utility.yul\":12885:13118   */\n    tag_68:\n        /* \"#utility.yul\":12924:12927   */\n      0x00\n        /* \"#utility.yul\":12947:12971   */\n      tag_276\n        /* \"#utility.yul\":12965:12970   */\n      dup3\n        /* \"#utility.yul\":12947:12971   */\n      tag_135\n      jump\t// in\n    tag_276:\n        /* \"#utility.yul\":12938:12971   */\n      swap2\n      pop\n        /* \"#utility.yul\":12993:13059   */\n      0xffffffffffffffffffffffffffffffffffffffffffffffffffffffffffffffff\n        /* \"#utility.yul\":12986:12991   */\n      dup3\n        /* \"#utility.yul\":12983:13060   */\n      sub\n        /* \"#utility.yul\":12980:13083   */\n      tag_277\n      jumpi\n        /* \"#utility.yul\":13063:13081   */\n      tag_278\n      tag_167\n      jump\t// in\n    tag_278:\n        /* \"#utility.yul\":12980:13083   */\n    tag_277:\n        /* \"#utility.yul\":13110:13111   */\n      0x01\n        /* \"#utility.yul\":13103:13108   */\n      dup3\n        /* \"#utility.yul\":13099:13112   */\n      add\n        /* \"#utility.yul\":13092:13112   */\n      swap1\n      pop\n        /* \"#utility.yul\":12885:13118   */\n      swap2\n      swap1\n      pop\n      jump\t// out\n        /* \"#utility.yul\":13124:13304   */\n    tag_168:\n        /* \"#utility.yul\":13172:13249   */\n      0x4e487b7100000000000000000000000000000000000000000000000000000000\n        /* \"#utility.yul\":13169:13170   */\n      0x00\n        /* \"#utility.yul\":13162:13250   */\n      mstore\n        /* \"#utility.yul\":13269:13273   */\n      0x22\n        /* \"#utility.yul\":13266:13267   */\n      0x04\n        /* \"#utility.yul\":13259:13274   */\n      mstore\n        /* \"#utility.yul\":13293:13297   */\n      0x24\n        /* \"#utility.yul\":13290:13291   */\n      0x00\n        /* \"#utility.yul\":13283:13298   */\n      revert\n        /* \"#utility.yul\":13310:13630   */\n    tag_71:\n        /* \"#utility.yul\":13354:13360   */\n      0x00\n        /* \"#utility.yul\":13391:13392   */\n      0x02\n        /* \"#utility.yul\":13385:13389   */\n      dup3\n        /* \"#utility.yul\":13381:13393   */\n      div\n        /* \"#utility.yul\":13371:13393   */\n      swap1\n      pop\n        /* \"#utility.yul\":13438:13439   */\n      0x01\n        /* \"#utility.yul\":13432:13436   */\n      dup3\n        /* \"#utility.yul\":13428:13440   */\n      and\n        /* \"#utility.yul\":13459:13477   */\n      dup1\n        /* \"#utility.yul\":13449:13530   */\n      tag_281\n      jumpi\n        /* \"#utility.yul\":13515:13519   */\n      0x7f\n        /* \"#utility.yul\":13507:13513   */\n      dup3\n        /* \"#utility.yul\":13503:13520   */\n      and\n        /* \"#utility.yul\":13493:13520   */\n      swap2\n      pop\n        /* \"#utility.yul\":13449:13530   */\n    tag_281:\n        /* \"#utility.yul\":13577:13579   */\n      0x20\n        /* \"#utility.yul\":13569:13575   */\n      dup3\n        /* \"#utility.yul\":13566:13580   */\n      lt\n        /* \"#utility.yul\":13546:13564   */\n      dup2\n        /* \"#utility.yul\":13543:13581   */\n      sub\n        /* \"#utility.yul\":13540:13624   */\n      tag_282\n      jumpi\n        /* \"#utility.yul\":13596:13614   */\n      tag_283\n      tag_168\n      jump\t// in\n    tag_283:\n        /* \"#utility.yul\":13540:13624   */\n    tag_282:\n        /* \"#utility.yul\":13361:13630   */\n      pop\n        /* \"#utility.yul\":13310:13630   */\n      swap2\n      swap1\n      pop\n      jump\t// out\n        /* \"#utility.yul\":13636:13816   */\n    tag_79:\n        /* \"#utility.yul\":13684:13761   */\n      0x4e487b7100000000000000000000000000000000000000000000000000000000\n        /* \"#utility.yul\":13681:13682   */\n      0x00\n        /* \"#utility.yul\":13674:13762   */\n      mstore\n        /* \"#utility.yul\":13781:13785   */\n      0x41\n        /* \"#utility.yul\":13778:13779   */\n      0x04\n        /* \"#utility.yul\":13771:13786   */\n      mstore\n        /* \"#utility.yul\":13805:13809   */\n      0x24\n        /* \"#utility.yul\":13802:13803   */\n      0x00\n        /* \"#utility.yul\":13795:13810   */\n      revert\n        /* \"#utility.yul\":13822:14016   */\n    tag_93:\n        /* \"#utility.yul\":13862:13866   */\n      0x00\n        /* \"#utility.yul\":13882:13902   */\n      tag_286\n        /* \"#utility.yul\":13900:13901   */\n      dup3\n        /* \"#utility.yul\":13882:13902   */\n      tag_135\n      jump\t// in\n    tag_286:\n        /* \"#utility.yul\":13877:13902   */\n      swap2\n      pop\n        /* \"#utility.yul\":13916:13936   */\n      tag_287\n        /* \"#utility.yul\":13934:13935   */\n      dup4\n        /* \"#utility.yul\":13916:13936   */\n      tag_135\n      jump\t// in\n    tag_287:\n        /* \"#utility.yul\":13911:13936   */\n      swap3\n      pop\n        /* \"#utility.yul\":13960:13961   */\n      dup3\n        /* \"#utility.yul\":13957:13958   */\n      dup3\n        /* \"#utility.yul\":13953:13962   */\n      sub\n        /* \"#utility.yul\":13945:13962   */\n      swap1\n      pop\n        /* \"#utility.yul\":13984:13985   */\n      dup2\n        /* \"#utility.yul\":13978:13982   */\n      dup2\n        /* \"#utility.yul\":13975:13986   */\n      gt\n        /* \"#utility.yul\":13972:14009   */\n      iszero\n      tag_288\n      jumpi\n        /* \"#utility.yul\":13989:14007   */\n      tag_289\n      tag_167\n      jump\t// in\n    tag_289:\n        /* \"#utility.yul\":13972:14009   */\n    tag_288:\n        /* \"#utility.yul\":13822:14016   */\n      swap3\n      swap2\n      pop\n      pop\n      jump\t// out\n        /* \"#utility.yul\":14022:14202   */\n    tag_96:\n        /* \"#utility.yul\":14070:14147   */\n      0x4e487b7100000000000000000000000000000000000000000000000000000000\n        /* \"#utility.yul\":14067:14068   */\n      0x00\n        /* \"#utility.yul\":14060:14148   */\n      mstore\n        /* \"#utility.yul\":14167:14171   */\n      0x32\n        /* \"#utility.yul\":14164:14165   */\n      0x04\n        /* \"#utility.yul\":14157:14172   */\n      mstore\n        /* \"#utility.yul\":14191:14195   */\n      0x24\n        /* \"#utility.yul\":14188:14189   */\n      0x00\n        /* \"#utility.yul\":14181:14196   */\n      revert\n        /* \"#utility.yul\":14208:14368   */\n    tag_169:\n        /* \"#utility.yul\":14348:14360   */\n      0x496e76616c696420494400000000000000000000000000000000000000000000\n        /* \"#utility.yul\":14344:14345   */\n      0x00\n        /* \"#utility.yul\":14336:14342   */\n      dup3\n        /* \"#utility.yul\":14332:14346   */\n      add\n        /* \"#utility.yul\":14325:14361   */\n      mstore\n        /* \"#utility.yul\":14208:14368   */\n      pop\n      jump\t// out\n        /* \"#utility.yul\":14374:14740   */\n    tag_170:\n        /* \"#utility.yul\":14516:14519   */\n      0x00\n        /* \"#utility.yul\":14537:14604   */\n      tag_293\n        /* \"#utility.yul\":14601:14603   */\n      0x0a\n        /* \"#utility.yul\":14596:14599   */\n      dup4\n        /* \"#utility.yul\":14537:14604   */\n      tag_140\n      jump\t// in\n    tag_293:\n        /* \"#utility.yul\":14530:14604   */\n      swap2\n      pop\n        /* \"#utility.yul\":14613:14706   */\n      tag_294\n        /* \"#utility.yul\":14702:14705   */\n      dup3\n        /* \"#utility.yul\":14613:14706   */\n      tag_169\n      jump\t// in\n    tag_294:\n        /* \"#utility.yul\":14731:14733   */\n      0x20\n        /* \"#utility.yul\":14726:14729   */\n      dup3\n        /* \"#utility.yul\":14722:14734   */\n      add\n        /* \"#utility.yul\":14715:14734   */\n      swap1\n      pop\n        /* \"#utility.yul\":14374:14740   */\n      swap2\n      swap1\n      pop\n      jump\t// out\n        /* \"#utility.yul\":14746:15165   */\n    tag_115:\n        /* \"#utility.yul\":14912:14916   */\n      0x00\n        /* \"#utility.yul\":14950:14952   */\n      0x20\n        /* \"#utility.yul\":14939:14948   */\n      dup3\n        /* \"#utility.yul\":14935:14953   */\n      add\n        /* \"#utility.yul\":14927:14953   */\n      swap1\n      pop\n        /* \"#utility.yul\":14999:15008   */\n      dup2\n        /* \"#utility.yul\":14993:14997   */\n      dup2\n        /* \"#utility.yul\":14989:15009   */\n      sub\n        /* \"#utility.yul\":14985:14986   */\n      0x00\n        /* \"#utility.yul\":14974:14983   */\n      dup4\n        /* \"#utility.yul\":14970:14987   */\n      add\n        /* \"#utility.yul\":14963:15010   */\n      mstore\n        /* \"#utility.yul\":15027:15158   */\n      tag_296\n        /* \"#utility.yul\":15153:15157   */\n      dup2\n        /* \"#utility.yul\":15027:15158   */\n      tag_170\n      jump\t// in\n    tag_296:\n        /* \"#utility.yul\":15019:15158   */\n      swap1\n      pop\n        /* \"#utility.yul\":14746:15165   */\n      swap2\n      swap1\n      pop\n      jump\t// out\n\n    auxdata: 0xa264697066735822122020b2be1dc9dd9d42bfe74ed63b2fc000b50afd44f27b527d6a76a1f8e780cbf764736f6c634300081a0033\n}\n",
				"bytecode": {
					"linkReferences": {},
					"object": "60806040525f600255348015610013575f80fd5b506040516116a53803806116a583398181016040528101906100359190610195565b42600381905550603c8161004991906101ed565b600354610056919061022e565b6004819055506100a06040518060400160405280600381526020017f426f6200000000000000000000000000000000000000000000000000000000008152506100ea60201b60201c565b6100e46040518060400160405280600581526020017f416c6963650000000000000000000000000000000000000000000000000000008152506100ea60201b60201c565b506105a8565b60025f8154809291906100fc90610261565b9190505550604051806060016040528060025481526020018281526020015f8152505f8060025481526020019081526020015f205f820151815f0155602082015181600101908161014d91906104d9565b506040820151816002015590505050565b5f80fd5b5f819050919050565b61017481610162565b811461017e575f80fd5b50565b5f8151905061018f8161016b565b92915050565b5f602082840312156101aa576101a961015e565b5b5f6101b784828501610181565b91505092915050565b7f4e487b71000000000000000000000000000000000000000000000000000000005f52601160045260245ffd5b5f6101f782610162565b915061020283610162565b925082820261021081610162565b91508282048414831517610227576102266101c0565b5b5092915050565b5f61023882610162565b915061024383610162565b925082820190508082111561025b5761025a6101c0565b5b92915050565b5f61026b82610162565b91507fffffffffffffffffffffffffffffffffffffffffffffffffffffffffffffffff820361029d5761029c6101c0565b5b600182019050919050565b5f81519050919050565b7f4e487b71000000000000000000000000000000000000000000000000000000005f52604160045260245ffd5b7f4e487b71000000000000000000000000000000000000000000000000000000005f52602260045260245ffd5b5f600282049050600182168061032357607f821691505b602082108103610336576103356102df565b5b50919050565b5f819050815f5260205f209050919050565b5f6020601f8301049050919050565b5f82821b905092915050565b5f600883026103987fffffffffffffffffffffffffffffffffffffffffffffffffffffffffffffffff8261035d565b6103a2868361035d565b95508019841693508086168417925050509392505050565b5f819050919050565b5f6103dd6103d86103d384610162565b6103ba565b610162565b9050919050565b5f819050919050565b6103f6836103c3565b61040a610402826103e4565b848454610369565b825550505050565b5f90565b61041e610412565b6104298184846103ed565b505050565b5b8181101561044c576104415f82610416565b60018101905061042f565b5050565b601f821115610491576104628161033c565b61046b8461034e565b8101602085101561047a578190505b61048e6104868561034e565b83018261042e565b50505b505050565b5f82821c905092915050565b5f6104b15f1984600802610496565b1980831691505092915050565b5f6104c983836104a2565b9150826002028217905092915050565b6104e2826102a8565b67ffffffffffffffff8111156104fb576104fa6102b2565b5b610505825461030c565b610510828285610450565b5f60209050601f831160018114610541575f841561052f578287015190505b61053985826104be565b8655506105a0565b601f19841661054f8661033c565b5f5b8281101561057657848901518255600182019150602085019450602081019050610551565b86831015610593578489015161058f601f8916826104a2565b8355505b6001600288020188555050505b505050505050565b6110f0806105b55f395ff3fe608060405234801561000f575f80fd5b506004361061009c575f3560e01c80638e7ea5b2116100645780638e7ea5b21461014857806395f8502214610166578063a9a981a314610196578063af0dbe54146101b4578063e868ba70146101e45761009c565b80630121b93f146100a05780631de43c4b146100bc5780632e6997fe146100ee5780633197cbb61461010c57806378e979251461012a575b5f80fd5b6100ba60048036038101906100b591906109d3565b610202565b005b6100d660048036038101906100d191906109d3565b6103e5565b6040516100e593929190610a7d565b60405180910390f35b6100f6610490565b6040516101039190610c18565b60405180910390f35b6101146105fd565b6040516101219190610c38565b60405180910390f35b610132610603565b60405161013f9190610c38565b60405180910390f35b610150610609565b60405161015d9190610c51565b60405180910390f35b610180600480360381019061017b91906109d3565b61073e565b60405161018d9190610cbe565b60405180910390f35b61019e61085d565b6040516101ab9190610c38565b60405180910390f35b6101ce60048036038101906101c99190610d38565b610863565b6040516101db9190610d7d565b60405180910390f35b6101ec610880565b6040516101f99190610c51565b60405180910390f35b600454421115801561021657506003544210155b610255576040517f08c379a000000000000000000000000000000000000000000000000000000000815260040161024c90610e06565b60405180910390fd5b60015f3373ffffffffffffffffffffffffffffffffffffffff1673ffffffffffffffffffffffffffffffffffffffff1681526020019081526020015f205f9054906101000a900460ff16156102df576040517f08c379a00000000000000000000000000000000000000000000000000000000081526004016102d690610e6e565b60405180910390fd5b5f811180156102f057506002548111155b61032f576040517f08c379a000000000000000000000000000000000000000000000000000000000815260040161032690610ed6565b60405180910390fd5b6001805f3373ffffffffffffffffffffffffffffffffffffffff1673ffffffffffffffffffffffffffffffffffffffff1681526020019081526020015f205f6101000a81548160ff0219169083151502179055505f808281526020019081526020015f206002015f8154809291906103a690610f21565b91905055507fc00232df16a35660dbcdde113a8565e8848dc6202169f47b8f35e8c2511d40bc816040516103da9190610c38565b60405180910390a150565b5f602052805f5260405f205f91509050805f01549080600101805461040990610f95565b80601f016020809104026020016040519081016040528092919081815260200182805461043590610f95565b80156104805780601f1061045757610100808354040283529160200191610480565b820191905f5260205f20905b81548152906001019060200180831161046357829003601f168201915b5050505050908060020154905083565b60605f60025467ffffffffffffffff8111156104af576104ae610fc5565b5b6040519080825280602002602001820160405280156104e857816020015b6104d561097d565b8152602001906001900390816104cd5790505b5090505f600190505b60025481116105f5575f808281526020019081526020015f206040518060600160405290815f820154815260200160018201805461052e90610f95565b80601f016020809104026020016040519081016040528092919081815260200182805461055a90610f95565b80156105a55780601f1061057c576101008083540402835291602001916105a5565b820191905f5260205f20905b81548152906001019060200180831161058857829003601f168201915b50505050508152602001600282015481525050826001836105c69190610ff2565b815181106105d7576105d6611025565b5b602002602001018190525080806105ed90610f21565b9150506104f1565b508091505090565b60045481565b60035481565b60605f8060405180602001604052805f81525090505f600190505b600254811161073757825f808381526020019081526020015f20600201541115610688576040518060400160405280600e81526020017f4e6f2077696e6e65722079657421000000000000000000000000000000000000815250935050505061073b565b5f808281526020019081526020015f2060010180546106a690610f95565b80601f01602080910402602001604051908101604052809291908181526020018280546106d290610f95565b801561071d5780601f106106f45761010080835404028352916020019161071d565b820191905f5260205f20905b81548152906001019060200180831161070057829003601f168201915b50505050509150808061072f90610f21565b915050610624565b5050505b90565b61074661097d565b5f8211801561075757506002548211155b610796576040517f08c379a000000000000000000000000000000000000000000000000000000000815260040161078d9061109c565b60405180910390fd5b5f805f8481526020019081526020015f206040518060600160405290815f82015481526020016001820180546107cb90610f95565b80601f01602080910402602001604051908101604052809291908181526020018280546107f790610f95565b80156108425780601f1061081957610100808354040283529160200191610842565b820191905f5260205f20905b81548152906001019060200180831161082557829003601f168201915b50505050508152602001600282015481525050905050919050565b60025481565b6001602052805f5260405f205f915054906101000a900460ff1681565b60605f805f600190505b60025481116108db57825f808381526020019081526020015f206002015411156108c8575f808281526020019081526020015f206002015492508091505b80806108d390610f21565b91505061088a565b505f808281526020019081526020015f2060010180546108fa90610f95565b80601f016020809104026020016040519081016040528092919081815260200182805461092690610f95565b80156109715780601f1061094857610100808354040283529160200191610971565b820191905f5260205f20905b81548152906001019060200180831161095457829003601f168201915b50505050509250505090565b60405180606001604052805f8152602001606081526020015f81525090565b5f80fd5b5f819050919050565b6109b2816109a0565b81146109bc575f80fd5b50565b5f813590506109cd816109a9565b92915050565b5f602082840312156109e8576109e761099c565b5b5f6109f5848285016109bf565b91505092915050565b610a07816109a0565b82525050565b5f81519050919050565b5f82825260208201905092915050565b8281835e5f83830152505050565b5f601f19601f8301169050919050565b5f610a4f82610a0d565b610a598185610a17565b9350610a69818560208601610a27565b610a7281610a35565b840191505092915050565b5f606082019050610a905f8301866109fe565b8181036020830152610aa28185610a45565b9050610ab160408301846109fe565b949350505050565b5f81519050919050565b5f82825260208201905092915050565b5f819050602082019050919050565b610aeb816109a0565b82525050565b5f82825260208201905092915050565b5f610b0b82610a0d565b610b158185610af1565b9350610b25818560208601610a27565b610b2e81610a35565b840191505092915050565b5f606083015f830151610b4e5f860182610ae2565b5060208301518482036020860152610b668282610b01565b9150506040830151610b7b6040860182610ae2565b508091505092915050565b5f610b918383610b39565b905092915050565b5f602082019050919050565b5f610baf82610ab9565b610bb98185610ac3565b935083602082028501610bcb85610ad3565b805f5b85811015610c065784840389528151610be78582610b86565b9450610bf283610b99565b925060208a01995050600181019050610bce565b50829750879550505050505092915050565b5f6020820190508181035f830152610c308184610ba5565b905092915050565b5f602082019050610c4b5f8301846109fe565b92915050565b5f6020820190508181035f830152610c698184610a45565b905092915050565b5f606083015f830151610c865f860182610ae2565b5060208301518482036020860152610c9e8282610b01565b9150506040830151610cb36040860182610ae2565b508091505092915050565b5f6020820190508181035f830152610cd68184610c71565b905092915050565b5f73ffffffffffffffffffffffffffffffffffffffff82169050919050565b5f610d0782610cde565b9050919050565b610d1781610cfd565b8114610d21575f80fd5b50565b5f81359050610d3281610d0e565b92915050565b5f60208284031215610d4d57610d4c61099c565b5b5f610d5a84828501610d24565b91505092915050565b5f8115159050919050565b610d7781610d63565b82525050565b5f602082019050610d905f830184610d6e565b92915050565b7f566f74696e67206973206e6f7420616c6c6f77656420617420746869732074695f8201527f6d65000000000000000000000000000000000000000000000000000000000000602082015250565b5f610df0602283610a17565b9150610dfb82610d96565b604082019050919050565b5f6020820190508181035f830152610e1d81610de4565b9050919050565b7f596f75206861766520616c726561647920766f746564210000000000000000005f82015250565b5f610e58601783610a17565b9150610e6382610e24565b602082019050919050565b5f6020820190508181035f830152610e8581610e4c565b9050919050565b7f596f75206861766520656e7472656420696e76616c69642049440000000000005f82015250565b5f610ec0601a83610a17565b9150610ecb82610e8c565b602082019050919050565b5f6020820190508181035f830152610eed81610eb4565b9050919050565b7f4e487b71000000000000000000000000000000000000000000000000000000005f52601160045260245ffd5b5f610f2b826109a0565b91507fffffffffffffffffffffffffffffffffffffffffffffffffffffffffffffffff8203610f5d57610f5c610ef4565b5b600182019050919050565b7f4e487b71000000000000000000000000000000000000000000000000000000005f52602260045260245ffd5b5f6002820490506001821680610fac57607f821691505b602082108103610fbf57610fbe610f68565b5b50919050565b7f4e487b71000000000000000000000000000000000000000000000000000000005f52604160045260245ffd5b5f610ffc826109a0565b9150611007836109a0565b925082820390508181111561101f5761101e610ef4565b5b92915050565b7f4e487b71000000000000000000000000000000000000000000000000000000005f52603260045260245ffd5b7f496e76616c6964204944000000000000000000000000000000000000000000005f82015250565b5f611086600a83610a17565b915061109182611052565b602082019050919050565b5f6020820190508181035f8301526110b38161107a565b905091905056fea264697066735822122020b2be1dc9dd9d42bfe74ed63b2fc000b50afd44f27b527d6a76a1f8e780cbf764736f6c634300081a0033",
					"opcodes": "PUSH1 0x80 PUSH1 0x40 MSTORE PUSH0 PUSH1 0x2 SSTORE CALLVALUE DUP1 ISZERO PUSH2 0x13 JUMPI PUSH0 DUP1 REVERT JUMPDEST POP PUSH1 0x40 MLOAD PUSH2 0x16A5 CODESIZE SUB DUP1 PUSH2 0x16A5 DUP4 CODECOPY DUP2 DUP2 ADD PUSH1 0x40 MSTORE DUP2 ADD SWAP1 PUSH2 0x35 SWAP2 SWAP1 PUSH2 0x195 JUMP JUMPDEST TIMESTAMP PUSH1 0x3 DUP2 SWAP1 SSTORE POP PUSH1 0x3C DUP2 PUSH2 0x49 SWAP2 SWAP1 PUSH2 0x1ED JUMP JUMPDEST PUSH1 0x3 SLOAD PUSH2 0x56 SWAP2 SWAP1 PUSH2 0x22E JUMP JUMPDEST PUSH1 0x4 DUP2 SWAP1 SSTORE POP PUSH2 0xA0 PUSH1 0x40 MLOAD DUP1 PUSH1 0x40 ADD PUSH1 0x40 MSTORE DUP1 PUSH1 0x3 DUP2 MSTORE PUSH1 0x20 ADD PUSH32 0x426F620000000000000000000000000000000000000000000000000000000000 DUP2 MSTORE POP PUSH2 0xEA PUSH1 0x20 SHL PUSH1 0x20 SHR JUMP JUMPDEST PUSH2 0xE4 PUSH1 0x40 MLOAD DUP1 PUSH1 0x40 ADD PUSH1 0x40 MSTORE DUP1 PUSH1 0x5 DUP2 MSTORE PUSH1 0x20 ADD PUSH32 0x416C696365000000000000000000000000000000000000000000000000000000 DUP2 MSTORE POP PUSH2 0xEA PUSH1 0x20 SHL PUSH1 0x20 SHR JUMP JUMPDEST POP PUSH2 0x5A8 JUMP JUMPDEST PUSH1 0x2 PUSH0 DUP2 SLOAD DUP1 SWAP3 SWAP2 SWAP1 PUSH2 0xFC SWAP1 PUSH2 0x261 JUMP JUMPDEST SWAP2 SWAP1 POP SSTORE POP PUSH1 0x40 MLOAD DUP1 PUSH1 0x60 ADD PUSH1 0x40 MSTORE DUP1 PUSH1 0x2 SLOAD DUP2 MSTORE PUSH1 0x20 ADD DUP3 DUP2 MSTORE PUSH1 0x20 ADD PUSH0 DUP2 MSTORE POP PUSH0 DUP1 PUSH1 0x2 SLOAD DUP2 MSTORE PUSH1 0x20 ADD SWAP1 DUP2 MSTORE PUSH1 0x20 ADD PUSH0 KECCAK256 PUSH0 DUP3 ADD MLOAD DUP2 PUSH0 ADD SSTORE PUSH1 0x20 DUP3 ADD MLOAD DUP2 PUSH1 0x1 ADD SWAP1 DUP2 PUSH2 0x14D SWAP2 SWAP1 PUSH2 0x4D9 JUMP JUMPDEST POP PUSH1 0x40 DUP3 ADD MLOAD DUP2 PUSH1 0x2 ADD SSTORE SWAP1 POP POP POP JUMP JUMPDEST PUSH0 DUP1 REVERT JUMPDEST PUSH0 DUP2 SWAP1 POP SWAP2 SWAP1 POP JUMP JUMPDEST PUSH2 0x174 DUP2 PUSH2 0x162 JUMP JUMPDEST DUP2 EQ PUSH2 0x17E JUMPI PUSH0 DUP1 REVERT JUMPDEST POP JUMP JUMPDEST PUSH0 DUP2 MLOAD SWAP1 POP PUSH2 0x18F DUP2 PUSH2 0x16B JUMP JUMPDEST SWAP3 SWAP2 POP POP JUMP JUMPDEST PUSH0 PUSH1 0x20 DUP3 DUP5 SUB SLT ISZERO PUSH2 0x1AA JUMPI PUSH2 0x1A9 PUSH2 0x15E JUMP JUMPDEST JUMPDEST PUSH0 PUSH2 0x1B7 DUP5 DUP3 DUP6 ADD PUSH2 0x181 JUMP JUMPDEST SWAP2 POP POP SWAP3 SWAP2 POP POP JUMP JUMPDEST PUSH32 0x4E487B7100000000000000000000000000000000000000000000000000000000 PUSH0 MSTORE PUSH1 0x11 PUSH1 0x4 MSTORE PUSH1 0x24 PUSH0 REVERT JUMPDEST PUSH0 PUSH2 0x1F7 DUP3 PUSH2 0x162 JUMP JUMPDEST SWAP2 POP PUSH2 0x202 DUP4 PUSH2 0x162 JUMP JUMPDEST SWAP3 POP DUP3 DUP3 MUL PUSH2 0x210 DUP2 PUSH2 0x162 JUMP JUMPDEST SWAP2 POP DUP3 DUP3 DIV DUP5 EQ DUP4 ISZERO OR PUSH2 0x227 JUMPI PUSH2 0x226 PUSH2 0x1C0 JUMP JUMPDEST JUMPDEST POP SWAP3 SWAP2 POP POP JUMP JUMPDEST PUSH0 PUSH2 0x238 DUP3 PUSH2 0x162 JUMP JUMPDEST SWAP2 POP PUSH2 0x243 DUP4 PUSH2 0x162 JUMP JUMPDEST SWAP3 POP DUP3 DUP3 ADD SWAP1 POP DUP1 DUP3 GT ISZERO PUSH2 0x25B JUMPI PUSH2 0x25A PUSH2 0x1C0 JUMP JUMPDEST JUMPDEST SWAP3 SWAP2 POP POP JUMP JUMPDEST PUSH0 PUSH2 0x26B DUP3 PUSH2 0x162 JUMP JUMPDEST SWAP2 POP PUSH32 0xFFFFFFFFFFFFFFFFFFFFFFFFFFFFFFFFFFFFFFFFFFFFFFFFFFFFFFFFFFFFFFFF DUP3 SUB PUSH2 0x29D JUMPI PUSH2 0x29C PUSH2 0x1C0 JUMP JUMPDEST JUMPDEST PUSH1 0x1 DUP3 ADD SWAP1 POP SWAP2 SWAP1 POP JUMP JUMPDEST PUSH0 DUP2 MLOAD SWAP1 POP SWAP2 SWAP1 POP JUMP JUMPDEST PUSH32 0x4E487B7100000000000000000000000000000000000000000000000000000000 PUSH0 MSTORE PUSH1 0x41 PUSH1 0x4 MSTORE PUSH1 0x24 PUSH0 REVERT JUMPDEST PUSH32 0x4E487B7100000000000000000000000000000000000000000000000000000000 PUSH0 MSTORE PUSH1 0x22 PUSH1 0x4 MSTORE PUSH1 0x24 PUSH0 REVERT JUMPDEST PUSH0 PUSH1 0x2 DUP3 DIV SWAP1 POP PUSH1 0x1 DUP3 AND DUP1 PUSH2 0x323 JUMPI PUSH1 0x7F DUP3 AND SWAP2 POP JUMPDEST PUSH1 0x20 DUP3 LT DUP2 SUB PUSH2 0x336 JUMPI PUSH2 0x335 PUSH2 0x2DF JUMP JUMPDEST JUMPDEST POP SWAP2 SWAP1 POP JUMP JUMPDEST PUSH0 DUP2 SWAP1 POP DUP2 PUSH0 MSTORE PUSH1 0x20 PUSH0 KECCAK256 SWAP1 POP SWAP2 SWAP1 POP JUMP JUMPDEST PUSH0 PUSH1 0x20 PUSH1 0x1F DUP4 ADD DIV SWAP1 POP SWAP2 SWAP1 POP JUMP JUMPDEST PUSH0 DUP3 DUP3 SHL SWAP1 POP SWAP3 SWAP2 POP POP JUMP JUMPDEST PUSH0 PUSH1 0x8 DUP4 MUL PUSH2 0x398 PUSH32 0xFFFFFFFFFFFFFFFFFFFFFFFFFFFFFFFFFFFFFFFFFFFFFFFFFFFFFFFFFFFFFFFF DUP3 PUSH2 0x35D JUMP JUMPDEST PUSH2 0x3A2 DUP7 DUP4 PUSH2 0x35D JUMP JUMPDEST SWAP6 POP DUP1 NOT DUP5 AND SWAP4 POP DUP1 DUP7 AND DUP5 OR SWAP3 POP POP POP SWAP4 SWAP3 POP POP POP JUMP JUMPDEST PUSH0 DUP2 SWAP1 POP SWAP2 SWAP1 POP JUMP JUMPDEST PUSH0 PUSH2 0x3DD PUSH2 0x3D8 PUSH2 0x3D3 DUP5 PUSH2 0x162 JUMP JUMPDEST PUSH2 0x3BA JUMP JUMPDEST PUSH2 0x162 JUMP JUMPDEST SWAP1 POP SWAP2 SWAP1 POP JUMP JUMPDEST PUSH0 DUP2 SWAP1 POP SWAP2 SWAP1 POP JUMP JUMPDEST PUSH2 0x3F6 DUP4 PUSH2 0x3C3 JUMP JUMPDEST PUSH2 0x40A PUSH2 0x402 DUP3 PUSH2 0x3E4 JUMP JUMPDEST DUP5 DUP5 SLOAD PUSH2 0x369 JUMP JUMPDEST DUP3 SSTORE POP POP POP POP JUMP JUMPDEST PUSH0 SWAP1 JUMP JUMPDEST PUSH2 0x41E PUSH2 0x412 JUMP JUMPDEST PUSH2 0x429 DUP2 DUP5 DUP5 PUSH2 0x3ED JUMP JUMPDEST POP POP POP JUMP JUMPDEST JUMPDEST DUP2 DUP2 LT ISZERO PUSH2 0x44C JUMPI PUSH2 0x441 PUSH0 DUP3 PUSH2 0x416 JUMP JUMPDEST PUSH1 0x1 DUP2 ADD SWAP1 POP PUSH2 0x42F JUMP JUMPDEST POP POP JUMP JUMPDEST PUSH1 0x1F DUP3 GT ISZERO PUSH2 0x491 JUMPI PUSH2 0x462 DUP2 PUSH2 0x33C JUMP JUMPDEST PUSH2 0x46B DUP5 PUSH2 0x34E JUMP JUMPDEST DUP2 ADD PUSH1 0x20 DUP6 LT ISZERO PUSH2 0x47A JUMPI DUP2 SWAP1 POP JUMPDEST PUSH2 0x48E PUSH2 0x486 DUP6 PUSH2 0x34E JUMP JUMPDEST DUP4 ADD DUP3 PUSH2 0x42E JUMP JUMPDEST POP POP JUMPDEST POP POP POP JUMP JUMPDEST PUSH0 DUP3 DUP3 SHR SWAP1 POP SWAP3 SWAP2 POP POP JUMP JUMPDEST PUSH0 PUSH2 0x4B1 PUSH0 NOT DUP5 PUSH1 0x8 MUL PUSH2 0x496 JUMP JUMPDEST NOT DUP1 DUP4 AND SWAP2 POP POP SWAP3 SWAP2 POP POP JUMP JUMPDEST PUSH0 PUSH2 0x4C9 DUP4 DUP4 PUSH2 0x4A2 JUMP JUMPDEST SWAP2 POP DUP3 PUSH1 0x2 MUL DUP3 OR SWAP1 POP SWAP3 SWAP2 POP POP JUMP JUMPDEST PUSH2 0x4E2 DUP3 PUSH2 0x2A8 JUMP JUMPDEST PUSH8 0xFFFFFFFFFFFFFFFF DUP2 GT ISZERO PUSH2 0x4FB JUMPI PUSH2 0x4FA PUSH2 0x2B2 JUMP JUMPDEST JUMPDEST PUSH2 0x505 DUP3 SLOAD PUSH2 0x30C JUMP JUMPDEST PUSH2 0x510 DUP3 DUP3 DUP6 PUSH2 0x450 JUMP JUMPDEST PUSH0 PUSH1 0x20 SWAP1 POP PUSH1 0x1F DUP4 GT PUSH1 0x1 DUP2 EQ PUSH2 0x541 JUMPI PUSH0 DUP5 ISZERO PUSH2 0x52F JUMPI DUP3 DUP8 ADD MLOAD SWAP1 POP JUMPDEST PUSH2 0x539 DUP6 DUP3 PUSH2 0x4BE JUMP JUMPDEST DUP7 SSTORE POP PUSH2 0x5A0 JUMP JUMPDEST PUSH1 0x1F NOT DUP5 AND PUSH2 0x54F DUP7 PUSH2 0x33C JUMP JUMPDEST PUSH0 JUMPDEST DUP3 DUP2 LT ISZERO PUSH2 0x576 JUMPI DUP5 DUP10 ADD MLOAD DUP3 SSTORE PUSH1 0x1 DUP3 ADD SWAP2 POP PUSH1 0x20 DUP6 ADD SWAP5 POP PUSH1 0x20 DUP2 ADD SWAP1 POP PUSH2 0x551 JUMP JUMPDEST DUP7 DUP4 LT ISZERO PUSH2 0x593 JUMPI DUP5 DUP10 ADD MLOAD PUSH2 0x58F PUSH1 0x1F DUP10 AND DUP3 PUSH2 0x4A2 JUMP JUMPDEST DUP4 SSTORE POP JUMPDEST PUSH1 0x1 PUSH1 0x2 DUP9 MUL ADD DUP9 SSTORE POP POP POP JUMPDEST POP POP POP POP POP POP JUMP JUMPDEST PUSH2 0x10F0 DUP1 PUSH2 0x5B5 PUSH0 CODECOPY PUSH0 RETURN INVALID PUSH1 0x80 PUSH1 0x40 MSTORE CALLVALUE DUP1 ISZERO PUSH2 0xF JUMPI PUSH0 DUP1 REVERT JUMPDEST POP PUSH1 0x4 CALLDATASIZE LT PUSH2 0x9C JUMPI PUSH0 CALLDATALOAD PUSH1 0xE0 SHR DUP1 PUSH4 0x8E7EA5B2 GT PUSH2 0x64 JUMPI DUP1 PUSH4 0x8E7EA5B2 EQ PUSH2 0x148 JUMPI DUP1 PUSH4 0x95F85022 EQ PUSH2 0x166 JUMPI DUP1 PUSH4 0xA9A981A3 EQ PUSH2 0x196 JUMPI DUP1 PUSH4 0xAF0DBE54 EQ PUSH2 0x1B4 JUMPI DUP1 PUSH4 0xE868BA70 EQ PUSH2 0x1E4 JUMPI PUSH2 0x9C JUMP JUMPDEST DUP1 PUSH4 0x121B93F EQ PUSH2 0xA0 JUMPI DUP1 PUSH4 0x1DE43C4B EQ PUSH2 0xBC JUMPI DUP1 PUSH4 0x2E6997FE EQ PUSH2 0xEE JUMPI DUP1 PUSH4 0x3197CBB6 EQ PUSH2 0x10C JUMPI DUP1 PUSH4 0x78E97925 EQ PUSH2 0x12A JUMPI JUMPDEST PUSH0 DUP1 REVERT JUMPDEST PUSH2 0xBA PUSH1 0x4 DUP1 CALLDATASIZE SUB DUP2 ADD SWAP1 PUSH2 0xB5 SWAP2 SWAP1 PUSH2 0x9D3 JUMP JUMPDEST PUSH2 0x202 JUMP JUMPDEST STOP JUMPDEST PUSH2 0xD6 PUSH1 0x4 DUP1 CALLDATASIZE SUB DUP2 ADD SWAP1 PUSH2 0xD1 SWAP2 SWAP1 PUSH2 0x9D3 JUMP JUMPDEST PUSH2 0x3E5 JUMP JUMPDEST PUSH1 0x40 MLOAD PUSH2 0xE5 SWAP4 SWAP3 SWAP2 SWAP1 PUSH2 0xA7D JUMP JUMPDEST PUSH1 0x40 MLOAD DUP1 SWAP2 SUB SWAP1 RETURN JUMPDEST PUSH2 0xF6 PUSH2 0x490 JUMP JUMPDEST PUSH1 0x40 MLOAD PUSH2 0x103 SWAP2 SWAP1 PUSH2 0xC18 JUMP JUMPDEST PUSH1 0x40 MLOAD DUP1 SWAP2 SUB SWAP1 RETURN JUMPDEST PUSH2 0x114 PUSH2 0x5FD JUMP JUMPDEST PUSH1 0x40 MLOAD PUSH2 0x121 SWAP2 SWAP1 PUSH2 0xC38 JUMP JUMPDEST PUSH1 0x40 MLOAD DUP1 SWAP2 SUB SWAP1 RETURN JUMPDEST PUSH2 0x132 PUSH2 0x603 JUMP JUMPDEST PUSH1 0x40 MLOAD PUSH2 0x13F SWAP2 SWAP1 PUSH2 0xC38 JUMP JUMPDEST PUSH1 0x40 MLOAD DUP1 SWAP2 SUB SWAP1 RETURN JUMPDEST PUSH2 0x150 PUSH2 0x609 JUMP JUMPDEST PUSH1 0x40 MLOAD PUSH2 0x15D SWAP2 SWAP1 PUSH2 0xC51 JUMP JUMPDEST PUSH1 0x40 MLOAD DUP1 SWAP2 SUB SWAP1 RETURN JUMPDEST PUSH2 0x180 PUSH1 0x4 DUP1 CALLDATASIZE SUB DUP2 ADD SWAP1 PUSH2 0x17B SWAP2 SWAP1 PUSH2 0x9D3 JUMP JUMPDEST PUSH2 0x73E JUMP JUMPDEST PUSH1 0x40 MLOAD PUSH2 0x18D SWAP2 SWAP1 PUSH2 0xCBE JUMP JUMPDEST PUSH1 0x40 MLOAD DUP1 SWAP2 SUB SWAP1 RETURN JUMPDEST PUSH2 0x19E PUSH2 0x85D JUMP JUMPDEST PUSH1 0x40 MLOAD PUSH2 0x1AB SWAP2 SWAP1 PUSH2 0xC38 JUMP JUMPDEST PUSH1 0x40 MLOAD DUP1 SWAP2 SUB SWAP1 RETURN JUMPDEST PUSH2 0x1CE PUSH1 0x4 DUP1 CALLDATASIZE SUB DUP2 ADD SWAP1 PUSH2 0x1C9 SWAP2 SWAP1 PUSH2 0xD38 JUMP JUMPDEST PUSH2 0x863 JUMP JUMPDEST PUSH1 0x40 MLOAD PUSH2 0x1DB SWAP2 SWAP1 PUSH2 0xD7D JUMP JUMPDEST PUSH1 0x40 MLOAD DUP1 SWAP2 SUB SWAP1 RETURN JUMPDEST PUSH2 0x1EC PUSH2 0x880 JUMP JUMPDEST PUSH1 0x40 MLOAD PUSH2 0x1F9 SWAP2 SWAP1 PUSH2 0xC51 JUMP JUMPDEST PUSH1 0x40 MLOAD DUP1 SWAP2 SUB SWAP1 RETURN JUMPDEST PUSH1 0x4 SLOAD TIMESTAMP GT ISZERO DUP1 ISZERO PUSH2 0x216 JUMPI POP PUSH1 0x3 SLOAD TIMESTAMP LT ISZERO JUMPDEST PUSH2 0x255 JUMPI PUSH1 0x40 MLOAD PUSH32 0x8C379A000000000000000000000000000000000000000000000000000000000 DUP2 MSTORE PUSH1 0x4 ADD PUSH2 0x24C SWAP1 PUSH2 0xE06 JUMP JUMPDEST PUSH1 0x40 MLOAD DUP1 SWAP2 SUB SWAP1 REVERT JUMPDEST PUSH1 0x1 PUSH0 CALLER PUSH20 0xFFFFFFFFFFFFFFFFFFFFFFFFFFFFFFFFFFFFFFFF AND PUSH20 0xFFFFFFFFFFFFFFFFFFFFFFFFFFFFFFFFFFFFFFFF AND DUP2 MSTORE PUSH1 0x20 ADD SWAP1 DUP2 MSTORE PUSH1 0x20 ADD PUSH0 KECCAK256 PUSH0 SWAP1 SLOAD SWAP1 PUSH2 0x100 EXP SWAP1 DIV PUSH1 0xFF AND ISZERO PUSH2 0x2DF JUMPI PUSH1 0x40 MLOAD PUSH32 0x8C379A000000000000000000000000000000000000000000000000000000000 DUP2 MSTORE PUSH1 0x4 ADD PUSH2 0x2D6 SWAP1 PUSH2 0xE6E JUMP JUMPDEST PUSH1 0x40 MLOAD DUP1 SWAP2 SUB SWAP1 REVERT JUMPDEST PUSH0 DUP2 GT DUP1 ISZERO PUSH2 0x2F0 JUMPI POP PUSH1 0x2 SLOAD DUP2 GT ISZERO JUMPDEST PUSH2 0x32F JUMPI PUSH1 0x40 MLOAD PUSH32 0x8C379A000000000000000000000000000000000000000000000000000000000 DUP2 MSTORE PUSH1 0x4 ADD PUSH2 0x326 SWAP1 PUSH2 0xED6 JUMP JUMPDEST PUSH1 0x40 MLOAD DUP1 SWAP2 SUB SWAP1 REVERT JUMPDEST PUSH1 0x1 DUP1 PUSH0 CALLER PUSH20 0xFFFFFFFFFFFFFFFFFFFFFFFFFFFFFFFFFFFFFFFF AND PUSH20 0xFFFFFFFFFFFFFFFFFFFFFFFFFFFFFFFFFFFFFFFF AND DUP2 MSTORE PUSH1 0x20 ADD SWAP1 DUP2 MSTORE PUSH1 0x20 ADD PUSH0 KECCAK256 PUSH0 PUSH2 0x100 EXP DUP2 SLOAD DUP2 PUSH1 0xFF MUL NOT AND SWAP1 DUP4 ISZERO ISZERO MUL OR SWAP1 SSTORE POP PUSH0 DUP1 DUP3 DUP2 MSTORE PUSH1 0x20 ADD SWAP1 DUP2 MSTORE PUSH1 0x20 ADD PUSH0 KECCAK256 PUSH1 0x2 ADD PUSH0 DUP2 SLOAD DUP1 SWAP3 SWAP2 SWAP1 PUSH2 0x3A6 SWAP1 PUSH2 0xF21 JUMP JUMPDEST SWAP2 SWAP1 POP SSTORE POP PUSH32 0xC00232DF16A35660DBCDDE113A8565E8848DC6202169F47B8F35E8C2511D40BC DUP2 PUSH1 0x40 MLOAD PUSH2 0x3DA SWAP2 SWAP1 PUSH2 0xC38 JUMP JUMPDEST PUSH1 0x40 MLOAD DUP1 SWAP2 SUB SWAP1 LOG1 POP JUMP JUMPDEST PUSH0 PUSH1 0x20 MSTORE DUP1 PUSH0 MSTORE PUSH1 0x40 PUSH0 KECCAK256 PUSH0 SWAP2 POP SWAP1 POP DUP1 PUSH0 ADD SLOAD SWAP1 DUP1 PUSH1 0x1 ADD DUP1 SLOAD PUSH2 0x409 SWAP1 PUSH2 0xF95 JUMP JUMPDEST DUP1 PUSH1 0x1F ADD PUSH1 0x20 DUP1 SWAP2 DIV MUL PUSH1 0x20 ADD PUSH1 0x40 MLOAD SWAP1 DUP2 ADD PUSH1 0x40 MSTORE DUP1 SWAP3 SWAP2 SWAP1 DUP2 DUP2 MSTORE PUSH1 0x20 ADD DUP3 DUP1 SLOAD PUSH2 0x435 SWAP1 PUSH2 0xF95 JUMP JUMPDEST DUP1 ISZERO PUSH2 0x480 JUMPI DUP1 PUSH1 0x1F LT PUSH2 0x457 JUMPI PUSH2 0x100 DUP1 DUP4 SLOAD DIV MUL DUP4 MSTORE SWAP2 PUSH1 0x20 ADD SWAP2 PUSH2 0x480 JUMP JUMPDEST DUP3 ADD SWAP2 SWAP1 PUSH0 MSTORE PUSH1 0x20 PUSH0 KECCAK256 SWAP1 JUMPDEST DUP2 SLOAD DUP2 MSTORE SWAP1 PUSH1 0x1 ADD SWAP1 PUSH1 0x20 ADD DUP1 DUP4 GT PUSH2 0x463 JUMPI DUP3 SWAP1 SUB PUSH1 0x1F AND DUP3 ADD SWAP2 JUMPDEST POP POP POP POP POP SWAP1 DUP1 PUSH1 0x2 ADD SLOAD SWAP1 POP DUP4 JUMP JUMPDEST PUSH1 0x60 PUSH0 PUSH1 0x2 SLOAD PUSH8 0xFFFFFFFFFFFFFFFF DUP2 GT ISZERO PUSH2 0x4AF JUMPI PUSH2 0x4AE PUSH2 0xFC5 JUMP JUMPDEST JUMPDEST PUSH1 0x40 MLOAD SWAP1 DUP1 DUP3 MSTORE DUP1 PUSH1 0x20 MUL PUSH1 0x20 ADD DUP3 ADD PUSH1 0x40 MSTORE DUP1 ISZERO PUSH2 0x4E8 JUMPI DUP2 PUSH1 0x20 ADD JUMPDEST PUSH2 0x4D5 PUSH2 0x97D JUMP JUMPDEST DUP2 MSTORE PUSH1 0x20 ADD SWAP1 PUSH1 0x1 SWAP1 SUB SWAP1 DUP2 PUSH2 0x4CD JUMPI SWAP1 POP JUMPDEST POP SWAP1 POP PUSH0 PUSH1 0x1 SWAP1 POP JUMPDEST PUSH1 0x2 SLOAD DUP2 GT PUSH2 0x5F5 JUMPI PUSH0 DUP1 DUP3 DUP2 MSTORE PUSH1 0x20 ADD SWAP1 DUP2 MSTORE PUSH1 0x20 ADD PUSH0 KECCAK256 PUSH1 0x40 MLOAD DUP1 PUSH1 0x60 ADD PUSH1 0x40 MSTORE SWAP1 DUP2 PUSH0 DUP3 ADD SLOAD DUP2 MSTORE PUSH1 0x20 ADD PUSH1 0x1 DUP3 ADD DUP1 SLOAD PUSH2 0x52E SWAP1 PUSH2 0xF95 JUMP JUMPDEST DUP1 PUSH1 0x1F ADD PUSH1 0x20 DUP1 SWAP2 DIV MUL PUSH1 0x20 ADD PUSH1 0x40 MLOAD SWAP1 DUP2 ADD PUSH1 0x40 MSTORE DUP1 SWAP3 SWAP2 SWAP1 DUP2 DUP2 MSTORE PUSH1 0x20 ADD DUP3 DUP1 SLOAD PUSH2 0x55A SWAP1 PUSH2 0xF95 JUMP JUMPDEST DUP1 ISZERO PUSH2 0x5A5 JUMPI DUP1 PUSH1 0x1F LT PUSH2 0x57C JUMPI PUSH2 0x100 DUP1 DUP4 SLOAD DIV MUL DUP4 MSTORE SWAP2 PUSH1 0x20 ADD SWAP2 PUSH2 0x5A5 JUMP JUMPDEST DUP3 ADD SWAP2 SWAP1 PUSH0 MSTORE PUSH1 0x20 PUSH0 KECCAK256 SWAP1 JUMPDEST DUP2 SLOAD DUP2 MSTORE SWAP1 PUSH1 0x1 ADD SWAP1 PUSH1 0x20 ADD DUP1 DUP4 GT PUSH2 0x588 JUMPI DUP3 SWAP1 SUB PUSH1 0x1F AND DUP3 ADD SWAP2 JUMPDEST POP POP POP POP POP DUP2 MSTORE PUSH1 0x20 ADD PUSH1 0x2 DUP3 ADD SLOAD DUP2 MSTORE POP POP DUP3 PUSH1 0x1 DUP4 PUSH2 0x5C6 SWAP2 SWAP1 PUSH2 0xFF2 JUMP JUMPDEST DUP2 MLOAD DUP2 LT PUSH2 0x5D7 JUMPI PUSH2 0x5D6 PUSH2 0x1025 JUMP JUMPDEST JUMPDEST PUSH1 0x20 MUL PUSH1 0x20 ADD ADD DUP2 SWAP1 MSTORE POP DUP1 DUP1 PUSH2 0x5ED SWAP1 PUSH2 0xF21 JUMP JUMPDEST SWAP2 POP POP PUSH2 0x4F1 JUMP JUMPDEST POP DUP1 SWAP2 POP POP SWAP1 JUMP JUMPDEST PUSH1 0x4 SLOAD DUP2 JUMP JUMPDEST PUSH1 0x3 SLOAD DUP2 JUMP JUMPDEST PUSH1 0x60 PUSH0 DUP1 PUSH1 0x40 MLOAD DUP1 PUSH1 0x20 ADD PUSH1 0x40 MSTORE DUP1 PUSH0 DUP2 MSTORE POP SWAP1 POP PUSH0 PUSH1 0x1 SWAP1 POP JUMPDEST PUSH1 0x2 SLOAD DUP2 GT PUSH2 0x737 JUMPI DUP3 PUSH0 DUP1 DUP4 DUP2 MSTORE PUSH1 0x20 ADD SWAP1 DUP2 MSTORE PUSH1 0x20 ADD PUSH0 KECCAK256 PUSH1 0x2 ADD SLOAD GT ISZERO PUSH2 0x688 JUMPI PUSH1 0x40 MLOAD DUP1 PUSH1 0x40 ADD PUSH1 0x40 MSTORE DUP1 PUSH1 0xE DUP2 MSTORE PUSH1 0x20 ADD PUSH32 0x4E6F2077696E6E65722079657421000000000000000000000000000000000000 DUP2 MSTORE POP SWAP4 POP POP POP POP PUSH2 0x73B JUMP JUMPDEST PUSH0 DUP1 DUP3 DUP2 MSTORE PUSH1 0x20 ADD SWAP1 DUP2 MSTORE PUSH1 0x20 ADD PUSH0 KECCAK256 PUSH1 0x1 ADD DUP1 SLOAD PUSH2 0x6A6 SWAP1 PUSH2 0xF95 JUMP JUMPDEST DUP1 PUSH1 0x1F ADD PUSH1 0x20 DUP1 SWAP2 DIV MUL PUSH1 0x20 ADD PUSH1 0x40 MLOAD SWAP1 DUP2 ADD PUSH1 0x40 MSTORE DUP1 SWAP3 SWAP2 SWAP1 DUP2 DUP2 MSTORE PUSH1 0x20 ADD DUP3 DUP1 SLOAD PUSH2 0x6D2 SWAP1 PUSH2 0xF95 JUMP JUMPDEST DUP1 ISZERO PUSH2 0x71D JUMPI DUP1 PUSH1 0x1F LT PUSH2 0x6F4 JUMPI PUSH2 0x100 DUP1 DUP4 SLOAD DIV MUL DUP4 MSTORE SWAP2 PUSH1 0x20 ADD SWAP2 PUSH2 0x71D JUMP JUMPDEST DUP3 ADD SWAP2 SWAP1 PUSH0 MSTORE PUSH1 0x20 PUSH0 KECCAK256 SWAP1 JUMPDEST DUP2 SLOAD DUP2 MSTORE SWAP1 PUSH1 0x1 ADD SWAP1 PUSH1 0x20 ADD DUP1 DUP4 GT PUSH2 0x700 JUMPI DUP3 SWAP1 SUB PUSH1 0x1F AND DUP3 ADD SWAP2 JUMPDEST POP POP POP POP POP SWAP2 POP DUP1 DUP1 PUSH2 0x72F SWAP1 PUSH2 0xF21 JUMP JUMPDEST SWAP2 POP POP PUSH2 0x624 JUMP JUMPDEST POP POP POP JUMPDEST SWAP1 JUMP JUMPDEST PUSH2 0x746 PUSH2 0x97D JUMP JUMPDEST PUSH0 DUP3 GT DUP1 ISZERO PUSH2 0x757 JUMPI POP PUSH1 0x2 SLOAD DUP3 GT ISZERO JUMPDEST PUSH2 0x796 JUMPI PUSH1 0x40 MLOAD PUSH32 0x8C379A000000000000000000000000000000000000000000000000000000000 DUP2 MSTORE PUSH1 0x4 ADD PUSH2 0x78D SWAP1 PUSH2 0x109C JUMP JUMPDEST PUSH1 0x40 MLOAD DUP1 SWAP2 SUB SWAP1 REVERT JUMPDEST PUSH0 DUP1 PUSH0 DUP5 DUP2 MSTORE PUSH1 0x20 ADD SWAP1 DUP2 MSTORE PUSH1 0x20 ADD PUSH0 KECCAK256 PUSH1 0x40 MLOAD DUP1 PUSH1 0x60 ADD PUSH1 0x40 MSTORE SWAP1 DUP2 PUSH0 DUP3 ADD SLOAD DUP2 MSTORE PUSH1 0x20 ADD PUSH1 0x1 DUP3 ADD DUP1 SLOAD PUSH2 0x7CB SWAP1 PUSH2 0xF95 JUMP JUMPDEST DUP1 PUSH1 0x1F ADD PUSH1 0x20 DUP1 SWAP2 DIV MUL PUSH1 0x20 ADD PUSH1 0x40 MLOAD SWAP1 DUP2 ADD PUSH1 0x40 MSTORE DUP1 SWAP3 SWAP2 SWAP1 DUP2 DUP2 MSTORE PUSH1 0x20 ADD DUP3 DUP1 SLOAD PUSH2 0x7F7 SWAP1 PUSH2 0xF95 JUMP JUMPDEST DUP1 ISZERO PUSH2 0x842 JUMPI DUP1 PUSH1 0x1F LT PUSH2 0x819 JUMPI PUSH2 0x100 DUP1 DUP4 SLOAD DIV MUL DUP4 MSTORE SWAP2 PUSH1 0x20 ADD SWAP2 PUSH2 0x842 JUMP JUMPDEST DUP3 ADD SWAP2 SWAP1 PUSH0 MSTORE PUSH1 0x20 PUSH0 KECCAK256 SWAP1 JUMPDEST DUP2 SLOAD DUP2 MSTORE SWAP1 PUSH1 0x1 ADD SWAP1 PUSH1 0x20 ADD DUP1 DUP4 GT PUSH2 0x825 JUMPI DUP3 SWAP1 SUB PUSH1 0x1F AND DUP3 ADD SWAP2 JUMPDEST POP POP POP POP POP DUP2 MSTORE PUSH1 0x20 ADD PUSH1 0x2 DUP3 ADD SLOAD DUP2 MSTORE POP POP SWAP1 POP POP SWAP2 SWAP1 POP JUMP JUMPDEST PUSH1 0x2 SLOAD DUP2 JUMP JUMPDEST PUSH1 0x1 PUSH1 0x20 MSTORE DUP1 PUSH0 MSTORE PUSH1 0x40 PUSH0 KECCAK256 PUSH0 SWAP2 POP SLOAD SWAP1 PUSH2 0x100 EXP SWAP1 DIV PUSH1 0xFF AND DUP2 JUMP JUMPDEST PUSH1 0x60 PUSH0 DUP1 PUSH0 PUSH1 0x1 SWAP1 POP JUMPDEST PUSH1 0x2 SLOAD DUP2 GT PUSH2 0x8DB JUMPI DUP3 PUSH0 DUP1 DUP4 DUP2 MSTORE PUSH1 0x20 ADD SWAP1 DUP2 MSTORE PUSH1 0x20 ADD PUSH0 KECCAK256 PUSH1 0x2 ADD SLOAD GT ISZERO PUSH2 0x8C8 JUMPI PUSH0 DUP1 DUP3 DUP2 MSTORE PUSH1 0x20 ADD SWAP1 DUP2 MSTORE PUSH1 0x20 ADD PUSH0 KECCAK256 PUSH1 0x2 ADD SLOAD SWAP3 POP DUP1 SWAP2 POP JUMPDEST DUP1 DUP1 PUSH2 0x8D3 SWAP1 PUSH2 0xF21 JUMP JUMPDEST SWAP2 POP POP PUSH2 0x88A JUMP JUMPDEST POP PUSH0 DUP1 DUP3 DUP2 MSTORE PUSH1 0x20 ADD SWAP1 DUP2 MSTORE PUSH1 0x20 ADD PUSH0 KECCAK256 PUSH1 0x1 ADD DUP1 SLOAD PUSH2 0x8FA SWAP1 PUSH2 0xF95 JUMP JUMPDEST DUP1 PUSH1 0x1F ADD PUSH1 0x20 DUP1 SWAP2 DIV MUL PUSH1 0x20 ADD PUSH1 0x40 MLOAD SWAP1 DUP2 ADD PUSH1 0x40 MSTORE DUP1 SWAP3 SWAP2 SWAP1 DUP2 DUP2 MSTORE PUSH1 0x20 ADD DUP3 DUP1 SLOAD PUSH2 0x926 SWAP1 PUSH2 0xF95 JUMP JUMPDEST DUP1 ISZERO PUSH2 0x971 JUMPI DUP1 PUSH1 0x1F LT PUSH2 0x948 JUMPI PUSH2 0x100 DUP1 DUP4 SLOAD DIV MUL DUP4 MSTORE SWAP2 PUSH1 0x20 ADD SWAP2 PUSH2 0x971 JUMP JUMPDEST DUP3 ADD SWAP2 SWAP1 PUSH0 MSTORE PUSH1 0x20 PUSH0 KECCAK256 SWAP1 JUMPDEST DUP2 SLOAD DUP2 MSTORE SWAP1 PUSH1 0x1 ADD SWAP1 PUSH1 0x20 ADD DUP1 DUP4 GT PUSH2 0x954 JUMPI DUP3 SWAP1 SUB PUSH1 0x1F AND DUP3 ADD SWAP2 JUMPDEST POP POP POP POP POP SWAP3 POP POP POP SWAP1 JUMP JUMPDEST PUSH1 0x40 MLOAD DUP1 PUSH1 0x60 ADD PUSH1 0x40 MSTORE DUP1 PUSH0 DUP2 MSTORE PUSH1 0x20 ADD PUSH1 0x60 DUP2 MSTORE PUSH1 0x20 ADD PUSH0 DUP2 MSTORE POP SWAP1 JUMP JUMPDEST PUSH0 DUP1 REVERT JUMPDEST PUSH0 DUP2 SWAP1 POP SWAP2 SWAP1 POP JUMP JUMPDEST PUSH2 0x9B2 DUP2 PUSH2 0x9A0 JUMP JUMPDEST DUP2 EQ PUSH2 0x9BC JUMPI PUSH0 DUP1 REVERT JUMPDEST POP JUMP JUMPDEST PUSH0 DUP2 CALLDATALOAD SWAP1 POP PUSH2 0x9CD DUP2 PUSH2 0x9A9 JUMP JUMPDEST SWAP3 SWAP2 POP POP JUMP JUMPDEST PUSH0 PUSH1 0x20 DUP3 DUP5 SUB SLT ISZERO PUSH2 0x9E8 JUMPI PUSH2 0x9E7 PUSH2 0x99C JUMP JUMPDEST JUMPDEST PUSH0 PUSH2 0x9F5 DUP5 DUP3 DUP6 ADD PUSH2 0x9BF JUMP JUMPDEST SWAP2 POP POP SWAP3 SWAP2 POP POP JUMP JUMPDEST PUSH2 0xA07 DUP2 PUSH2 0x9A0 JUMP JUMPDEST DUP3 MSTORE POP POP JUMP JUMPDEST PUSH0 DUP2 MLOAD SWAP1 POP SWAP2 SWAP1 POP JUMP JUMPDEST PUSH0 DUP3 DUP3 MSTORE PUSH1 0x20 DUP3 ADD SWAP1 POP SWAP3 SWAP2 POP POP JUMP JUMPDEST DUP3 DUP2 DUP4 MCOPY PUSH0 DUP4 DUP4 ADD MSTORE POP POP POP JUMP JUMPDEST PUSH0 PUSH1 0x1F NOT PUSH1 0x1F DUP4 ADD AND SWAP1 POP SWAP2 SWAP1 POP JUMP JUMPDEST PUSH0 PUSH2 0xA4F DUP3 PUSH2 0xA0D JUMP JUMPDEST PUSH2 0xA59 DUP2 DUP6 PUSH2 0xA17 JUMP JUMPDEST SWAP4 POP PUSH2 0xA69 DUP2 DUP6 PUSH1 0x20 DUP7 ADD PUSH2 0xA27 JUMP JUMPDEST PUSH2 0xA72 DUP2 PUSH2 0xA35 JUMP JUMPDEST DUP5 ADD SWAP2 POP POP SWAP3 SWAP2 POP POP JUMP JUMPDEST PUSH0 PUSH1 0x60 DUP3 ADD SWAP1 POP PUSH2 0xA90 PUSH0 DUP4 ADD DUP7 PUSH2 0x9FE JUMP JUMPDEST DUP2 DUP2 SUB PUSH1 0x20 DUP4 ADD MSTORE PUSH2 0xAA2 DUP2 DUP6 PUSH2 0xA45 JUMP JUMPDEST SWAP1 POP PUSH2 0xAB1 PUSH1 0x40 DUP4 ADD DUP5 PUSH2 0x9FE JUMP JUMPDEST SWAP5 SWAP4 POP POP POP POP JUMP JUMPDEST PUSH0 DUP2 MLOAD SWAP1 POP SWAP2 SWAP1 POP JUMP JUMPDEST PUSH0 DUP3 DUP3 MSTORE PUSH1 0x20 DUP3 ADD SWAP1 POP SWAP3 SWAP2 POP POP JUMP JUMPDEST PUSH0 DUP2 SWAP1 POP PUSH1 0x20 DUP3 ADD SWAP1 POP SWAP2 SWAP1 POP JUMP JUMPDEST PUSH2 0xAEB DUP2 PUSH2 0x9A0 JUMP JUMPDEST DUP3 MSTORE POP POP JUMP JUMPDEST PUSH0 DUP3 DUP3 MSTORE PUSH1 0x20 DUP3 ADD SWAP1 POP SWAP3 SWAP2 POP POP JUMP JUMPDEST PUSH0 PUSH2 0xB0B DUP3 PUSH2 0xA0D JUMP JUMPDEST PUSH2 0xB15 DUP2 DUP6 PUSH2 0xAF1 JUMP JUMPDEST SWAP4 POP PUSH2 0xB25 DUP2 DUP6 PUSH1 0x20 DUP7 ADD PUSH2 0xA27 JUMP JUMPDEST PUSH2 0xB2E DUP2 PUSH2 0xA35 JUMP JUMPDEST DUP5 ADD SWAP2 POP POP SWAP3 SWAP2 POP POP JUMP JUMPDEST PUSH0 PUSH1 0x60 DUP4 ADD PUSH0 DUP4 ADD MLOAD PUSH2 0xB4E PUSH0 DUP7 ADD DUP3 PUSH2 0xAE2 JUMP JUMPDEST POP PUSH1 0x20 DUP4 ADD MLOAD DUP5 DUP3 SUB PUSH1 0x20 DUP7 ADD MSTORE PUSH2 0xB66 DUP3 DUP3 PUSH2 0xB01 JUMP JUMPDEST SWAP2 POP POP PUSH1 0x40 DUP4 ADD MLOAD PUSH2 0xB7B PUSH1 0x40 DUP7 ADD DUP3 PUSH2 0xAE2 JUMP JUMPDEST POP DUP1 SWAP2 POP POP SWAP3 SWAP2 POP POP JUMP JUMPDEST PUSH0 PUSH2 0xB91 DUP4 DUP4 PUSH2 0xB39 JUMP JUMPDEST SWAP1 POP SWAP3 SWAP2 POP POP JUMP JUMPDEST PUSH0 PUSH1 0x20 DUP3 ADD SWAP1 POP SWAP2 SWAP1 POP JUMP JUMPDEST PUSH0 PUSH2 0xBAF DUP3 PUSH2 0xAB9 JUMP JUMPDEST PUSH2 0xBB9 DUP2 DUP6 PUSH2 0xAC3 JUMP JUMPDEST SWAP4 POP DUP4 PUSH1 0x20 DUP3 MUL DUP6 ADD PUSH2 0xBCB DUP6 PUSH2 0xAD3 JUMP JUMPDEST DUP1 PUSH0 JUMPDEST DUP6 DUP2 LT ISZERO PUSH2 0xC06 JUMPI DUP5 DUP5 SUB DUP10 MSTORE DUP2 MLOAD PUSH2 0xBE7 DUP6 DUP3 PUSH2 0xB86 JUMP JUMPDEST SWAP5 POP PUSH2 0xBF2 DUP4 PUSH2 0xB99 JUMP JUMPDEST SWAP3 POP PUSH1 0x20 DUP11 ADD SWAP10 POP POP PUSH1 0x1 DUP2 ADD SWAP1 POP PUSH2 0xBCE JUMP JUMPDEST POP DUP3 SWAP8 POP DUP8 SWAP6 POP POP POP POP POP POP SWAP3 SWAP2 POP POP JUMP JUMPDEST PUSH0 PUSH1 0x20 DUP3 ADD SWAP1 POP DUP2 DUP2 SUB PUSH0 DUP4 ADD MSTORE PUSH2 0xC30 DUP2 DUP5 PUSH2 0xBA5 JUMP JUMPDEST SWAP1 POP SWAP3 SWAP2 POP POP JUMP JUMPDEST PUSH0 PUSH1 0x20 DUP3 ADD SWAP1 POP PUSH2 0xC4B PUSH0 DUP4 ADD DUP5 PUSH2 0x9FE JUMP JUMPDEST SWAP3 SWAP2 POP POP JUMP JUMPDEST PUSH0 PUSH1 0x20 DUP3 ADD SWAP1 POP DUP2 DUP2 SUB PUSH0 DUP4 ADD MSTORE PUSH2 0xC69 DUP2 DUP5 PUSH2 0xA45 JUMP JUMPDEST SWAP1 POP SWAP3 SWAP2 POP POP JUMP JUMPDEST PUSH0 PUSH1 0x60 DUP4 ADD PUSH0 DUP4 ADD MLOAD PUSH2 0xC86 PUSH0 DUP7 ADD DUP3 PUSH2 0xAE2 JUMP JUMPDEST POP PUSH1 0x20 DUP4 ADD MLOAD DUP5 DUP3 SUB PUSH1 0x20 DUP7 ADD MSTORE PUSH2 0xC9E DUP3 DUP3 PUSH2 0xB01 JUMP JUMPDEST SWAP2 POP POP PUSH1 0x40 DUP4 ADD MLOAD PUSH2 0xCB3 PUSH1 0x40 DUP7 ADD DUP3 PUSH2 0xAE2 JUMP JUMPDEST POP DUP1 SWAP2 POP POP SWAP3 SWAP2 POP POP JUMP JUMPDEST PUSH0 PUSH1 0x20 DUP3 ADD SWAP1 POP DUP2 DUP2 SUB PUSH0 DUP4 ADD MSTORE PUSH2 0xCD6 DUP2 DUP5 PUSH2 0xC71 JUMP JUMPDEST SWAP1 POP SWAP3 SWAP2 POP POP JUMP JUMPDEST PUSH0 PUSH20 0xFFFFFFFFFFFFFFFFFFFFFFFFFFFFFFFFFFFFFFFF DUP3 AND SWAP1 POP SWAP2 SWAP1 POP JUMP JUMPDEST PUSH0 PUSH2 0xD07 DUP3 PUSH2 0xCDE JUMP JUMPDEST SWAP1 POP SWAP2 SWAP1 POP JUMP JUMPDEST PUSH2 0xD17 DUP2 PUSH2 0xCFD JUMP JUMPDEST DUP2 EQ PUSH2 0xD21 JUMPI PUSH0 DUP1 REVERT JUMPDEST POP JUMP JUMPDEST PUSH0 DUP2 CALLDATALOAD SWAP1 POP PUSH2 0xD32 DUP2 PUSH2 0xD0E JUMP JUMPDEST SWAP3 SWAP2 POP POP JUMP JUMPDEST PUSH0 PUSH1 0x20 DUP3 DUP5 SUB SLT ISZERO PUSH2 0xD4D JUMPI PUSH2 0xD4C PUSH2 0x99C JUMP JUMPDEST JUMPDEST PUSH0 PUSH2 0xD5A DUP5 DUP3 DUP6 ADD PUSH2 0xD24 JUMP JUMPDEST SWAP2 POP POP SWAP3 SWAP2 POP POP JUMP JUMPDEST PUSH0 DUP2 ISZERO ISZERO SWAP1 POP SWAP2 SWAP1 POP JUMP JUMPDEST PUSH2 0xD77 DUP2 PUSH2 0xD63 JUMP JUMPDEST DUP3 MSTORE POP POP JUMP JUMPDEST PUSH0 PUSH1 0x20 DUP3 ADD SWAP1 POP PUSH2 0xD90 PUSH0 DUP4 ADD DUP5 PUSH2 0xD6E JUMP JUMPDEST SWAP3 SWAP2 POP POP JUMP JUMPDEST PUSH32 0x566F74696E67206973206E6F7420616C6C6F7765642061742074686973207469 PUSH0 DUP3 ADD MSTORE PUSH32 0x6D65000000000000000000000000000000000000000000000000000000000000 PUSH1 0x20 DUP3 ADD MSTORE POP JUMP JUMPDEST PUSH0 PUSH2 0xDF0 PUSH1 0x22 DUP4 PUSH2 0xA17 JUMP JUMPDEST SWAP2 POP PUSH2 0xDFB DUP3 PUSH2 0xD96 JUMP JUMPDEST PUSH1 0x40 DUP3 ADD SWAP1 POP SWAP2 SWAP1 POP JUMP JUMPDEST PUSH0 PUSH1 0x20 DUP3 ADD SWAP1 POP DUP2 DUP2 SUB PUSH0 DUP4 ADD MSTORE PUSH2 0xE1D DUP2 PUSH2 0xDE4 JUMP JUMPDEST SWAP1 POP SWAP2 SWAP1 POP JUMP JUMPDEST PUSH32 0x596F75206861766520616C726561647920766F74656421000000000000000000 PUSH0 DUP3 ADD MSTORE POP JUMP JUMPDEST PUSH0 PUSH2 0xE58 PUSH1 0x17 DUP4 PUSH2 0xA17 JUMP JUMPDEST SWAP2 POP PUSH2 0xE63 DUP3 PUSH2 0xE24 JUMP JUMPDEST PUSH1 0x20 DUP3 ADD SWAP1 POP SWAP2 SWAP1 POP JUMP JUMPDEST PUSH0 PUSH1 0x20 DUP3 ADD SWAP1 POP DUP2 DUP2 SUB PUSH0 DUP4 ADD MSTORE PUSH2 0xE85 DUP2 PUSH2 0xE4C JUMP JUMPDEST SWAP1 POP SWAP2 SWAP1 POP JUMP JUMPDEST PUSH32 0x596F75206861766520656E7472656420696E76616C6964204944000000000000 PUSH0 DUP3 ADD MSTORE POP JUMP JUMPDEST PUSH0 PUSH2 0xEC0 PUSH1 0x1A DUP4 PUSH2 0xA17 JUMP JUMPDEST SWAP2 POP PUSH2 0xECB DUP3 PUSH2 0xE8C JUMP JUMPDEST PUSH1 0x20 DUP3 ADD SWAP1 POP SWAP2 SWAP1 POP JUMP JUMPDEST PUSH0 PUSH1 0x20 DUP3 ADD SWAP1 POP DUP2 DUP2 SUB PUSH0 DUP4 ADD MSTORE PUSH2 0xEED DUP2 PUSH2 0xEB4 JUMP JUMPDEST SWAP1 POP SWAP2 SWAP1 POP JUMP JUMPDEST PUSH32 0x4E487B7100000000000000000000000000000000000000000000000000000000 PUSH0 MSTORE PUSH1 0x11 PUSH1 0x4 MSTORE PUSH1 0x24 PUSH0 REVERT JUMPDEST PUSH0 PUSH2 0xF2B DUP3 PUSH2 0x9A0 JUMP JUMPDEST SWAP2 POP PUSH32 0xFFFFFFFFFFFFFFFFFFFFFFFFFFFFFFFFFFFFFFFFFFFFFFFFFFFFFFFFFFFFFFFF DUP3 SUB PUSH2 0xF5D JUMPI PUSH2 0xF5C PUSH2 0xEF4 JUMP JUMPDEST JUMPDEST PUSH1 0x1 DUP3 ADD SWAP1 POP SWAP2 SWAP1 POP JUMP JUMPDEST PUSH32 0x4E487B7100000000000000000000000000000000000000000000000000000000 PUSH0 MSTORE PUSH1 0x22 PUSH1 0x4 MSTORE PUSH1 0x24 PUSH0 REVERT JUMPDEST PUSH0 PUSH1 0x2 DUP3 DIV SWAP1 POP PUSH1 0x1 DUP3 AND DUP1 PUSH2 0xFAC JUMPI PUSH1 0x7F DUP3 AND SWAP2 POP JUMPDEST PUSH1 0x20 DUP3 LT DUP2 SUB PUSH2 0xFBF JUMPI PUSH2 0xFBE PUSH2 0xF68 JUMP JUMPDEST JUMPDEST POP SWAP2 SWAP1 POP JUMP JUMPDEST PUSH32 0x4E487B7100000000000000000000000000000000000000000000000000000000 PUSH0 MSTORE PUSH1 0x41 PUSH1 0x4 MSTORE PUSH1 0x24 PUSH0 REVERT JUMPDEST PUSH0 PUSH2 0xFFC DUP3 PUSH2 0x9A0 JUMP JUMPDEST SWAP2 POP PUSH2 0x1007 DUP4 PUSH2 0x9A0 JUMP JUMPDEST SWAP3 POP DUP3 DUP3 SUB SWAP1 POP DUP2 DUP2 GT ISZERO PUSH2 0x101F JUMPI PUSH2 0x101E PUSH2 0xEF4 JUMP JUMPDEST JUMPDEST SWAP3 SWAP2 POP POP JUMP JUMPDEST PUSH32 0x4E487B7100000000000000000000000000000000000000000000000000000000 PUSH0 MSTORE PUSH1 0x32 PUSH1 0x4 MSTORE PUSH1 0x24 PUSH0 REVERT JUMPDEST PUSH32 0x496E76616C696420494400000000000000000000000000000000000000000000 PUSH0 DUP3 ADD MSTORE POP JUMP JUMPDEST PUSH0 PUSH2 0x1086 PUSH1 0xA DUP4 PUSH2 0xA17 JUMP JUMPDEST SWAP2 POP PUSH2 0x1091 DUP3 PUSH2 0x1052 JUMP JUMPDEST PUSH1 0x20 DUP3 ADD SWAP1 POP SWAP2 SWAP1 POP JUMP JUMPDEST PUSH0 PUSH1 0x20 DUP3 ADD SWAP1 POP DUP2 DUP2 SUB PUSH0 DUP4 ADD MSTORE PUSH2 0x10B3 DUP2 PUSH2 0x107A JUMP JUMPDEST SWAP1 POP SWAP2 SWAP1 POP JUMP INVALID LOG2 PUSH5 0x6970667358 0x22 SLT KECCAK256 KECCAK256 0xB2 0xBE SAR 0xC9 0xDD SWAP14 TIMESTAMP 0xBF 0xE7 0x4E 0xD6 EXTCODESIZE 0x2F 0xC0 STOP 0xB5 EXP REVERT PREVRANDAO CALLCODE PUSH28 0x527D6A76A1F8E780CBF764736F6C634300081A003300000000000000 "
				},
				"gasEstimates": {
					"creation": {
						"codeDepositCost": "867200",
						"executionCost": "infinite",
						"totalCost": "infinite"
					},
					"external": {
						"candidate(uint256)": "infinite",
						"candidateCount()": "2469",
						"endTime()": "2492",
						"getAllCandidates()": "infinite",
						"getCandidateById(uint256)": "infinite",
						"getCurrentLeader()": "infinite",
						"getWinner()": "infinite",
						"startTime()": "2514",
						"vote(uint256)": "infinite",
						"voter(address)": "2899"
					},
					"internal": {
						"addCandidate(string memory)": "infinite"
					}
				},
				"methodIdentifiers": {
					"candidate(uint256)": "1de43c4b",
					"candidateCount()": "a9a981a3",
					"endTime()": "3197cbb6",
					"getAllCandidates()": "2e6997fe",
					"getCandidateById(uint256)": "95f85022",
					"getCurrentLeader()": "e868ba70",
					"getWinner()": "8e7ea5b2",
					"startTime()": "78e97925",
					"vote(uint256)": "0121b93f",
					"voter(address)": "af0dbe54"
				}
			},
			"storageLayout": {
				"storage": [
					{
						"astId": 13,
						"contract": "voting_dapp.sol:VotingSystem",
						"label": "candidate",
						"offset": 0,
						"slot": "0",
						"type": "t_mapping(t_uint256,t_struct(Candidate)8_storage)"
					},
					{
						"astId": 17,
						"contract": "voting_dapp.sol:VotingSystem",
						"label": "voter",
						"offset": 0,
						"slot": "1",
						"type": "t_mapping(t_address,t_bool)"
					},
					{
						"astId": 20,
						"contract": "voting_dapp.sol:VotingSystem",
						"label": "candidateCount",
						"offset": 0,
						"slot": "2",
						"type": "t_uint256"
					},
					{
						"astId": 22,
						"contract": "voting_dapp.sol:VotingSystem",
						"label": "startTime",
						"offset": 0,
						"slot": "3",
						"type": "t_uint256"
					},
					{
						"astId": 24,
						"contract": "voting_dapp.sol:VotingSystem",
						"label": "endTime",
						"offset": 0,
						"slot": "4",
						"type": "t_uint256"
					}
				],
				"types": {
					"t_address": {
						"encoding": "inplace",
						"label": "address",
						"numberOfBytes": "20"
					},
					"t_bool": {
						"encoding": "inplace",
						"label": "bool",
						"numberOfBytes": "1"
					},
					"t_mapping(t_address,t_bool)": {
						"encoding": "mapping",
						"key": "t_address",
						"label": "mapping(address => bool)",
						"numberOfBytes": "32",
						"value": "t_bool"
					},
					"t_mapping(t_uint256,t_struct(Candidate)8_storage)": {
						"encoding": "mapping",
						"key": "t_uint256",
						"label": "mapping(uint256 => struct VotingSystem.Candidate)",
						"numberOfBytes": "32",
						"value": "t_struct(Candidate)8_storage"
					},
					"t_string_storage": {
						"encoding": "bytes",
						"label": "string",
						"numberOfBytes": "32"
					},
					"t_struct(Candidate)8_storage": {
						"encoding": "inplace",
						"label": "struct VotingSystem.Candidate",
						"members": [
							{
								"astId": 3,
								"contract": "voting_dapp.sol:VotingSystem",
								"label": "id",
								"offset": 0,
								"slot": "0",
								"type": "t_uint256"
							},
							{
								"astId": 5,
								"contract": "voting_dapp.sol:VotingSystem",
								"label": "name",
								"offset": 0,
								"slot": "1",
								"type": "t_string_storage"
							},
							{
								"astId": 7,
								"contract": "voting_dapp.sol:VotingSystem",
								"label": "voteCount",
								"offset": 0,
								"slot": "2",
								"type": "t_uint256"
							}
						],
						"numberOfBytes": "96"
					},
					"t_uint256": {
						"encoding": "inplace",
						"label": "uint256",
						"numberOfBytes": "32"
					}
				}
			},
			"userdoc": {
				"kind": "user",
				"methods": {},
				"version": 1
			}
		}
	}
}